{
  "contracts/test/MockFeeDistributor.sol": {
    "MockFeeDistributor": {
      "abi": [
        {
          "inputs": [],
          "name": "balance",
          "outputs": [
            {
              "internalType": "uint256",
              "name": "",
              "type": "uint256"
            }
          ],
          "stateMutability": "view",
          "type": "function"
        },
        {
          "inputs": [
            {
              "internalType": "uint256",
              "name": "amount",
              "type": "uint256"
            }
          ],
          "name": "depositFee",
          "outputs": [],
          "stateMutability": "nonpayable",
          "type": "function"
        }
      ],
      "evm": {
        "bytecode": {
          "linkReferences": {},
          "object": "608080604052346100165761010e908161001c8239f35b600080fdfe60806040526004361015601157600080fd5b6000803560e01c8063423c485a14606b5763b69ef8a814603057600080fd5b34606857807ffffffffffffffffffffffffffffffffffffffffffffffffffffffffffffffffc36011260685760209054604051908152f35b80fd5b503460685760207ffffffffffffffffffffffffffffffffffffffffffffffffffffffffffffffffc3601126068578054600435810180911160ab57815580f35b6024827f4e487b710000000000000000000000000000000000000000000000000000000081526011600452fdfea2646970667358221220f26cf2c68da92d40962db9871613113dbf51f66594841cf8ff101d22b575106a64736f6c63430008170033",
          "opcodes": "PUSH1 0x80 DUP1 PUSH1 0x40 MSTORE CALLVALUE PUSH2 0x16 JUMPI PUSH2 0x10E SWAP1 DUP2 PUSH2 0x1C DUP3 CODECOPY RETURN JUMPDEST PUSH1 0x0 DUP1 REVERT INVALID PUSH1 0x80 PUSH1 0x40 MSTORE PUSH1 0x4 CALLDATASIZE LT ISZERO PUSH1 0x11 JUMPI PUSH1 0x0 DUP1 REVERT JUMPDEST PUSH1 0x0 DUP1 CALLDATALOAD PUSH1 0xE0 SHR DUP1 PUSH4 0x423C485A EQ PUSH1 0x6B JUMPI PUSH4 0xB69EF8A8 EQ PUSH1 0x30 JUMPI PUSH1 0x0 DUP1 REVERT JUMPDEST CALLVALUE PUSH1 0x68 JUMPI DUP1 PUSH32 0xFFFFFFFFFFFFFFFFFFFFFFFFFFFFFFFFFFFFFFFFFFFFFFFFFFFFFFFFFFFFFFFC CALLDATASIZE ADD SLT PUSH1 0x68 JUMPI PUSH1 0x20 SWAP1 SLOAD PUSH1 0x40 MLOAD SWAP1 DUP2 MSTORE RETURN JUMPDEST DUP1 REVERT JUMPDEST POP CALLVALUE PUSH1 0x68 JUMPI PUSH1 0x20 PUSH32 0xFFFFFFFFFFFFFFFFFFFFFFFFFFFFFFFFFFFFFFFFFFFFFFFFFFFFFFFFFFFFFFFC CALLDATASIZE ADD SLT PUSH1 0x68 JUMPI DUP1 SLOAD PUSH1 0x4 CALLDATALOAD DUP2 ADD DUP1 SWAP2 GT PUSH1 0xAB JUMPI DUP2 SSTORE DUP1 RETURN JUMPDEST PUSH1 0x24 DUP3 PUSH32 0x4E487B7100000000000000000000000000000000000000000000000000000000 DUP2 MSTORE PUSH1 0x11 PUSH1 0x4 MSTORE REVERT INVALID LOG2 PUSH5 0x6970667358 0x22 SLT KECCAK256 CALLCODE PUSH13 0xF2C68DA92D40962DB987161311 RETURNDATASIZE 0xBF MLOAD 0xF6 PUSH6 0x94841CF8FF10 SAR 0x22 0xB5 PUSH22 0x106A64736F6C63430008170033000000000000000000 "
        },
        "methodIdentifiers": {
          "balance()": "b69ef8a8",
          "depositFee(uint256)": "423c485a"
        }
      }
    }
  }
}