{
  "contracts/test/MockEFC.sol": {
    "MockEFC": {
      "abi": [
        {
          "inputs": [
            {
              "internalType": "address",
              "name": "",
              "type": "address"
            }
          ],
          "name": "referrerTokens",
          "outputs": [
            {
              "internalType": "uint256",
              "name": "",
              "type": "uint256"
            },
            {
              "internalType": "uint256",
              "name": "",
              "type": "uint256"
            }
          ],
          "stateMutability": "view",
          "type": "function"
        },
        {
          "inputs": [
            {
              "internalType": "address",
              "name": "",
              "type": "address"
            },
            {
              "internalType": "uint256",
              "name": "_memberTokenId",
              "type": "uint256"
            },
            {
              "internalType": "uint256",
              "name": "_connectorTokenId",
              "type": "uint256"
            }
          ],
          "name": "setReferrerToken",
          "outputs": [],
          "stateMutability": "nonpayable",
          "type": "function"
        }
      ],
      "evm": {
        "bytecode": {
          "linkReferences": {},
          "object": "6080806040523461001657610121908161001c8239f35b600080fdfe6080806040526004361015601257600080fd5b600090813560e01c9081631e54b2ee14607957506389e21b3a14603457600080fd5b3460765760607ffffffffffffffffffffffffffffffffffffffffffffffffffffffffffffffffc360112607657606760c4565b50602435815560443560015580f35b80fd5b90503460c05760207ffffffffffffffffffffffffffffffffffffffffffffffffffffffffffffffffc36011260c05760409160b160c4565b50546001549082526020820152f35b5080fd5b6004359073ffffffffffffffffffffffffffffffffffffffff8216820360e657565b600080fdfea2646970667358221220eeb3a3a4dad7ad32892f65642e430e7b0c245271ffce3702b21ba47cbd8144f164736f6c63430008170033",
          "opcodes": "PUSH1 0x80 DUP1 PUSH1 0x40 MSTORE CALLVALUE PUSH2 0x16 JUMPI PUSH2 0x121 SWAP1 DUP2 PUSH2 0x1C DUP3 CODECOPY RETURN JUMPDEST PUSH1 0x0 DUP1 REVERT INVALID PUSH1 0x80 DUP1 PUSH1 0x40 MSTORE PUSH1 0x4 CALLDATASIZE LT ISZERO PUSH1 0x12 JUMPI PUSH1 0x0 DUP1 REVERT JUMPDEST PUSH1 0x0 SWAP1 DUP2 CALLDATALOAD PUSH1 0xE0 SHR SWAP1 DUP2 PUSH4 0x1E54B2EE EQ PUSH1 0x79 JUMPI POP PUSH4 0x89E21B3A EQ PUSH1 0x34 JUMPI PUSH1 0x0 DUP1 REVERT JUMPDEST CALLVALUE PUSH1 0x76 JUMPI PUSH1 0x60 PUSH32 0xFFFFFFFFFFFFFFFFFFFFFFFFFFFFFFFFFFFFFFFFFFFFFFFFFFFFFFFFFFFFFFFC CALLDATASIZE ADD SLT PUSH1 0x76 JUMPI PUSH1 0x67 PUSH1 0xC4 JUMP JUMPDEST POP PUSH1 0x24 CALLDATALOAD DUP2 SSTORE PUSH1 0x44 CALLDATALOAD PUSH1 0x1 SSTORE DUP1 RETURN JUMPDEST DUP1 REVERT JUMPDEST SWAP1 POP CALLVALUE PUSH1 0xC0 JUMPI PUSH1 0x20 PUSH32 0xFFFFFFFFFFFFFFFFFFFFFFFFFFFFFFFFFFFFFFFFFFFFFFFFFFFFFFFFFFFFFFFC CALLDATASIZE ADD SLT PUSH1 0xC0 JUMPI PUSH1 0x40 SWAP2 PUSH1 0xB1 PUSH1 0xC4 JUMP JUMPDEST POP SLOAD PUSH1 0x1 SLOAD SWAP1 DUP3 MSTORE PUSH1 0x20 DUP3 ADD MSTORE RETURN JUMPDEST POP DUP1 REVERT JUMPDEST PUSH1 0x4 CALLDATALOAD SWAP1 PUSH20 0xFFFFFFFFFFFFFFFFFFFFFFFFFFFFFFFFFFFFFFFF DUP3 AND DUP3 SUB PUSH1 0xE6 JUMPI JUMP JUMPDEST PUSH1 0x0 DUP1 REVERT INVALID LOG2 PUSH5 0x6970667358 0x22 SLT KECCAK256 0xEE 0xB3 LOG3 LOG4 0xDA 0xD7 0xAD ORIGIN DUP10 0x2F PUSH6 0x642E430E7B0C 0x24 MSTORE PUSH18 0xFFCE3702B21BA47CBD8144F164736F6C6343 STOP ADDMOD OR STOP CALLER "
        },
        "methodIdentifiers": {
          "referrerTokens(address)": "1e54b2ee",
          "setReferrerToken(address,uint256,uint256)": "89e21b3a"
        }
      }
    }
  }
}