{
  "_format": "hh-sol-artifact-1",
  "contractName": "RewardCollector",
  "sourceName": "contracts/plugins/RewardCollector.sol",
  "abi": [
    {
      "inputs": [
        {
          "internalType": "contract Router",
          "name": "_router",
          "type": "address"
        },
        {
          "internalType": "contract IRouter",
          "name": "_routerV1",
          "type": "address"
        },
        {
          "internalType": "contract FarmRewardDistributor",
          "name": "_distributor",
          "type": "address"
        },
        {
          "internalType": "contract IFarmRewardDistributorV2",
          "name": "_distributorV2",
          "type": "address"
        }
      ],
      "stateMutability": "nonpayable",
      "type": "constructor"
    },
    {
      "inputs": [
        {
          "internalType": "address",
          "name": "target",
          "type": "address"
        }
      ],
      "name": "AddressEmptyCode",
      "type": "error"
    },
    {
      "inputs": [
        {
          "internalType": "address",
          "name": "account",
          "type": "address"
        }
      ],
      "name": "AddressInsufficientBalance",
      "type": "error"
    },
    {
      "inputs": [],
      "name": "FailedInnerCall",
      "type": "error"
    },
    {
      "inputs": [
        {
          "internalType": "uint256",
          "name": "amount",
          "type": "uint256"
        },
        {
          "internalType": "uint256",
          "name": "requiredAmount",
          "type": "uint256"
        }
      ],
      "name": "InsufficientBalance",
      "type": "error"
    },
    {
      "inputs": [
        {
          "internalType": "address",
          "name": "caller",
          "type": "address"
        },
        {
          "internalType": "address",
          "name": "requiredCaller",
          "type": "address"
        }
      ],
      "name": "InvalidCaller",
      "type": "error"
    },
    {
      "inputs": [
        {
          "internalType": "address",
          "name": "token",
          "type": "address"
        }
      ],
      "name": "SafeERC20FailedOperation",
      "type": "error"
    },
    {
      "inputs": [],
      "name": "EFC",
      "outputs": [
        {
          "internalType": "contract IEFC",
          "name": "",
          "type": "address"
        }
      ],
      "stateMutability": "view",
      "type": "function"
    },
    {
      "inputs": [
        {
          "internalType": "uint256[]",
          "name": "_tokenIDs",
          "type": "uint256[]"
        }
      ],
      "name": "collectContractsV1ArchitectRewardBatch",
      "outputs": [
        {
          "internalType": "uint256",
          "name": "rewardDebt",
          "type": "uint256"
        }
      ],
      "stateMutability": "nonpayable",
      "type": "function"
    },
    {
      "inputs": [
        {
          "internalType": "contract IPool[]",
          "name": "_pools",
          "type": "address[]"
        }
      ],
      "name": "collectContractsV1FarmLiquidityRewardBatch",
      "outputs": [
        {
          "internalType": "uint256",
          "name": "rewardDebt",
          "type": "uint256"
        }
      ],
      "stateMutability": "nonpayable",
      "type": "function"
    },
    {
      "inputs": [
        {
          "internalType": "contract IPool[]",
          "name": "_pools",
          "type": "address[]"
        },
        {
          "internalType": "uint256[]",
          "name": "_referralTokens",
          "type": "uint256[]"
        }
      ],
      "name": "collectContractsV1FarmReferralRewardBatch",
      "outputs": [
        {
          "internalType": "uint256",
          "name": "rewardDebt",
          "type": "uint256"
        }
      ],
      "stateMutability": "nonpayable",
      "type": "function"
    },
    {
      "inputs": [
        {
          "internalType": "PackedValue",
          "name": "_nonceAndLockupPeriod",
          "type": "uint256"
        },
        {
          "internalType": "PackedValue[]",
          "name": "_packedPoolRewardValues",
          "type": "uint256[]"
        },
        {
          "internalType": "bytes",
          "name": "_signature",
          "type": "bytes"
        },
        {
          "internalType": "address",
          "name": "_receiver",
          "type": "address"
        }
      ],
      "name": "collectContractsV1FarmRewardBatch",
      "outputs": [],
      "stateMutability": "nonpayable",
      "type": "function"
    },
    {
      "inputs": [
        {
          "internalType": "contract IPool[]",
          "name": "_pools",
          "type": "address[]"
        }
      ],
      "name": "collectContractsV1FarmRiskBufferFundRewardBatch",
      "outputs": [
        {
          "internalType": "uint256",
          "name": "rewardDebt",
          "type": "uint256"
        }
      ],
      "stateMutability": "nonpayable",
      "type": "function"
    },
    {
      "inputs": [
        {
          "internalType": "contract IPool[]",
          "name": "_pools",
          "type": "address[]"
        },
        {
          "internalType": "uint256[]",
          "name": "_referralTokens",
          "type": "uint256[]"
        }
      ],
      "name": "collectContractsV1ReferralFeeBatch",
      "outputs": [
        {
          "internalType": "uint256",
          "name": "amount",
          "type": "uint256"
        }
      ],
      "stateMutability": "nonpayable",
      "type": "function"
    },
    {
      "inputs": [
        {
          "internalType": "uint256[]",
          "name": "_ids",
          "type": "uint256[]"
        }
      ],
      "name": "collectContractsV1StakingRewardBatch",
      "outputs": [
        {
          "internalType": "uint256",
          "name": "rewardDebt",
          "type": "uint256"
        }
      ],
      "stateMutability": "nonpayable",
      "type": "function"
    },
    {
      "inputs": [
        {
          "internalType": "uint256[]",
          "name": "_ids",
          "type": "uint256[]"
        }
      ],
      "name": "collectContractsV1V3PosStakingRewardBatch",
      "outputs": [
        {
          "internalType": "uint256",
          "name": "rewardDebt",
          "type": "uint256"
        }
      ],
      "stateMutability": "nonpayable",
      "type": "function"
    },
    {
      "inputs": [
        {
          "internalType": "PackedValue",
          "name": "_nonceAndLockupPeriod",
          "type": "uint256"
        },
        {
          "internalType": "PackedValue[]",
          "name": "_packedMarketRewardValues",
          "type": "uint256[]"
        },
        {
          "internalType": "bytes",
          "name": "_signature",
          "type": "bytes"
        },
        {
          "internalType": "address",
          "name": "_receiver",
          "type": "address"
        }
      ],
      "name": "collectFarmRewardBatch",
      "outputs": [],
      "stateMutability": "nonpayable",
      "type": "function"
    },
    {
      "inputs": [
        {
          "internalType": "contract IMarketDescriptor[]",
          "name": "_markets",
          "type": "address[]"
        },
        {
          "internalType": "uint256[]",
          "name": "_referralTokens",
          "type": "uint256[]"
        }
      ],
      "name": "collectReferralFeeBatch",
      "outputs": [
        {
          "internalType": "uint256",
          "name": "amount",
          "type": "uint256"
        }
      ],
      "stateMutability": "nonpayable",
      "type": "function"
    },
    {
      "inputs": [],
      "name": "distributor",
      "outputs": [
        {
          "internalType": "contract FarmRewardDistributor",
          "name": "",
          "type": "address"
        }
      ],
      "stateMutability": "view",
      "type": "function"
    },
    {
      "inputs": [],
      "name": "distributorV2",
      "outputs": [
        {
          "internalType": "contract IFarmRewardDistributorV2",
          "name": "",
          "type": "address"
        }
      ],
      "stateMutability": "view",
      "type": "function"
    },
    {
      "inputs": [
        {
          "internalType": "bytes[]",
          "name": "data",
          "type": "bytes[]"
        }
      ],
      "name": "multicall",
      "outputs": [
        {
          "internalType": "bytes[]",
          "name": "results",
          "type": "bytes[]"
        }
      ],
      "stateMutability": "nonpayable",
      "type": "function"
    },
    {
      "inputs": [],
      "name": "router",
      "outputs": [
        {
          "internalType": "contract Router",
          "name": "",
          "type": "address"
        }
      ],
      "stateMutability": "view",
      "type": "function"
    },
    {
      "inputs": [],
      "name": "routerV1",
      "outputs": [
        {
          "internalType": "contract IRouter",
          "name": "",
          "type": "address"
        }
      ],
      "stateMutability": "view",
      "type": "function"
    },
    {
      "inputs": [
        {
          "internalType": "contract IERC20",
          "name": "_token",
          "type": "address"
        },
        {
          "internalType": "uint256",
          "name": "_amountMinimum",
          "type": "uint256"
        },
        {
          "internalType": "address",
          "name": "_receiver",
          "type": "address"
        }
      ],
      "name": "sweepToken",
      "outputs": [
        {
          "internalType": "uint256",
          "name": "amount",
          "type": "uint256"
        }
      ],
      "stateMutability": "nonpayable",
      "type": "function"
    }
  ],
  "bytecode": "0x61012080604052346200017a57608081620019b380380380916200002482856200017f565b8339810103126200017a5780516001600160a01b0380821682036200017a576020830151908082168083036200017a5760408501519482861686036200017a57606001519282841684036200017a57608052604051630a107c0160e11b815290602090829060049082905afa9081156200016e5760009162000125575b5060c0525060a05260e0526101009081526040516117f99182620001ba83396080518281816104330152818161099301528181610aed01528181610d030152610e25015260a051828181610542015261092f015260c0518281816110aa015261155b015260e05182818161012b0152610f5b0152518181816104f20152610bcb0152f35b6020813d60201162000165575b8162000141602093836200017f565b8101031262000161575191821682036200015e57508038620000a1565b80fd5b5080fd5b3d915062000132565b6040513d6000823e3d90fd5b600080fd5b601f909101601f19168101906001600160401b03821190821017620001a357604052565b634e487b7160e01b600052604160045260246000fdfe608060408181526004918236101561001657600080fd5b600092833560e01c9182631420f8021461106057508163165d961414610f1b57816318c103d714610e8f57816327e2a5d414610d7f5781632a0e915d14610c525781633a18428614610b9c578163453a571614610b11578163714981e014610aa2578163781642fd146109535781637d0d9d5f146108e45781638d21453b14610844578163ac9650d8146105db57838263b5e9296a1461051657508163bfe10928146104a7578163c0aee31a1461038e578163df2ab5bb14610153575063f887ea40146100e257600080fd5b3461014f57817ffffffffffffffffffffffffffffffffffffffffffffffffffffffffffffffffc36011261014f576020905173ffffffffffffffffffffffffffffffffffffffff7f0000000000000000000000000000000000000000000000000000000000000000168152f35b5080fd5b9190503461038a5760607ffffffffffffffffffffffffffffffffffffffffffffffffffffffffffffffffc36011261038a57813573ffffffffffffffffffffffffffffffffffffffff9283821680920361038657602491823595604435958616809603610370578451957f70a08231000000000000000000000000000000000000000000000000000000008752308488015260209788888781875afa97881561037c578398610348575b5080881061031457508551888101917fa9059cbb00000000000000000000000000000000000000000000000000000000835286820152876044820152604481526080810181811067ffffffffffffffff8211176102e757838a936102749382938b52519082885af161026d6116c5565b9085611723565b9182519283151592836102bf575b50505090506102945750505051908152f35b8351917f5274afe7000000000000000000000000000000000000000000000000000000008352820152fd5b91938180945001031261014f57870151908115918215036102e4575080388089610282565b80fd5b866041877f4e487b7100000000000000000000000000000000000000000000000000000000600052526000fd5b84604491878a8a51937fcf479181000000000000000000000000000000000000000000000000000000008552840152820152fd5b9097508881813d8311610375575b61036081836112b5565b81010312610370575196386101fd565b600080fd5b503d610356565b87513d85823e3d90fd5b8480fd5b8280fd5b83833461014f57602092837ffffffffffffffffffffffffffffffffffffffffffffffffffffffffffffffffc36011261038a57803567ffffffffffffffff81116104a3576103e08591369084016110ce565b92610419855194859384937f18602c7b0000000000000000000000000000000000000000000000000000000085523090339086016114af565b03818673ffffffffffffffffffffffffffffffffffffffff7f0000000000000000000000000000000000000000000000000000000000000000165af19283156104985792610469575b5051908152f35b9091508281813d8311610491575b61048181836112b5565b8101031261037057519083610462565b503d610477565b8251903d90823e3d90fd5b8380fd5b50503461014f57817ffffffffffffffffffffffffffffffffffffffffffffffffffffffffffffffffc36011261014f576020905173ffffffffffffffffffffffffffffffffffffffff7f0000000000000000000000000000000000000000000000000000000000000000168152f35b809184346105d75761052736611168565b9491929673ffffffffffffffffffffffffffffffffffffffff7f00000000000000000000000000000000000000000000000000000000000000001693843b156105d357899687936105a7928a519b8c998a9889977f8f1d31ec00000000000000000000000000000000000000000000000000000000895233908901611404565b03925af19081156105ca57506105ba5750f35b6105c390611272565b6102e45780f35b513d84823e3d90fd5b8980fd5b5050fd5b8391503461014f576020807ffffffffffffffffffffffffffffffffffffffffffffffffffffffffffffffffc36011261038a5767ffffffffffffffff9082358281116103865761062e90369085016110ce565b909286518381019581871083881117610816575085889497959852848152610655836114e7565b95610662855197886112b5565b83875261066e846114e7565b987fffffffffffffffffffffffffffffffffffffffffffffffffffffffffffffffe0809a01875b818110610807575050865b85811061073b5750505050505080519380850191818652845180935281818701918460051b880101950193965b8388106106da5786860387f35b9091929394838080837fffffffffffffffffffffffffffffffffffffffffffffffffffffffffffffffc08b6001960301875285601f8b5161072681518092818752878088019101611210565b011601019701930197019690939291936106cd565b8060059b989a979b1b8201357fffffffffffffffffffffffffffffffffffffffffffffffffffffffffffffffe1833603018112156108035782018035908682116107ff5788019080360382136107ff578b80600194938f6107ca8d6107de968c8c6107be955195838794868601998a37840191858301938a855251938491611210565b010380845201826112b5565b5190305af46107d76116c5565b9030611723565b6107e8828c6114ff565b526107f3818b6114ff565b500199959896996106a0565b8b80fd5b8a80fd5b60608a82018c01528a01610695565b6041907f4e487b71000000000000000000000000000000000000000000000000000000006000525260246000fd5b83833461014f57602092837ffffffffffffffffffffffffffffffffffffffffffffffffffffffffffffffffc36011261038a57803567ffffffffffffffff81116104a3576108968591369084016110ce565b90926108a2828561153f565b610419855194859384937f786bccf2000000000000000000000000000000000000000000000000000000008552309085015287602485015260448401916113c7565b50503461014f57817ffffffffffffffffffffffffffffffffffffffffffffffffffffffffffffffffc36011261014f576020905173ffffffffffffffffffffffffffffffffffffffff7f0000000000000000000000000000000000000000000000000000000000000000168152f35b90503461038a5791610964366110ff565b84919394969296508196610978828661153f565b829173ffffffffffffffffffffffffffffffffffffffff91827f000000000000000000000000000000000000000000000000000000000000000016935b8181106109c65760208b8b51908152f35b6109d181838b611233565b35848116809103610a9e5786905b8482106109f05750506001016109b5565b909b6109fd8d868c611233565b358c51907f0cfe3642000000000000000000000000000000000000000000000000000000008252838b830152602482015230604482015260209081816064818d8d5af1918215610a94578a92610a64575b5050610a5c906001926112f6565b9c01906109df565b90809250813d8311610a8d575b610a7b81836112b5565b81010312610370575181610a5c610a4e565b503d610a71565b8e513d8c823e3d90fd5b8680fd5b50503461014f57817ffffffffffffffffffffffffffffffffffffffffffffffffffffffffffffffffc36011261014f576020905173ffffffffffffffffffffffffffffffffffffffff7f0000000000000000000000000000000000000000000000000000000000000000168152f35b83833461014f57602092837ffffffffffffffffffffffffffffffffffffffffffffffffffffffffffffffffc36011261038a57803567ffffffffffffffff81116104a357610b638591369084016110ce565b92610419855194859384937f724fa7710000000000000000000000000000000000000000000000000000000085523090339086016114af565b9190503461038a5782610bae36611168565b93949297909173ffffffffffffffffffffffffffffffffffffffff7f00000000000000000000000000000000000000000000000000000000000000001694853b15610c4e578793610c2e928a519b8c998a9889977f8f1d31ec00000000000000000000000000000000000000000000000000000000895233908901611404565b03925af19081156105ca5750610c42575080f35b610c4b90611272565b80f35b8780fd5b9190503461038a5760206060610cb393610ce3610c6e366110ff565b91989092610c7c838561153f565b8851998a9788977f03dbee4d0000000000000000000000000000000000000000000000000000000089528801526064870191611332565b917ffffffffffffffffffffffffffffffffffffffffffffffffffffffffffffffffc8584030160248601526113c7565b30604483015203818673ffffffffffffffffffffffffffffffffffffffff7f0000000000000000000000000000000000000000000000000000000000000000165af1918215610d75578392610d3d575b6020838351908152f35b9091506020813d602011610d6d575b81610d59602093836112b5565b8101031261038a5760209250519038610d33565b3d9150610d4c565b81513d85823e3d90fd5b83833461014f57602092837ffffffffffffffffffffffffffffffffffffffffffffffffffffffffffffffffc36011261038a57803567ffffffffffffffff81116104a357610dd18591369084016110ce565b84517f64fdd23c0000000000000000000000000000000000000000000000000000000081529384928392610e0b9230923392918601611389565b03818673ffffffffffffffffffffffffffffffffffffffff7f0000000000000000000000000000000000000000000000000000000000000000165af1928315610498578093610e5d575b505051908152f35b909192508382813d8311610e88575b610e7681836112b5565b810103126102e4575051908380610e55565b503d610e6c565b83833461014f57602092837ffffffffffffffffffffffffffffffffffffffffffffffffffffffffffffffffc36011261038a57803567ffffffffffffffff81116104a357610ee18591369084016110ce565b84517f525c86560000000000000000000000000000000000000000000000000000000081529384928392610e0b9230923392918601611389565b90503461038a5791610f2c366110ff565b84919394969296508196610f40828661153f565b829173ffffffffffffffffffffffffffffffffffffffff91827f000000000000000000000000000000000000000000000000000000000000000016935b818110610f8e5760208b8b51908152f35b610f9981838b611233565b35848116809103610a9e5786905b848210610fb8575050600101610f7d565b909b610fc58d868c611233565b358c51907f0cfe3642000000000000000000000000000000000000000000000000000000008252838b830152602482015230604482015260209081816064818d8d5af1918215610a94578a9261102c575b5050611024906001926112f6565b9c0190610fa7565b90809250813d8311611059575b61104381836112b5565b81010312611055575181611024611016565b8880fd5b503d611039565b84903461014f57817ffffffffffffffffffffffffffffffffffffffffffffffffffffffffffffffffc36011261014f5760209073ffffffffffffffffffffffffffffffffffffffff7f0000000000000000000000000000000000000000000000000000000000000000168152f35b9181601f840112156103705782359167ffffffffffffffff8311610370576020808501948460051b01011161037057565b60407ffffffffffffffffffffffffffffffffffffffffffffffffffffffffffffffffc8201126103705767ffffffffffffffff91600435838111610370578261114a916004016110ce565b9390939260243591821161037057611164916004016110ce565b9091565b9060807ffffffffffffffffffffffffffffffffffffffffffffffffffffffffffffffffc830112610370576004359167ffffffffffffffff60243581811161037057826111b7916004016110ce565b93909392604435908382116103705780602383011215610370578160040135938411610370576024848301011161037057602401919060643573ffffffffffffffffffffffffffffffffffffffff811681036103705790565b60005b8381106112235750506000910152565b8181015183820152602001611213565b91908110156112435760051b0190565b7f4e487b7100000000000000000000000000000000000000000000000000000000600052603260045260246000fd5b67ffffffffffffffff811161128657604052565b7f4e487b7100000000000000000000000000000000000000000000000000000000600052604160045260246000fd5b90601f7fffffffffffffffffffffffffffffffffffffffffffffffffffffffffffffffe0910116810190811067ffffffffffffffff82111761128657604052565b9190820180921161130357565b7f4e487b7100000000000000000000000000000000000000000000000000000000600052601160045260246000fd5b9190808252602080920192916000805b83821061135157505050505090565b9091929394853573ffffffffffffffffffffffffffffffffffffffff811680910361038a578152830194830193929160010190611342565b92906113a390604093969596606086526060860191611332565b9473ffffffffffffffffffffffffffffffffffffffff809216602085015216910152565b90918281527f07ffffffffffffffffffffffffffffffffffffffffffffffffffffffffffffff83116103705760209260051b809284830137010190565b9591939796979490948060a0880173ffffffffffffffffffffffffffffffffffffffff8098168952602096878a015260a060408a01525260c08701939060005b81811061149b57505050601f8284937fffffffffffffffffffffffffffffffffffffffffffffffffffffffffffffffe0938960809998970360608b0152818652868601376000858286010152011601019416910152565b823586529486019491860191600101611444565b6060916114e4959373ffffffffffffffffffffffffffffffffffffffff809216835216602082015281604082015201916113c7565b90565b67ffffffffffffffff81116112865760051b60200190565b80518210156112435760209160051b010190565b90816020910312610370575173ffffffffffffffffffffffffffffffffffffffff811681036103705790565b90600073ffffffffffffffffffffffffffffffffffffffff91827f000000000000000000000000000000000000000000000000000000000000000016915b81811061158b575050505050565b611596818387611233565b3560409081517f6352211e000000000000000000000000000000000000000000000000000000009283825260049283830152602093602492858185818c5afa9081156116ba5760009161169d575b5089339116036115fb57505050505060010161157d565b88918589928561160d8a8f8d90611233565b35918451958693849283528a8301525afa91821561169257604496600093611663575b505051937f16cece4800000000000000000000000000000000000000000000000000000000855233908501521690820152fd5b611683929350803d1061168b575b61167b81836112b5565b810190611513565b908680611630565b503d611671565b50513d6000823e3d90fd5b6116b49150863d881161168b5761167b81836112b5565b386115e4565b83513d6000823e3d90fd5b3d1561171e573d9067ffffffffffffffff8211611286576040519161171260207fffffffffffffffffffffffffffffffffffffffffffffffffffffffffffffffe0601f84011601846112b5565b82523d6000602084013e565b606090565b90611762575080511561173857805190602001fd5b60046040517f1425ea42000000000000000000000000000000000000000000000000000000008152fd5b815115806117ba575b611773575090565b60249073ffffffffffffffffffffffffffffffffffffffff604051917f9996b315000000000000000000000000000000000000000000000000000000008352166004820152fd5b50803b1561176b56fea26469706673582212203220b881dd0668207c279104f9f82303d093a9e5654495006baad2f30dd176ac64736f6c63430008170033",
  "linkReferences": {},
  "deployedLinkReferences": {}
}