{
  "_format": "hh-sol-artifact-1",
  "contractName": "FundingRateUtilTest",
  "sourceName": "contracts/test/FundingRateUtilTest.sol",
  "abi": [
    {
      "anonymous": false,
      "inputs": [
        {
          "indexed": true,
          "internalType": "contract IMarketDescriptor",
          "name": "market",
          "type": "address"
        },
        {
          "indexed": false,
          "internalType": "int256",
          "name": "fundingRateDeltaX96",
          "type": "int256"
        },
        {
          "indexed": false,
          "internalType": "int192",
          "name": "longFundingRateGrowthAfterX96",
          "type": "int192"
        },
        {
          "indexed": false,
          "internalType": "int192",
          "name": "shortFundingRateGrowthAfterX96",
          "type": "int192"
        },
        {
          "indexed": false,
          "internalType": "uint64",
          "name": "lastAdjustFundingRateTime",
          "type": "uint64"
        }
      ],
      "name": "FundingRateGrowthAdjusted",
      "type": "event"
    },
    {
      "inputs": [],
      "name": "marketConfig",
      "outputs": [
        {
          "components": [
            {
              "internalType": "uint64",
              "name": "minMarginPerLiquidityPosition",
              "type": "uint64"
            },
            {
              "internalType": "uint32",
              "name": "maxLeveragePerLiquidityPosition",
              "type": "uint32"
            },
            {
              "internalType": "uint32",
              "name": "liquidationFeeRatePerLiquidityPosition",
              "type": "uint32"
            },
            {
              "internalType": "uint64",
              "name": "minMarginPerPosition",
              "type": "uint64"
            },
            {
              "internalType": "uint32",
              "name": "maxLeveragePerPosition",
              "type": "uint32"
            },
            {
              "internalType": "uint32",
              "name": "liquidationFeeRatePerPosition",
              "type": "uint32"
            },
            {
              "internalType": "uint128",
              "name": "maxPositionLiquidity",
              "type": "uint128"
            },
            {
              "internalType": "uint32",
              "name": "maxPositionValueRate",
              "type": "uint32"
            },
            {
              "internalType": "uint32",
              "name": "maxSizeRatePerPosition",
              "type": "uint32"
            },
            {
              "internalType": "uint64",
              "name": "liquidationExecutionFee",
              "type": "uint64"
            },
            {
              "internalType": "uint32",
              "name": "interestRate",
              "type": "uint32"
            },
            {
              "internalType": "uint32",
              "name": "maxFundingRate",
              "type": "uint32"
            }
          ],
          "internalType": "struct IConfigurable.MarketBaseConfig",
          "name": "baseConfig",
          "type": "tuple"
        },
        {
          "components": [
            {
              "internalType": "uint32",
              "name": "tradingFeeRate",
              "type": "uint32"
            },
            {
              "internalType": "uint32",
              "name": "protocolFeeRate",
              "type": "uint32"
            },
            {
              "internalType": "uint32",
              "name": "referralReturnFeeRate",
              "type": "uint32"
            },
            {
              "internalType": "uint32",
              "name": "referralParentReturnFeeRate",
              "type": "uint32"
            },
            {
              "internalType": "uint32",
              "name": "referralDiscountRate",
              "type": "uint32"
            }
          ],
          "internalType": "struct IConfigurable.MarketFeeRateConfig",
          "name": "feeRateConfig",
          "type": "tuple"
        },
        {
          "components": [
            {
              "internalType": "uint128",
              "name": "maxPriceImpactLiquidity",
              "type": "uint128"
            },
            {
              "internalType": "uint8",
              "name": "liquidationVertexIndex",
              "type": "uint8"
            },
            {
              "components": [
                {
                  "internalType": "uint32",
                  "name": "balanceRate",
                  "type": "uint32"
                },
                {
                  "internalType": "uint32",
                  "name": "premiumRate",
                  "type": "uint32"
                }
              ],
              "internalType": "struct IConfigurable.VertexConfig[10]",
              "name": "vertices",
              "type": "tuple[10]"
            }
          ],
          "internalType": "struct IConfigurable.MarketPriceConfig",
          "name": "priceConfig",
          "type": "tuple"
        }
      ],
      "stateMutability": "view",
      "type": "function"
    },
    {
      "inputs": [],
      "name": "priceFeed",
      "outputs": [
        {
          "internalType": "contract IPriceFeed",
          "name": "",
          "type": "address"
        }
      ],
      "stateMutability": "view",
      "type": "function"
    },
    {
      "inputs": [
        {
          "internalType": "contract IMarketDescriptor",
          "name": "_market",
          "type": "address"
        }
      ],
      "name": "sampleAndAdjustFundingRate",
      "outputs": [],
      "stateMutability": "nonpayable",
      "type": "function"
    },
    {
      "inputs": [
        {
          "components": [
            {
              "internalType": "uint64",
              "name": "lastAdjustFundingRateTime",
              "type": "uint64"
            },
            {
              "internalType": "uint16",
              "name": "sampleCount",
              "type": "uint16"
            },
            {
              "internalType": "int176",
              "name": "cumulativePremiumRateX96",
              "type": "int176"
            }
          ],
          "internalType": "struct IMarketPosition.GlobalFundingRateSample",
          "name": "_globalFundingRateSample",
          "type": "tuple"
        }
      ],
      "name": "setGlobalFundingRateSample",
      "outputs": [],
      "stateMutability": "nonpayable",
      "type": "function"
    },
    {
      "inputs": [
        {
          "components": [
            {
              "internalType": "uint128",
              "name": "netSize",
              "type": "uint128"
            },
            {
              "internalType": "uint128",
              "name": "liquidationBufferNetSize",
              "type": "uint128"
            },
            {
              "internalType": "uint160",
              "name": "previousSPPriceX96",
              "type": "uint160"
            },
            {
              "internalType": "Side",
              "name": "side",
              "type": "uint8"
            },
            {
              "internalType": "uint128",
              "name": "liquidity",
              "type": "uint128"
            },
            {
              "internalType": "int256",
              "name": "unrealizedPnLGrowthX64",
              "type": "int256"
            }
          ],
          "internalType": "struct IMarketLiquidityPosition.GlobalLiquidityPosition",
          "name": "_globalLiquidityPosition",
          "type": "tuple"
        }
      ],
      "name": "setGlobalLiquidityPosition",
      "outputs": [],
      "stateMutability": "nonpayable",
      "type": "function"
    },
    {
      "inputs": [
        {
          "components": [
            {
              "internalType": "uint128",
              "name": "longSize",
              "type": "uint128"
            },
            {
              "internalType": "uint128",
              "name": "shortSize",
              "type": "uint128"
            },
            {
              "internalType": "uint128",
              "name": "maxSize",
              "type": "uint128"
            },
            {
              "internalType": "uint128",
              "name": "maxSizePerPosition",
              "type": "uint128"
            },
            {
              "internalType": "int192",
              "name": "longFundingRateGrowthX96",
              "type": "int192"
            },
            {
              "internalType": "int192",
              "name": "shortFundingRateGrowthX96",
              "type": "int192"
            }
          ],
          "internalType": "struct IMarketPosition.GlobalPosition",
          "name": "_globalPosition",
          "type": "tuple"
        }
      ],
      "name": "setGlobalPosition",
      "outputs": [],
      "stateMutability": "nonpayable",
      "type": "function"
    },
    {
      "inputs": [
        {
          "components": [
            {
              "internalType": "uint64",
              "name": "minMarginPerLiquidityPosition",
              "type": "uint64"
            },
            {
              "internalType": "uint32",
              "name": "maxLeveragePerLiquidityPosition",
              "type": "uint32"
            },
            {
              "internalType": "uint32",
              "name": "liquidationFeeRatePerLiquidityPosition",
              "type": "uint32"
            },
            {
              "internalType": "uint64",
              "name": "minMarginPerPosition",
              "type": "uint64"
            },
            {
              "internalType": "uint32",
              "name": "maxLeveragePerPosition",
              "type": "uint32"
            },
            {
              "internalType": "uint32",
              "name": "liquidationFeeRatePerPosition",
              "type": "uint32"
            },
            {
              "internalType": "uint128",
              "name": "maxPositionLiquidity",
              "type": "uint128"
            },
            {
              "internalType": "uint32",
              "name": "maxPositionValueRate",
              "type": "uint32"
            },
            {
              "internalType": "uint32",
              "name": "maxSizeRatePerPosition",
              "type": "uint32"
            },
            {
              "internalType": "uint64",
              "name": "liquidationExecutionFee",
              "type": "uint64"
            },
            {
              "internalType": "uint32",
              "name": "interestRate",
              "type": "uint32"
            },
            {
              "internalType": "uint32",
              "name": "maxFundingRate",
              "type": "uint32"
            }
          ],
          "internalType": "struct IConfigurable.MarketBaseConfig",
          "name": "_marketBaseConfig",
          "type": "tuple"
        }
      ],
      "name": "setMarketBaseConfig",
      "outputs": [],
      "stateMutability": "nonpayable",
      "type": "function"
    },
    {
      "inputs": [
        {
          "internalType": "contract IPriceFeed",
          "name": "_priceFeed",
          "type": "address"
        }
      ],
      "name": "setPriceFeed",
      "outputs": [],
      "stateMutability": "nonpayable",
      "type": "function"
    },
    {
      "inputs": [
        {
          "components": [
            {
              "internalType": "uint128",
              "name": "premiumRateX96",
              "type": "uint128"
            },
            {
              "internalType": "uint8",
              "name": "pendingVertexIndex",
              "type": "uint8"
            },
            {
              "internalType": "uint8",
              "name": "currentVertexIndex",
              "type": "uint8"
            },
            {
              "internalType": "uint160",
              "name": "basisIndexPriceX96",
              "type": "uint160"
            },
            {
              "components": [
                {
                  "internalType": "uint128",
                  "name": "size",
                  "type": "uint128"
                },
                {
                  "internalType": "uint128",
                  "name": "premiumRateX96",
                  "type": "uint128"
                }
              ],
              "internalType": "struct IMarketManager.PriceVertex[10]",
              "name": "priceVertices",
              "type": "tuple[10]"
            },
            {
              "internalType": "uint128[10]",
              "name": "liquidationBufferNetSizes",
              "type": "uint128[10]"
            }
          ],
          "internalType": "struct IMarketManager.PriceState",
          "name": "_priceState",
          "type": "tuple"
        }
      ],
      "name": "setPriceState",
      "outputs": [],
      "stateMutability": "nonpayable",
      "type": "function"
    },
    {
      "inputs": [
        {
          "internalType": "contract IMarketDescriptor",
          "name": "_market",
          "type": "address"
        },
        {
          "internalType": "int256",
          "name": "_fundingRateDeltaX96",
          "type": "int256"
        },
        {
          "internalType": "int192",
          "name": "_longFundingRateGrowthAfterX96",
          "type": "int192"
        },
        {
          "internalType": "int192",
          "name": "_shortFundingRateGrowthAfterX96",
          "type": "int192"
        }
      ],
      "name": "snapshotAndAdjustGlobalFundingRate",
      "outputs": [],
      "stateMutability": "nonpayable",
      "type": "function"
    },
    {
      "inputs": [],
      "name": "state",
      "outputs": [
        {
          "components": [
            {
              "internalType": "uint128",
              "name": "premiumRateX96",
              "type": "uint128"
            },
            {
              "internalType": "uint8",
              "name": "pendingVertexIndex",
              "type": "uint8"
            },
            {
              "internalType": "uint8",
              "name": "currentVertexIndex",
              "type": "uint8"
            },
            {
              "internalType": "uint160",
              "name": "basisIndexPriceX96",
              "type": "uint160"
            },
            {
              "components": [
                {
                  "internalType": "uint128",
                  "name": "size",
                  "type": "uint128"
                },
                {
                  "internalType": "uint128",
                  "name": "premiumRateX96",
                  "type": "uint128"
                }
              ],
              "internalType": "struct IMarketManager.PriceVertex[10]",
              "name": "priceVertices",
              "type": "tuple[10]"
            },
            {
              "internalType": "uint128[10]",
              "name": "liquidationBufferNetSizes",
              "type": "uint128[10]"
            }
          ],
          "internalType": "struct IMarketManager.PriceState",
          "name": "priceState",
          "type": "tuple"
        },
        {
          "internalType": "uint128",
          "name": "usdBalance",
          "type": "uint128"
        },
        {
          "internalType": "uint128",
          "name": "protocolFee",
          "type": "uint128"
        },
        {
          "components": [
            {
              "internalType": "uint128",
              "name": "netSize",
              "type": "uint128"
            },
            {
              "internalType": "uint128",
              "name": "liquidationBufferNetSize",
              "type": "uint128"
            },
            {
              "internalType": "uint160",
              "name": "previousSPPriceX96",
              "type": "uint160"
            },
            {
              "internalType": "Side",
              "name": "side",
              "type": "uint8"
            },
            {
              "internalType": "uint128",
              "name": "liquidity",
              "type": "uint128"
            },
            {
              "internalType": "int256",
              "name": "unrealizedPnLGrowthX64",
              "type": "int256"
            }
          ],
          "internalType": "struct IMarketLiquidityPosition.GlobalLiquidityPosition",
          "name": "globalLiquidityPosition",
          "type": "tuple"
        },
        {
          "components": [
            {
              "internalType": "uint128",
              "name": "longSize",
              "type": "uint128"
            },
            {
              "internalType": "uint128",
              "name": "shortSize",
              "type": "uint128"
            },
            {
              "internalType": "uint128",
              "name": "maxSize",
              "type": "uint128"
            },
            {
              "internalType": "uint128",
              "name": "maxSizePerPosition",
              "type": "uint128"
            },
            {
              "internalType": "int192",
              "name": "longFundingRateGrowthX96",
              "type": "int192"
            },
            {
              "internalType": "int192",
              "name": "shortFundingRateGrowthX96",
              "type": "int192"
            }
          ],
          "internalType": "struct IMarketPosition.GlobalPosition",
          "name": "globalPosition",
          "type": "tuple"
        },
        {
          "components": [
            {
              "internalType": "int192",
              "name": "longFundingRateGrowthX96",
              "type": "int192"
            },
            {
              "internalType": "int192",
              "name": "shortFundingRateGrowthX96",
              "type": "int192"
            }
          ],
          "internalType": "struct IMarketPosition.PreviousGlobalFundingRate",
          "name": "previousGlobalFundingRate",
          "type": "tuple"
        },
        {
          "components": [
            {
              "internalType": "uint64",
              "name": "lastAdjustFundingRateTime",
              "type": "uint64"
            },
            {
              "internalType": "uint16",
              "name": "sampleCount",
              "type": "uint16"
            },
            {
              "internalType": "int176",
              "name": "cumulativePremiumRateX96",
              "type": "int176"
            }
          ],
          "internalType": "struct IMarketPosition.GlobalFundingRateSample",
          "name": "globalFundingRateSample",
          "type": "tuple"
        },
        {
          "components": [
            {
              "internalType": "int256",
              "name": "liquidationFund",
              "type": "int256"
            },
            {
              "internalType": "uint256",
              "name": "liquidity",
              "type": "uint256"
            }
          ],
          "internalType": "struct IMarketManager.GlobalLiquidationFund",
          "name": "globalLiquidationFund",
          "type": "tuple"
        }
      ],
      "stateMutability": "view",
      "type": "function"
    }
  ],
  "bytecode": "0x6080806040523461001657611501908161001c8239f35b600080fdfe608080604052600436101561001357600080fd5b600090813560e01c908163159ff04d14611221575080632243faf11461118557806323c113dc14610e3e578063437f4e8b14610c0557806343f59a8214610aed5780636409aa7b146109dc578063724e78da1461095b578063741bef1a146109095780638509aa011461072f578063c19d93fb146101f25763d1a73f501461009a57600080fd5b346101ef5760c07ffffffffffffffffffffffffffffffffffffffffffffffffffffffffffffffffc3601126101ef576fffffffffffffffffffffffffffffffff806100e3611470565b167fffffffffffffffffffffffffffffffff00000000000000000000000000000000908161010f61148f565b60801b1617601855604435918083168093036101ea5760643590811681036101ea5760801b16176019556084358060170b81036101ea57610190907fffffffffffffffff000000000000000000000000000000000000000000000000601a54169077ffffffffffffffffffffffffffffffffffffffffffffffff1617601a55565b60a4358060170b81036101ea576101e7907fffffffffffffffff000000000000000000000000000000000000000000000000601b54169077ffffffffffffffffffffffffffffffffffffffffffffffff1617601b55565b80f35b600080fd5b80fd5b50346101ef57807ffffffffffffffffffffffffffffffffffffffffffffffffffffffffffffffffc3601126101ef5760405161022d8161143d565b60ff82546fffffffffffffffffffffffffffffffff81168352818160801c16602084015260881c16604082015273ffffffffffffffffffffffffffffffffffffffff60015416606082015260405161028481611404565b600283825b600a82106106f1575050506080820152604051600c83825b600a60018301106106bf57505050610140810181811067ffffffffffffffff8211176106905760405260a08201526011546040516102de8161143d565b6013546fffffffffffffffffffffffffffffffff8116825260801c602082015260ff60145473ffffffffffffffffffffffffffffffffffffffff8116604084015260a01c1660608201526fffffffffffffffffffffffffffffffff60155416608082015260165460a08201526040516103568161143d565b6018546fffffffffffffffffffffffffffffffff8116825260801c60208201526019546fffffffffffffffffffffffffffffffff8116604083015260801c6060820152601a5460170b6080820152601b5460170b60a0820152604051906103bc82611421565b601c5460170b8252601d5460170b6020830152604051926103dc846113e8565b601e5467ffffffffffffffff8116855261ffff8160401c16602086015260501d60150b60408501526040519461041186611421565b60205486526021546020870152604051966fffffffffffffffffffffffffffffffff815116885260ff602082015116602089015260ff604082015116604089015273ffffffffffffffffffffffffffffffffffffffff60608201511660608901526080810151608089018a905b600a821061065c5750505060a001519761030088015b600a8210610634576106e08960208a60408b838c60a08d818e8e6fffffffffffffffffffffffffffffffff81166104408d015260801c6104608c01526fffffffffffffffffffffffffffffffff8151166104808c01526fffffffffffffffffffffffffffffffff86820151166104a08c015273ffffffffffffffffffffffffffffffffffffffff88820151166104c08c015260ff6060820151166104e08c01526fffffffffffffffffffffffffffffffff6080820151166105008c015201516105208a01526fffffffffffffffffffffffffffffffff8151166105408a01526fffffffffffffffffffffffffffffffff84820151166105608a01526fffffffffffffffffffffffffffffffff86820151166105808a01526fffffffffffffffffffffffffffffffff6060820151166105a08a0152608081015160170b6105c08a0152015160170b6105e0880152805160170b610600880152015160170b61062086015267ffffffffffffffff81511661064086015261ffff8482015116610660860152015160150b61068084015280516106a084015201516106c0820152f35b6020806001926fffffffffffffffffffffffffffffffff8d51168152019a0191019098610494565b602060406001926fffffffffffffffffffffffffffffffff838751828151168452015116838201520193019101909161047e565b7f4e487b7100000000000000000000000000000000000000000000000000000000600052604160045260246000fd5b6001604060029285546fffffffffffffffffffffffffffffffff8116825260801c6020820152019301910190916102a1565b60016020819260405161070381611421565b86546fffffffffffffffffffffffffffffffff8116825260801c83820152815201930191019091610289565b50346101ef576104407ffffffffffffffffffffffffffffffffffffffffffffffffffffffffffffffffc3601126101ef576fffffffffffffffffffffffffffffffff8061077a611470565b16907fffffffffffffffffffffffffffffffff000000000000000000000000000000009182600054161760005560243560ff811681036101ea5783549060809160443560ff811681036101ea5770ff0000000000000000000000000000000071ff00000000000000000000000000000000007fffffffffffffffffffffffffffff0000ffffffffffffffffffffffffffffffff9260881b169360801b169116171784556064359273ffffffffffffffffffffffffffffffffffffffff84168094036101ea576001937fffffffffffffffffffffffff000000000000000000000000000000000000000085541617845560846002926002908688935b600a85106108d957505050505050610304845b60058110610894578580f35b849086875b8581106108ac575081600c015501610888565b939192906020906108bc846114ae565b9088808860071b9316831b921b1916179201930190869291610899565b604081896108e785946114ae565b16886108f5602084016114ae565b871b16178655019301930192918790610875565b50346101ef57807ffffffffffffffffffffffffffffffffffffffffffffffffffffffffffffffffc3601126101ef57602073ffffffffffffffffffffffffffffffffffffffff60325416604051908152f35b50346101ef5760207ffffffffffffffffffffffffffffffffffffffffffffffffffffffffffffffffc3601126101ef5760043573ffffffffffffffffffffffffffffffffffffffff81168091036109d8577fffffffffffffffffffffffff0000000000000000000000000000000000000000603254161760325580f35b5080fd5b50346101ef5760c07ffffffffffffffffffffffffffffffffffffffffffffffffffffffffffffffffc3601126101ef576fffffffffffffffffffffffffffffffff80610a26611470565b167fffffffffffffffffffffffffffffffff000000000000000000000000000000009081610a5261148f565b60801b161760135560443573ffffffffffffffffffffffffffffffffffffffff81168091036101ea576014549060643560ff811681036101ea5774ff00000000000000000000000000000000000000007fffffffffffffffffffffff0000000000000000000000000000000000000000009160a01b16921617176014556084359182168092036101ea57601554161760155560a43560165580f35b50346101ef5760207ffffffffffffffffffffffffffffffffffffffffffffffffffffffffffffffffc3601126101ef57610b256113c5565b8173__$d90c0a13b24e7baead22cae208cb363ccb$__9173ffffffffffffffffffffffffffffffffffffffff928360325416813b15610c015760849160405195869485937f6ac1b34a0000000000000000000000000000000000000000000000000000000085528760048601526023602486015260448501521660648301525af48015610bf657610bb4575080f35b67ffffffffffffffff8111610bc95760405280f35b6024827f4e487b710000000000000000000000000000000000000000000000000000000081526041600452fd5b6040513d84823e3d90fd5b8380fd5b50346101ef576101807ffffffffffffffffffffffffffffffffffffffffffffffffffffffffffffffffc3601126101ef5767ffffffffffffffff80610c48611459565b169060243563ffffffff928382168203610e2e576044358481168103610e2a576064358481168103610e3a57608435928684168403610e365760a435928784168403610e32576fffffffff00000000000000000000000077ffffffffffffffff00000000000000000000000000000000926bffffffff00000000000000007fffffffff000000000000000000000000000000000000000000000000000000007bffffffff0000000000000000000000000000000000000000000000009760e01b169860401b16179160601b16179160801b16179160c01b16171760235560c4356fffffffffffffffffffffffffffffffff8116809103610c015760e435918383168303610e2e5761010435918483168303610e2a57610124359182168203610e2a5773ffffffff000000000000000000000000000000007fffffffffffffffff00000000000000000000000000000000000000000000000077ffffffff00000000000000000000000000000000000000009360c01b169460801b16179160a01b16171760245561014435818116809103610e265760255491610164359081168103610c015767ffffffff000000007fffffffffffffffffffffffffffffffffffffffffffffffff00000000000000009160201b169216171760255580f35b8280fd5b8580fd5b8480fd5b8880fd5b8780fd5b8680fd5b50346101ef57807ffffffffffffffffffffffffffffffffffffffffffffffffffffffffffffffffc3601126101ef5760405190610180820182811067ffffffffffffffff821117610bc95760405260235467ffffffffffffffff8116835263ffffffff8160401c16602084015263ffffffff8160601c16604084015267ffffffffffffffff8160801c16606084015263ffffffff8160c01c16608084015260e01c60a08301526024546fffffffffffffffffffffffffffffffff811660c084015263ffffffff8160801c1660e084015263ffffffff8160a01c1661010084015260c01c61012083015263ffffffff60255481811661014085015260201c166101608301526040518060a081011067ffffffffffffffff60a083011117610bc95760a0810160405263ffffffff6026548181168352818160201c166020840152818160401c166040840152818160601c16606084015260801c16608082015260405190610fa9826113e8565b60ff6027546fffffffffffffffffffffffffffffffff8116845260801c166020830152604051610fd881611404565b602884825b600a8210611152575050506080839263ffffffff926040809601528261016086519867ffffffffffffffff8151168a528260208201511660208b0152828882015116888b015267ffffffffffffffff60608201511660608b0152828582015116858b01528260a08201511660a08b01526fffffffffffffffffffffffffffffffff60c08201511660c08b01528260e08201511660e08b015282610100820151166101008b015267ffffffffffffffff610120820151166101208b015282610140820151166101408b015201511661016088015282815116610180880152826020820151166101a08801528285820151166101c0880152826060820151166101e08801520151166102008501526fffffffffffffffffffffffffffffffff81511661022085015260ff602082015116610240850152015161026083019091905b600a821061112a576104e084f35b6020604060019263ffffffff838751828151168452015116838201520193019101909161111c565b60016020819260405161116481611421565b63ffffffff87548181168352841c1683820152815201930191019091610fdd565b50346101ef5760607ffffffffffffffffffffffffffffffffffffffffffffffffffffffffffffffffc3601126101ef5767ffffffffffffffff6111c6611459565b166024359061ffff82168203610e26576044358060150b8103610c01577fffffffffffffffffffffffffffffffffffffffffffff0000000000000000000069ffff00000000000000009160501b169260401b161717601e5580f35b9050346109d85760807ffffffffffffffffffffffffffffffffffffffffffffffffffffffffffffffffc3601126109d85761125a6113c5565b6044358060170b91828203610e2e57606435908160170b93848303610e3a577fe09f191d2a12b24aa9b3ea59ba68035462197278a11a36632ec776509918ba579461139d73ffffffffffffffffffffffffffffffffffffffff94611357608097601a547fffffffffffffffff00000000000000000000000000000000000000000000000080601c541677ffffffffffffffffffffffffffffffffffffffffffffffff92831617601c55601b5490601d5416911617601d557fffffffffffffffff000000000000000000000000000000000000000000000000601a54169077ffffffffffffffffffffffffffffffffffffffffffffffff1617601a55565b7fffffffffffffffff000000000000000000000000000000000000000000000000601b54169077ffffffffffffffffffffffffffffffffffffffffffffffff1617601b55565b67ffffffffffffffff601e54169160243588526020880152604087015260608601521692a280f35b6004359073ffffffffffffffffffffffffffffffffffffffff821682036101ea57565b6060810190811067ffffffffffffffff82111761069057604052565b610140810190811067ffffffffffffffff82111761069057604052565b6040810190811067ffffffffffffffff82111761069057604052565b60c0810190811067ffffffffffffffff82111761069057604052565b60043567ffffffffffffffff811681036101ea5790565b6004356fffffffffffffffffffffffffffffffff811681036101ea5790565b6024356fffffffffffffffffffffffffffffffff811681036101ea5790565b356fffffffffffffffffffffffffffffffff811681036101ea579056fea264697066735822122057127a4065d30d3710b92553674a6508af118a427f7dea8c4ecb6c9aa8466ec664736f6c63430008170033",
  "linkReferences": {
    "contracts/libraries/FundingRateUtil.sol": {
      "FundingRateUtil": [
        {
          "length": 20,
          "start": 2884
        }
      ]
    }
  },
  "deployedLinkReferences": {
    "contracts/libraries/FundingRateUtil.sol": {
      "FundingRateUtil": [
        {
          "length": 20,
          "start": 2856
        }
      ]
    }
  }
}