{
  "_format": "hh-sol-artifact-1",
  "contractName": "Liquidator",
  "sourceName": "contracts/plugins/Liquidator.sol",
  "abi": [
    {
      "inputs": [
        {
          "internalType": "contract Router",
          "name": "_router",
          "type": "address"
        },
        {
          "internalType": "contract MarketManager",
          "name": "_marketManager",
          "type": "address"
        },
        {
          "internalType": "contract IERC20",
          "name": "_usd",
          "type": "address"
        },
        {
          "internalType": "contract IEFC",
          "name": "_efc",
          "type": "address"
        }
      ],
      "stateMutability": "nonpayable",
      "type": "constructor"
    },
    {
      "inputs": [
        {
          "internalType": "address",
          "name": "target",
          "type": "address"
        }
      ],
      "name": "AddressEmptyCode",
      "type": "error"
    },
    {
      "inputs": [
        {
          "internalType": "address",
          "name": "account",
          "type": "address"
        }
      ],
      "name": "AddressInsufficientBalance",
      "type": "error"
    },
    {
      "inputs": [],
      "name": "FailedInnerCall",
      "type": "error"
    },
    {
      "inputs": [],
      "name": "Forbidden",
      "type": "error"
    },
    {
      "inputs": [
        {
          "internalType": "int256",
          "name": "margin",
          "type": "int256"
        },
        {
          "internalType": "int256",
          "name": "unrealizedPnL",
          "type": "int256"
        },
        {
          "internalType": "uint256",
          "name": "maintenanceMargin",
          "type": "uint256"
        }
      ],
      "name": "MarginRateTooLow",
      "type": "error"
    },
    {
      "inputs": [],
      "name": "MathOverflowedMulDiv",
      "type": "error"
    },
    {
      "inputs": [
        {
          "internalType": "uint256",
          "name": "value",
          "type": "uint256"
        }
      ],
      "name": "SafeCastOverflowedUintToInt",
      "type": "error"
    },
    {
      "inputs": [
        {
          "internalType": "address",
          "name": "token",
          "type": "address"
        }
      ],
      "name": "SafeERC20FailedOperation",
      "type": "error"
    },
    {
      "anonymous": false,
      "inputs": [
        {
          "indexed": true,
          "internalType": "address",
          "name": "previousGov",
          "type": "address"
        },
        {
          "indexed": true,
          "internalType": "address",
          "name": "newGov",
          "type": "address"
        }
      ],
      "name": "ChangeGovStarted",
      "type": "event"
    },
    {
      "anonymous": false,
      "inputs": [
        {
          "indexed": false,
          "internalType": "address",
          "name": "account",
          "type": "address"
        },
        {
          "indexed": false,
          "internalType": "bool",
          "name": "active",
          "type": "bool"
        }
      ],
      "name": "ExecutorUpdated",
      "type": "event"
    },
    {
      "anonymous": false,
      "inputs": [
        {
          "indexed": true,
          "internalType": "address",
          "name": "previousGov",
          "type": "address"
        },
        {
          "indexed": true,
          "internalType": "address",
          "name": "newGov",
          "type": "address"
        }
      ],
      "name": "GovChanged",
      "type": "event"
    },
    {
      "anonymous": false,
      "inputs": [
        {
          "indexed": true,
          "internalType": "contract IMarketDescriptor",
          "name": "market",
          "type": "address"
        },
        {
          "indexed": true,
          "internalType": "address",
          "name": "account",
          "type": "address"
        },
        {
          "indexed": false,
          "internalType": "Side",
          "name": "side",
          "type": "uint8"
        },
        {
          "indexed": false,
          "internalType": "uint64",
          "name": "liquidationExecutionFee",
          "type": "uint64"
        }
      ],
      "name": "PositionClosedByLiquidator",
      "type": "event"
    },
    {
      "inputs": [],
      "name": "EFC",
      "outputs": [
        {
          "internalType": "contract IEFC",
          "name": "",
          "type": "address"
        }
      ],
      "stateMutability": "view",
      "type": "function"
    },
    {
      "inputs": [],
      "name": "acceptGov",
      "outputs": [],
      "stateMutability": "nonpayable",
      "type": "function"
    },
    {
      "inputs": [
        {
          "internalType": "address",
          "name": "_newGov",
          "type": "address"
        }
      ],
      "name": "changeGov",
      "outputs": [],
      "stateMutability": "nonpayable",
      "type": "function"
    },
    {
      "inputs": [
        {
          "internalType": "address",
          "name": "",
          "type": "address"
        }
      ],
      "name": "executors",
      "outputs": [
        {
          "internalType": "bool",
          "name": "",
          "type": "bool"
        }
      ],
      "stateMutability": "view",
      "type": "function"
    },
    {
      "inputs": [],
      "name": "gov",
      "outputs": [
        {
          "internalType": "address",
          "name": "",
          "type": "address"
        }
      ],
      "stateMutability": "view",
      "type": "function"
    },
    {
      "inputs": [
        {
          "internalType": "contract IMarketDescriptor",
          "name": "_market",
          "type": "address"
        },
        {
          "internalType": "address",
          "name": "_account",
          "type": "address"
        },
        {
          "internalType": "address",
          "name": "_feeReceiver",
          "type": "address"
        }
      ],
      "name": "liquidateLiquidityPosition",
      "outputs": [],
      "stateMutability": "nonpayable",
      "type": "function"
    },
    {
      "inputs": [
        {
          "internalType": "contract IMarketDescriptor",
          "name": "_market",
          "type": "address"
        },
        {
          "internalType": "address",
          "name": "_account",
          "type": "address"
        },
        {
          "internalType": "Side",
          "name": "_side",
          "type": "uint8"
        },
        {
          "internalType": "address",
          "name": "_feeReceiver",
          "type": "address"
        }
      ],
      "name": "liquidatePosition",
      "outputs": [],
      "stateMutability": "nonpayable",
      "type": "function"
    },
    {
      "inputs": [],
      "name": "marketManager",
      "outputs": [
        {
          "internalType": "contract MarketManager",
          "name": "",
          "type": "address"
        }
      ],
      "stateMutability": "view",
      "type": "function"
    },
    {
      "inputs": [],
      "name": "pendingGov",
      "outputs": [
        {
          "internalType": "address",
          "name": "",
          "type": "address"
        }
      ],
      "stateMutability": "view",
      "type": "function"
    },
    {
      "inputs": [],
      "name": "priceFeed",
      "outputs": [
        {
          "internalType": "contract IPriceFeed",
          "name": "",
          "type": "address"
        }
      ],
      "stateMutability": "view",
      "type": "function"
    },
    {
      "inputs": [],
      "name": "router",
      "outputs": [
        {
          "internalType": "contract Router",
          "name": "",
          "type": "address"
        }
      ],
      "stateMutability": "view",
      "type": "function"
    },
    {
      "inputs": [
        {
          "internalType": "address",
          "name": "_account",
          "type": "address"
        },
        {
          "internalType": "bool",
          "name": "_active",
          "type": "bool"
        }
      ],
      "name": "updateExecutor",
      "outputs": [],
      "stateMutability": "nonpayable",
      "type": "function"
    },
    {
      "inputs": [],
      "name": "updatePriceFeed",
      "outputs": [],
      "stateMutability": "nonpayable",
      "type": "function"
    },
    {
      "inputs": [],
      "name": "usd",
      "outputs": [
        {
          "internalType": "contract IERC20",
          "name": "",
          "type": "address"
        }
      ],
      "stateMutability": "view",
      "type": "function"
    }
  ],
  "bytecode": "0x6101008060405234620001f9576080816200237d8038038091620000248285620001fe565b833981010312620001f95780516001600160a01b03908181168103620001f95760208301519082821690818303620001f9576040850151948486168603620001f95760600151908482168203620001f957600460209260009485549160018060a01b031999338b851617885560405198899687958c3391167f3d1e4c3a68fed9f4f8315582b7297cf8fa264bc8e6704287603ba8c72bf05ac28c80a360805260a05260c05260e052633a0df78d60e11b82525afa918215620001ec5781926200019f575b50501690600254161760025560405161214490816200023982396080518181816101020152818161053901528181610b6701528181610bec01528181611079015281816111450152818161118c0152818161123001526118f1015260a0518181816104a40152818161081f01528181610afc01528181610c7a01528181610daa0152610ec8015260c051818181610174015281816112ca0152818161135e01526113a4015260e0518181816107300152610d130152f35b9091506020813d602011620001e3575b81620001be60209383620001fe565b81010312620001df5751908282168203620001dc57503880620000e8565b80fd5b5080fd5b3d9150620001af565b50604051903d90823e3d90fd5b600080fd5b601f909101601f19168101906001600160401b038211908210176200022257604052565b634e487b7160e01b600052604160045260246000fdfe604060808152600436101561001357600080fd5b600090813560e01c80630dd919d2146107a457806312d43a51146107545780631420f802146106e6578063252408101461069457806334b85e74146105ca5780633bd9a15d146104c857806341ed2c121461045a578063741bef1a146104085780637bc6729b146103315780639ac2a011146102cb578063a962ef1e1461021e578063b9e8922214610198578063d63a6ccd1461012a5763f887ea40146100b957600080fd5b3461012657817ffffffffffffffffffffffffffffffffffffffffffffffffffffffffffffffffc360112610126576020905173ffffffffffffffffffffffffffffffffffffffff7f0000000000000000000000000000000000000000000000000000000000000000168152f35b5080fd5b503461012657817ffffffffffffffffffffffffffffffffffffffffffffffffffffffffffffffffc360112610126576020905173ffffffffffffffffffffffffffffffffffffffff7f0000000000000000000000000000000000000000000000000000000000000000168152f35b823461021b5760807ffffffffffffffffffffffffffffffffffffffffffffffffffffffffffffffffc36011261021b576101d06108c6565b6101d86108e9565b60443560ff81168103610217576064359173ffffffffffffffffffffffffffffffffffffffff831683036102125761020f936109dc565b80f35b600080fd5b8380fd5b80fd5b823461021b5760207ffffffffffffffffffffffffffffffffffffffffffffffffffffffffffffffffc36011261021b576102566108c6565b61025e611bc6565b73ffffffffffffffffffffffffffffffffffffffff80911690817fffffffffffffffffffffffff000000000000000000000000000000000000000060015416176001558254167fb9911e2099e372c216862258dc462bb65da46a2c854536c8b1acae619d0d62ed8380a380f35b50346101265760207ffffffffffffffffffffffffffffffffffffffffffffffffffffffffffffffffc3601126101265760ff8160209373ffffffffffffffffffffffffffffffffffffffff61031e6108c6565b1681526003855220541690519015158152f35b503461012657817ffffffffffffffffffffffffffffffffffffffffffffffffffffffffffffffffc360112610126576001549073ffffffffffffffffffffffffffffffffffffffff9081831633036103df57507fffffffffffffffffffffffff0000000000000000000000000000000000000000809216600155825491339083161783553391167f3d1e4c3a68fed9f4f8315582b7297cf8fa264bc8e6704287603ba8c72bf05ac28380a380f35b600490517fee90c468000000000000000000000000000000000000000000000000000000008152fd5b503461012657817ffffffffffffffffffffffffffffffffffffffffffffffffffffffffffffffffc3601126101265760209073ffffffffffffffffffffffffffffffffffffffff600254169051908152f35b503461012657817ffffffffffffffffffffffffffffffffffffffffffffffffffffffffffffffffc360112610126576020905173ffffffffffffffffffffffffffffffffffffffff7f0000000000000000000000000000000000000000000000000000000000000000168152f35b50346101265760607ffffffffffffffffffffffffffffffffffffffffffffffffffffffffffffffffc360112610126576105006108c6565b908261050a6108e9565b9260443573ffffffffffffffffffffffffffffffffffffffff9182821680920361021757610536611c11565b827f00000000000000000000000000000000000000000000000000000000000000001691823b156105c6576064928591858851998a9788967fb2d0d4cd00000000000000000000000000000000000000000000000000000000885216600487015216602485015260448401525af19081156105bd57506105b4575080f35b61020f9061090c565b513d84823e3d90fd5b8480fd5b503461012657807ffffffffffffffffffffffffffffffffffffffffffffffffffffffffffffffffc360112610126576106016108c6565b906024358015158091036102175773ffffffffffffffffffffffffffffffffffffffff7f9fdbc2d48b8a0db2f62663bf9312ad02f5b1f6414ad600b55a247d09aeec3ea29361064e611bc6565b169081855260036020528285207fffffffffffffffffffffffffffffffffffffffffffffffffffffffffffffff0081541660ff831617905582519182526020820152a180f35b503461012657817ffffffffffffffffffffffffffffffffffffffffffffffffffffffffffffffffc3601126101265760209073ffffffffffffffffffffffffffffffffffffffff600154169051908152f35b503461012657817ffffffffffffffffffffffffffffffffffffffffffffffffffffffffffffffffc360112610126576020905173ffffffffffffffffffffffffffffffffffffffff7f0000000000000000000000000000000000000000000000000000000000000000168152f35b503461012657817ffffffffffffffffffffffffffffffffffffffffffffffffffffffffffffffffc3601126101265773ffffffffffffffffffffffffffffffffffffffff60209254169051908152f35b503461012657817ffffffffffffffffffffffffffffffffffffffffffffffffffffffffffffffffc360112610126576107db611bc6565b73ffffffffffffffffffffffffffffffffffffffff9080517f741bef1a000000000000000000000000000000000000000000000000000000008152602081600481867f0000000000000000000000000000000000000000000000000000000000000000165afa9182156108bd5750839161087e575b50167fffffffffffffffffffffffff0000000000000000000000000000000000000000600254161760025580f35b90506020813d6020116108b5575b816108996020938361094f565b810103126108b1575181811681036108b15738610850565b8280fd5b3d915061088c565b513d85823e3d90fd5b6004359073ffffffffffffffffffffffffffffffffffffffff8216820361021257565b6024359073ffffffffffffffffffffffffffffffffffffffff8216820361021257565b67ffffffffffffffff811161092057604052565b7f4e487b7100000000000000000000000000000000000000000000000000000000600052604160045260246000fd5b90601f7fffffffffffffffffffffffffffffffffffffffffffffffffffffffffffffffe0910116810190811067ffffffffffffffff82111761092057604052565b51906fffffffffffffffffffffffffffffffff8216820361021257565b519073ffffffffffffffffffffffffffffffffffffffff8216820361021257565b51908160170b820361021257565b6109e4611c11565b600254936024602073ffffffffffffffffffffffffffffffffffffffff60009716600160ff881614600014611bbc57600160ff60025b1603611b2657604051928380927f9fae754100000000000000000000000000000000000000000000000000000000825273ffffffffffffffffffffffffffffffffffffffff881660048301525afa908115611b1b578691611add575b505b6040517f232bfdc400000000000000000000000000000000000000000000000000000000815273ffffffffffffffffffffffffffffffffffffffff8416600482015273ffffffffffffffffffffffffffffffffffffffff8516602482015260ff8616604482015260808160648173ffffffffffffffffffffffffffffffffffffffff7f0000000000000000000000000000000000000000000000000000000000000000165afa908115611ad2578791611a12575b506fffffffffffffffffffffffffffffffff6020820151161580156119af575b6118d35773ffffffffffffffffffffffffffffffffffffffff7f0000000000000000000000000000000000000000000000000000000000000000163b1561143b576040517f6e43596a00000000000000000000000000000000000000000000000000000000815273ffffffffffffffffffffffffffffffffffffffff8516600482015287816024818373ffffffffffffffffffffffffffffffffffffffff7f0000000000000000000000000000000000000000000000000000000000000000165af180156118b5576118c0575b50604051917f8a4aa56e00000000000000000000000000000000000000000000000000000000835273ffffffffffffffffffffffffffffffffffffffff8516600484015260a08360248173ffffffffffffffffffffffffffffffffffffffff7f0000000000000000000000000000000000000000000000000000000000000000165afa9283156118b557889361180b575b5063ffffffff835116926040517f1e54b2ee00000000000000000000000000000000000000000000000000000000815273ffffffffffffffffffffffffffffffffffffffff8816600482015260408160248173ffffffffffffffffffffffffffffffffffffffff7f0000000000000000000000000000000000000000000000000000000000000000165afa908115611616578a916117d9575b50611796575b506040517fde89773900000000000000000000000000000000000000000000000000000000815273ffffffffffffffffffffffffffffffffffffffff861660048201526101808160248173ffffffffffffffffffffffffffffffffffffffff7f0000000000000000000000000000000000000000000000000000000000000000165afa90811561178b578991611662575b506f05f5e10000000000000000000000000067ffffffffffffffff610120830151169463ffffffff6fffffffffffffffffffffffffffffffff602087015116938160a073ffffffffffffffffffffffffffffffffffffffff60408a0151169201511602911673ffffffffffffffffffffffffffffffffffffffff85160201610e628184611fcb565b9209611621575b6040517f1137d33d00000000000000000000000000000000000000000000000000000000815273ffffffffffffffffffffffffffffffffffffffff8716600482015260c08160248173ffffffffffffffffffffffffffffffffffffffff7f0000000000000000000000000000000000000000000000000000000000000000165afa908115611616578a9161155d575b5060ff8916600103611551576080015160170b5b606084015160208501516fffffffffffffffffffffffffffffffff1691907fffffffffffffffff800000000000000000000000000000000000000000000000601782810b9084900b03908112777fffffffffffffffffffffffffffffffffffffffffffffff9091131761152457610fbb9291601791820b90820b03900b8b811261150257610fa291610f9d91611ea9565b611e4e565b6fffffffffffffffffffffffffffffffff855116611c50565b916fffffffffffffffffffffffffffffffff60208501511673ffffffffffffffffffffffffffffffffffffffff604086015116600160ff8c16146000146114ba5773ffffffffffffffffffffffffffffffffffffffff83168111156114945761103c9273ffffffffffffffffffffffffffffffffffffffff91031690611e1d565b89035b6110498184611c50565b8a8413908161148a575b8161147e575b5061143f57505050602001516fffffffffffffffffffffffffffffffff167f000000000000000000000000000000000000000000000000000000000000000073ffffffffffffffffffffffffffffffffffffffff163b1561143b57604051907fc171f0b000000000000000000000000000000000000000000000000000000000825273ffffffffffffffffffffffffffffffffffffffff8516600483015273ffffffffffffffffffffffffffffffffffffffff8616602483015260ff87166044830152606482015230608482015286808260a4818373ffffffffffffffffffffffffffffffffffffffff7f0000000000000000000000000000000000000000000000000000000000000000165af19182611427575b505061127c575073ffffffffffffffffffffffffffffffffffffffff7f0000000000000000000000000000000000000000000000000000000000000000163b156105c6576040517fb676a97800000000000000000000000000000000000000000000000000000000815273ffffffffffffffffffffffffffffffffffffffff9283166004820152928216602484015260ff909316604483015290911660648201528181806084810103818373ffffffffffffffffffffffffffffffffffffffff7f0000000000000000000000000000000000000000000000000000000000000000165af1801561127157611260575050565b61126a829161090c565b61021b5750565b6040513d84823e3d90fd5b60409591929551917f70a0823100000000000000000000000000000000000000000000000000000000835230600484015260208360248173ffffffffffffffffffffffffffffffffffffffff7f0000000000000000000000000000000000000000000000000000000000000000165afa92831561141a5781936113e5575b509360409373ffffffffffffffffffffffffffffffffffffffff938493877fa1f0cf66b7d6285adf283971995c40d5e80e547e5bbe45362e32a69c56a8bdc89850818310156000146113ce575067ffffffffffffffff81611382929303925b1680937f0000000000000000000000000000000000000000000000000000000000000000611c6c565b8061139d575b5060ff855197168752602087015216941692a3565b6113c890837f0000000000000000000000000000000000000000000000000000000000000000611c6c565b38611388565b91611382915067ffffffffffffffff809116611359565b9092506020813d602011611412575b816114016020938361094f565b810103126108b157519160406112fa565b3d91506113f4565b50604051903d90823e3d90fd5b6114309061090c565b61143b57863861116e565b8680fd5b606494929350604051937fae53279200000000000000000000000000000000000000000000000000000000855260048501526024840152016044820152fd5b90508583011038611059565b8b81139150611053565b6114b5920373ffffffffffffffffffffffffffffffffffffffff1690611ea9565b61103f565b9173ffffffffffffffffffffffffffffffffffffffff8116831015611494576114fb9273ffffffffffffffffffffffffffffffffffffffff91031690611e1d565b890361103f565b610f9d61151f9261151561151a93611df0565b611e1d565b611df0565b610fa2565b60248c7f4e487b710000000000000000000000000000000000000000000000000000000081526011600452fd5b60a0015160170b610f0c565b905060c0813d60c01161160e575b8161157860c0938361094f565b8101031261160a57604051908160c081011067ffffffffffffffff60c0840111176109205760a06115ff9160c084016040526115b381610990565b84526115c160208201610990565b60208501526115d260408201610990565b60408501526115e360608201610990565b60608501526115f4608082016109ce565b6080850152016109ce565b60a082015238610ef8565b8980fd5b3d915061156b565b6040513d8c823e3d90fd5b60018101811161163357600101610e69565b7f4e487b7100000000000000000000000000000000000000000000000000000000600052601160045260246000fd5b9050610180813d61018011611783575b81611680610180938361094f565b8101031261177f57604051908161018081011067ffffffffffffffff610180840111176109205761018082016040526116b881611c3b565b82526116c660208201611c2a565b60208301526116d760408201611c2a565b60408301526116e860608201611c3b565b60608301526116f960808201611c2a565b608083015261170a60a08201611c2a565b60a083015261171b60c08201610990565b60c083015261172c60e08201611c2a565b60e083015261010061173f818301611c2a565b90830152610120611751818301611c3b565b90830152610140611763818301611c2a565b90830152611775610160809201611c2a565b9082015238610dda565b8880fd5b3d9150611672565b6040513d8b823e3d90fd5b63ffffffff60806305f5e100929593950151166117b38184611f40565b92096117c7575b63ffffffff169138610d49565b600181018111611633576001016117ba565b90506040813d604011611803575b816117f46040938361094f565b8101031261160a575138610d43565b3d91506117e7565b90925060a0813d60a0116118ad575b8161182760a0938361094f565b810103126118a957604051908160a081011067ffffffffffffffff60a08401111761092057608061189d9160a0840160405261186281611c2a565b845261187060208201611c2a565b602085015261188160408201611c2a565b604085015261189260608201611c2a565b606085015201611c2a565b60808201529138610caa565b8780fd5b3d915061181a565b6040513d8a823e3d90fd5b6118cc9097919761090c565b9538610c19565b5050929094939173ffffffffffffffffffffffffffffffffffffffff7f00000000000000000000000000000000000000000000000000000000000000001690813b15610217576040517fb676a97800000000000000000000000000000000000000000000000000000000815273ffffffffffffffffffffffffffffffffffffffff9788166004820152908716602482015260ff9290921660448301529290941660648501529192919081908390608490829084905af19081156119a357506119985750565b6119a19061090c565b565b604051903d90823e3d90fd5b50604081015173ffffffffffffffffffffffffffffffffffffffff1660ff87166001036119f55773ffffffffffffffffffffffffffffffffffffffff8316115b15610b4c565b73ffffffffffffffffffffffffffffffffffffffff8316106119ef565b90506080813d608011611aca575b81611a2d6080938361094f565b8101031261143b576040519081608081011067ffffffffffffffff608084011117611a9d576060611a929160808401604052611a6881610990565b8452611a7660208201610990565b6020850152611a87604082016109ad565b6040850152016109ce565b606082015238610b2c565b6024887f4e487b710000000000000000000000000000000000000000000000000000000081526041600452fd5b3d9150611a20565b6040513d89823e3d90fd5b90506020813d602011611b13575b81611af86020938361094f565b81010312611b0f57611b09906109ad565b38610a76565b8580fd5b3d9150611aeb565b6040513d88823e3d90fd5b604051928380927f77c2fdc200000000000000000000000000000000000000000000000000000000825273ffffffffffffffffffffffffffffffffffffffff881660048301525afa908115611b1b578691611b82575b50610a78565b90506020813d602011611bb4575b81611b9d6020938361094f565b81010312611b0f57611bae906109ad565b38611b7c565b3d9150611b90565b600160ff81610a1a565b73ffffffffffffffffffffffffffffffffffffffff600054163303611be757565b60046040517fee90c468000000000000000000000000000000000000000000000000000000008152fd5b33600052600360205260ff6040600020541615611be757565b519063ffffffff8216820361021257565b519067ffffffffffffffff8216820361021257565b9190916000838201938412911290801582169115161761163357565b9190916040519260208401927fa9059cbb00000000000000000000000000000000000000000000000000000000845273ffffffffffffffffffffffffffffffffffffffff8092166024860152604485015260448452608084019167ffffffffffffffff9285811084821117610920576040521692600080938192519082875af13d15611de3573d918211611db65790611d459160405191611d3560207fffffffffffffffffffffffffffffffffffffffffffffffffffffffffffffffe0601f840116018461094f565b82523d84602084013e5b8461206e565b908151918215159283611d8e575b505050611d5d5750565b602490604051907f5274afe70000000000000000000000000000000000000000000000000000000082526004820152fd5b81929350906020918101031261012657602001519081159182150361021b5750388080611d53565b6024837f4e487b710000000000000000000000000000000000000000000000000000000081526041600452fd5b611d459150606090611d3f565b7f800000000000000000000000000000000000000000000000000000000000000081146116335760000390565b906c0100000000000000000000000090611e378184611ea9565b9209611e405790565b600181018091116116335790565b7f7fffffffffffffffffffffffffffffffffffffffffffffffffffffffffffffff8111611e785790565b602490604051907f24775e060000000000000000000000000000000000000000000000000000000082526004820152fd5b90808202917fffffffffffffffffffffffffffffffffffffffffffffffffffffffffffffffff82820991838084109303928084039314611f37576c010000000000000000000000009183831115611f0d570990828211900360a01b910360601c1790565b60046040517f227bc153000000000000000000000000000000000000000000000000000000008152fd5b50505060601c90565b90808202907fffffffffffffffffffffffffffffffffffffffffffffffffffffffffffffffff81840990828083109203918083039214611fbe576305f5e1009082821115611f0d577facbe0e98f503f8881186e60dbb7f727bf36b7213ee9f5a78c767074b22e90e21940990828211900360f81b910360081c170290565b50506305f5e10091500490565b90808202907fffffffffffffffffffffffffffffffffffffffffffffffffffffffffffffffff81840990828083109203918083039214612055576f05f5e1000000000000000000000000009082821115611f0d577facbe0e98f503f8881186e60dbb7f727bf36b7213ee9f5a78c767074b22e90e21940990828211900360981b910360681c170290565b50506f05f5e10000000000000000000000000091500490565b906120ad575080511561208357805190602001fd5b60046040517f1425ea42000000000000000000000000000000000000000000000000000000008152fd5b81511580612105575b6120be575090565b60249073ffffffffffffffffffffffffffffffffffffffff604051917f9996b315000000000000000000000000000000000000000000000000000000008352166004820152fd5b50803b156120b656fea26469706673582212206f1b18264a550ccd653bafdf47250cfca1a1f3e0b4a76f4a097a16339deae98664736f6c63430008170033",
  "linkReferences": {},
  "deployedLinkReferences": {}
}