{
  "_format": "hh-sol-artifact-1",
  "contractName": "MarketUtilTest",
  "sourceName": "contracts/test/MarketUtilTest.sol",
  "abi": [
    {
      "inputs": [],
      "name": "MathOverflowedMulDiv",
      "type": "error"
    },
    {
      "inputs": [
        {
          "internalType": "uint256",
          "name": "value",
          "type": "uint256"
        }
      ],
      "name": "SafeCastOverflowedUintToInt",
      "type": "error"
    },
    {
      "anonymous": false,
      "inputs": [
        {
          "indexed": true,
          "internalType": "contract IMarketDescriptor",
          "name": "market",
          "type": "address"
        },
        {
          "indexed": false,
          "internalType": "int256",
          "name": "unrealizedPnLGrowthAfterX64",
          "type": "int256"
        },
        {
          "indexed": false,
          "internalType": "uint160",
          "name": "previousSPPriceAfterX96",
          "type": "uint160"
        }
      ],
      "name": "SettlementPointReached",
      "type": "event"
    },
    {
      "inputs": [
        {
          "internalType": "contract IMarketDescriptor",
          "name": "market",
          "type": "address"
        }
      ],
      "name": "marketConfigs",
      "outputs": [
        {
          "components": [
            {
              "internalType": "uint64",
              "name": "minMarginPerLiquidityPosition",
              "type": "uint64"
            },
            {
              "internalType": "uint32",
              "name": "maxLeveragePerLiquidityPosition",
              "type": "uint32"
            },
            {
              "internalType": "uint32",
              "name": "liquidationFeeRatePerLiquidityPosition",
              "type": "uint32"
            },
            {
              "internalType": "uint64",
              "name": "minMarginPerPosition",
              "type": "uint64"
            },
            {
              "internalType": "uint32",
              "name": "maxLeveragePerPosition",
              "type": "uint32"
            },
            {
              "internalType": "uint32",
              "name": "liquidationFeeRatePerPosition",
              "type": "uint32"
            },
            {
              "internalType": "uint128",
              "name": "maxPositionLiquidity",
              "type": "uint128"
            },
            {
              "internalType": "uint32",
              "name": "maxPositionValueRate",
              "type": "uint32"
            },
            {
              "internalType": "uint32",
              "name": "maxSizeRatePerPosition",
              "type": "uint32"
            },
            {
              "internalType": "uint64",
              "name": "liquidationExecutionFee",
              "type": "uint64"
            },
            {
              "internalType": "uint32",
              "name": "interestRate",
              "type": "uint32"
            },
            {
              "internalType": "uint32",
              "name": "maxFundingRate",
              "type": "uint32"
            }
          ],
          "internalType": "struct IConfigurable.MarketBaseConfig",
          "name": "baseConfig",
          "type": "tuple"
        },
        {
          "components": [
            {
              "internalType": "uint32",
              "name": "tradingFeeRate",
              "type": "uint32"
            },
            {
              "internalType": "uint32",
              "name": "protocolFeeRate",
              "type": "uint32"
            },
            {
              "internalType": "uint32",
              "name": "referralReturnFeeRate",
              "type": "uint32"
            },
            {
              "internalType": "uint32",
              "name": "referralParentReturnFeeRate",
              "type": "uint32"
            },
            {
              "internalType": "uint32",
              "name": "referralDiscountRate",
              "type": "uint32"
            }
          ],
          "internalType": "struct IConfigurable.MarketFeeRateConfig",
          "name": "feeRateConfig",
          "type": "tuple"
        },
        {
          "components": [
            {
              "internalType": "uint128",
              "name": "maxPriceImpactLiquidity",
              "type": "uint128"
            },
            {
              "internalType": "uint8",
              "name": "liquidationVertexIndex",
              "type": "uint8"
            },
            {
              "components": [
                {
                  "internalType": "uint32",
                  "name": "balanceRate",
                  "type": "uint32"
                },
                {
                  "internalType": "uint32",
                  "name": "premiumRate",
                  "type": "uint32"
                }
              ],
              "internalType": "struct IConfigurable.VertexConfig[10]",
              "name": "vertices",
              "type": "tuple[10]"
            }
          ],
          "internalType": "struct IConfigurable.MarketPriceConfig",
          "name": "priceConfig",
          "type": "tuple"
        }
      ],
      "stateMutability": "view",
      "type": "function"
    },
    {
      "inputs": [],
      "name": "priceFeed",
      "outputs": [
        {
          "internalType": "contract IPriceFeed",
          "name": "",
          "type": "address"
        }
      ],
      "stateMutability": "view",
      "type": "function"
    },
    {
      "inputs": [
        {
          "components": [
            {
              "internalType": "uint128",
              "name": "netSize",
              "type": "uint128"
            },
            {
              "internalType": "uint128",
              "name": "liquidationBufferNetSize",
              "type": "uint128"
            },
            {
              "internalType": "uint160",
              "name": "previousSPPriceX96",
              "type": "uint160"
            },
            {
              "internalType": "Side",
              "name": "side",
              "type": "uint8"
            },
            {
              "internalType": "uint128",
              "name": "liquidity",
              "type": "uint128"
            },
            {
              "internalType": "int256",
              "name": "unrealizedPnLGrowthX64",
              "type": "int256"
            }
          ],
          "internalType": "struct IMarketLiquidityPosition.GlobalLiquidityPosition",
          "name": "_globalLiquidityPosition",
          "type": "tuple"
        }
      ],
      "name": "setGlobalLiquidityPosition",
      "outputs": [],
      "stateMutability": "nonpayable",
      "type": "function"
    },
    {
      "inputs": [
        {
          "internalType": "contract IPriceFeed",
          "name": "_priceFeed",
          "type": "address"
        }
      ],
      "name": "setPriceFeed",
      "outputs": [],
      "stateMutability": "nonpayable",
      "type": "function"
    },
    {
      "inputs": [
        {
          "components": [
            {
              "internalType": "uint128",
              "name": "premiumRateX96",
              "type": "uint128"
            },
            {
              "internalType": "uint8",
              "name": "pendingVertexIndex",
              "type": "uint8"
            },
            {
              "internalType": "uint8",
              "name": "currentVertexIndex",
              "type": "uint8"
            },
            {
              "internalType": "uint160",
              "name": "basisIndexPriceX96",
              "type": "uint160"
            },
            {
              "components": [
                {
                  "internalType": "uint128",
                  "name": "size",
                  "type": "uint128"
                },
                {
                  "internalType": "uint128",
                  "name": "premiumRateX96",
                  "type": "uint128"
                }
              ],
              "internalType": "struct IMarketManager.PriceVertex[10]",
              "name": "priceVertices",
              "type": "tuple[10]"
            },
            {
              "internalType": "uint128[10]",
              "name": "liquidationBufferNetSizes",
              "type": "uint128[10]"
            }
          ],
          "internalType": "struct IMarketManager.PriceState",
          "name": "_priceState",
          "type": "tuple"
        }
      ],
      "name": "setPriceState",
      "outputs": [],
      "stateMutability": "nonpayable",
      "type": "function"
    },
    {
      "inputs": [
        {
          "internalType": "contract IMarketDescriptor",
          "name": "_market",
          "type": "address"
        }
      ],
      "name": "settleLiquidityUnrealizedPnL",
      "outputs": [],
      "stateMutability": "nonpayable",
      "type": "function"
    },
    {
      "inputs": [],
      "name": "state",
      "outputs": [
        {
          "components": [
            {
              "internalType": "uint128",
              "name": "premiumRateX96",
              "type": "uint128"
            },
            {
              "internalType": "uint8",
              "name": "pendingVertexIndex",
              "type": "uint8"
            },
            {
              "internalType": "uint8",
              "name": "currentVertexIndex",
              "type": "uint8"
            },
            {
              "internalType": "uint160",
              "name": "basisIndexPriceX96",
              "type": "uint160"
            },
            {
              "components": [
                {
                  "internalType": "uint128",
                  "name": "size",
                  "type": "uint128"
                },
                {
                  "internalType": "uint128",
                  "name": "premiumRateX96",
                  "type": "uint128"
                }
              ],
              "internalType": "struct IMarketManager.PriceVertex[10]",
              "name": "priceVertices",
              "type": "tuple[10]"
            },
            {
              "internalType": "uint128[10]",
              "name": "liquidationBufferNetSizes",
              "type": "uint128[10]"
            }
          ],
          "internalType": "struct IMarketManager.PriceState",
          "name": "priceState",
          "type": "tuple"
        },
        {
          "internalType": "uint128",
          "name": "usdBalance",
          "type": "uint128"
        },
        {
          "internalType": "uint128",
          "name": "protocolFee",
          "type": "uint128"
        },
        {
          "components": [
            {
              "internalType": "uint128",
              "name": "netSize",
              "type": "uint128"
            },
            {
              "internalType": "uint128",
              "name": "liquidationBufferNetSize",
              "type": "uint128"
            },
            {
              "internalType": "uint160",
              "name": "previousSPPriceX96",
              "type": "uint160"
            },
            {
              "internalType": "Side",
              "name": "side",
              "type": "uint8"
            },
            {
              "internalType": "uint128",
              "name": "liquidity",
              "type": "uint128"
            },
            {
              "internalType": "int256",
              "name": "unrealizedPnLGrowthX64",
              "type": "int256"
            }
          ],
          "internalType": "struct IMarketLiquidityPosition.GlobalLiquidityPosition",
          "name": "globalLiquidityPosition",
          "type": "tuple"
        },
        {
          "components": [
            {
              "internalType": "uint128",
              "name": "longSize",
              "type": "uint128"
            },
            {
              "internalType": "uint128",
              "name": "shortSize",
              "type": "uint128"
            },
            {
              "internalType": "uint128",
              "name": "maxSize",
              "type": "uint128"
            },
            {
              "internalType": "uint128",
              "name": "maxSizePerPosition",
              "type": "uint128"
            },
            {
              "internalType": "int192",
              "name": "longFundingRateGrowthX96",
              "type": "int192"
            },
            {
              "internalType": "int192",
              "name": "shortFundingRateGrowthX96",
              "type": "int192"
            }
          ],
          "internalType": "struct IMarketPosition.GlobalPosition",
          "name": "globalPosition",
          "type": "tuple"
        },
        {
          "components": [
            {
              "internalType": "int192",
              "name": "longFundingRateGrowthX96",
              "type": "int192"
            },
            {
              "internalType": "int192",
              "name": "shortFundingRateGrowthX96",
              "type": "int192"
            }
          ],
          "internalType": "struct IMarketPosition.PreviousGlobalFundingRate",
          "name": "previousGlobalFundingRate",
          "type": "tuple"
        },
        {
          "components": [
            {
              "internalType": "uint64",
              "name": "lastAdjustFundingRateTime",
              "type": "uint64"
            },
            {
              "internalType": "uint16",
              "name": "sampleCount",
              "type": "uint16"
            },
            {
              "internalType": "int176",
              "name": "cumulativePremiumRateX96",
              "type": "int176"
            }
          ],
          "internalType": "struct IMarketPosition.GlobalFundingRateSample",
          "name": "globalFundingRateSample",
          "type": "tuple"
        },
        {
          "components": [
            {
              "internalType": "int256",
              "name": "liquidationFund",
              "type": "int256"
            },
            {
              "internalType": "uint256",
              "name": "liquidity",
              "type": "uint256"
            }
          ],
          "internalType": "struct IMarketManager.GlobalLiquidationFund",
          "name": "globalLiquidationFund",
          "type": "tuple"
        }
      ],
      "stateMutability": "view",
      "type": "function"
    }
  ],
  "bytecode": "0x608080604052346100165761141c908161001c8239f35b600080fdfe6080604052600436101561001257600080fd5b60003560e01c80634d23e77c14610cd15780636056527f146109255780636409aa7b1461080e578063724e78da14610790578063741bef1a1461073e5780638509aa01146105705763c19d93fb1461006957600080fd5b3461056b5760007ffffffffffffffffffffffffffffffffffffffffffffffffffffffffffffffffc36011261056b576040516100a481610d85565b60ff6000546fffffffffffffffffffffffffffffffff81168352818160801c16602084015260881c16604082015273ffffffffffffffffffffffffffffffffffffffff6001541660608201526040516100fc81610d4c565b60026000825b600a821061052d575050506080820152604051600c6000825b600a60018301106104fb5750505061013281610d4c565b60a08201526011549060405161014781610d85565b6013546fffffffffffffffffffffffffffffffff8116825260801c602082015260ff60145473ffffffffffffffffffffffffffffffffffffffff8116604084015260a01c1660608201526fffffffffffffffffffffffffffffffff60155416608082015260165460a08201526040516101bf81610d85565b6018546fffffffffffffffffffffffffffffffff8116825260801c60208201526019546fffffffffffffffffffffffffffffffff8116604083015260801c6060820152601a5460170b6080820152601b5460170b60a082015260405161022481610d69565b601c5460170b8152601d5460170b60208201526040519161024483610d30565b601e5467ffffffffffffffff8116845261ffff8160401c16602085015260501d60150b60408401526040519361027985610d69565b60205485526021546020860152604051956fffffffffffffffffffffffffffffffff815116875260ff602082015116602088015260ff604082015116604088015273ffffffffffffffffffffffffffffffffffffffff60608201511660608801526080810151608088016000905b600a82106104c75750505060a0015196600061030088015b600a821061049f576106e08960208a60408b838c60a08d818e8e6fffffffffffffffffffffffffffffffff81166104408d015260801c6104608c01526fffffffffffffffffffffffffffffffff8151166104808c01526fffffffffffffffffffffffffffffffff86820151166104a08c015273ffffffffffffffffffffffffffffffffffffffff88820151166104c08c015260ff6060820151166104e08c01526fffffffffffffffffffffffffffffffff6080820151166105008c015201516105208a01526fffffffffffffffffffffffffffffffff8151166105408a01526fffffffffffffffffffffffffffffffff84820151166105608a01526fffffffffffffffffffffffffffffffff86820151166105808a01526fffffffffffffffffffffffffffffffff6060820151166105a08a0152608081015160170b6105c08a0152015160170b6105e0880152805160170b610600880152015160170b61062086015267ffffffffffffffff81511661064086015261ffff8482015116610660860152015160150b61068084015280516106a084015201516106c0820152f35b6020806001926fffffffffffffffffffffffffffffffff8d51168152019a01910190986102ff565b602060406001926fffffffffffffffffffffffffffffffff83875182815116845201511683820152019301910190916102e7565b6001604060029285546fffffffffffffffffffffffffffffffff8116825260801c60208201520193019101909161011b565b60016020819260405161053f81610d69565b86546fffffffffffffffffffffffffffffffff8116825260801c83820152815201930191019091610102565b600080fd5b3461056b576104407ffffffffffffffffffffffffffffffffffffffffffffffffffffffffffffffffc36011261056b576fffffffffffffffffffffffffffffffff806105ba610de2565b166000546024359060ff8216820361056b5760809260443560ff8116810361056b5770ff0000000000000000000000000000000071ff00000000000000000000000000000000007fffffffffffffffffffffffffffff0000000000000000000000000000000000009260881b169460801b1692161717176000556064359173ffffffffffffffffffffffffffffffffffffffff831680930361056b57600180547fffffffffffffffffffffffff00000000000000000000000000000000000000001690931783556002918360008460845b600a83106106ef5783610304878960005b600581106106a657005b84906000805b8481106106bf575081600c01550161069c565b92906020906106d088979498610e01565b9084808760071b9316831b921b191617950192019386929591946106ac565b83604082886106fe8495610e01565b167fffffffffffffffffffffffffffffffff0000000000000000000000000000000061072c60208401610e01565b8a1b161785550192019201919061068b565b3461056b5760007ffffffffffffffffffffffffffffffffffffffffffffffffffffffffffffffffc36011261056b57602073ffffffffffffffffffffffffffffffffffffffff60245416604051908152f35b3461056b5760207ffffffffffffffffffffffffffffffffffffffffffffffffffffffffffffffffc36011261056b5760043573ffffffffffffffffffffffffffffffffffffffff811680910361056b577fffffffffffffffffffffffff00000000000000000000000000000000000000006024541617602455600080f35b3461056b5760c07ffffffffffffffffffffffffffffffffffffffffffffffffffffffffffffffffc36011261056b576fffffffffffffffffffffffffffffffff80610857610de2565b1660243590828216820361056b577fffffffffffffffffffffffffffffffff00000000000000000000000000000000809260801b161760135560443573ffffffffffffffffffffffffffffffffffffffff811680910361056b576014549060643560ff8116810361056b5774ff00000000000000000000000000000000000000007fffffffffffffffffffffff0000000000000000000000000000000000000000009160a01b169216171760145560843591821680920361056b57601554161760155560a435601655600080f35b3461056b5760207ffffffffffffffffffffffffffffffffffffffffffffffffffffffffffffffffc36011261056b5760043573ffffffffffffffffffffffffffffffffffffffff811680910361056b576000526023602052604060002060405190610180820182811067ffffffffffffffff821117610ca257604052805467ffffffffffffffff8116835263ffffffff8160401c16602084015263ffffffff8160601c16604084015267ffffffffffffffff8160801c16606084015263ffffffff8160c01c16608084015260e01c60a083015260018101546fffffffffffffffffffffffffffffffff811660c084015263ffffffff8160801c1660e084015263ffffffff8160a01c1661010084015260c01c61012083015263ffffffff600282015481811661014085015260201c166101608301526040518060a081011067ffffffffffffffff60a083011117610ca25760a0810160405263ffffffff60038301548181168352818160201c166020840152818160401c166040840152818160601c16606084015260801c16608082015260405191610ac383610d30565b60ff60048201546fffffffffffffffffffffffffffffffff8116855260801c16602084015260405190610af582610d4c565b6005016000825b600a8210610c6f578660408763ffffffff60808989858501528261016086519767ffffffffffffffff81511689528260208201511660208a0152828882015116888a015267ffffffffffffffff60608201511660608a0152828582015116858a01528260a08201511660a08a01526fffffffffffffffffffffffffffffffff60c08201511660c08a01528260e08201511660e08a015282610100820151166101008a015267ffffffffffffffff610120820151166101208a015282610140820151166101408a015201511661016087015282815116610180870152826020820151166101a08701528285820151166101c0870152826060820151166101e08701520151166102008401526fffffffffffffffffffffffffffffffff81511661022084015260ff602082015116610240840152015161026082016000905b600a8210610c47576104e084f35b6020604060019263ffffffff8387518281511684520151168382015201930191019091610c39565b600160208192604051610c8181610d69565b63ffffffff87548181168352841c1683820152815201930191019091610afc565b7f4e487b7100000000000000000000000000000000000000000000000000000000600052604160045260246000fd5b3461056b5760207ffffffffffffffffffffffffffffffffffffffffffffffffffffffffffffffffc36011261056b5773ffffffffffffffffffffffffffffffffffffffff600435818116810361056b57610d2e9160245416610e7a565b005b6060810190811067ffffffffffffffff821117610ca257604052565b610140810190811067ffffffffffffffff821117610ca257604052565b6040810190811067ffffffffffffffff821117610ca257604052565b60c0810190811067ffffffffffffffff821117610ca257604052565b90601f7fffffffffffffffffffffffffffffffffffffffffffffffffffffffffffffffe0910116810190811067ffffffffffffffff821117610ca257604052565b6004356fffffffffffffffffffffffffffffffff8116810361056b5790565b356fffffffffffffffffffffffffffffffff8116810361056b5790565b7f80000000000000000000000000000000000000000000000000000000000000008114610e4b5760000390565b7f4e487b7100000000000000000000000000000000000000000000000000000000600052601160045260246000fd5b906013546fffffffffffffffffffffffffffffffff8160801c9116019081156112ba57601454916001928360ff8260a01c161494856000146112b1578460ff60025b160361122d57602073ffffffffffffffffffffffffffffffffffffffff916024604051809481937f9fae7541000000000000000000000000000000000000000000000000000000008352818a166004840152165afa908115611221576000916111f2575b50935b73ffffffffffffffffffffffffffffffffffffffff809516928583169660008886039812858912811690868a1390151617610e4b57156111e2576000815b8818121596600081126111d357915b60155460201b73ffffffffffffffffffffffffffffffff00000000169288156111cc57815b600281101561119d576111955781935b610fb08185846112eb565b936004958681101561116757841684149283611124575b5050506110e7575b507f7fffffffffffffffffffffffffffffffffffffffffffffffffffffffffffffff81116110b75760165496156110a857955b6000878201978812911290801582169115161761107a575091817e91c27ee24e54e570bee952b9f51bcde7e09dd42f1fad30f5ae41d5bbdb740994927fffffffffffffffffffffffff0000000000000000000000000000000000000000604095886016551617601455835195865260208601521692a2565b6011907f4e487b71000000000000000000000000000000000000000000000000000000006000525260246000fd5b6110b190610e1e565b95611002565b60249250604051917f24775e06000000000000000000000000000000000000000000000000000000008352820152fd5b81018091116110f65738610fcf565b6011827f4e487b71000000000000000000000000000000000000000000000000000000006000525260246000fd5b90918093501561113957091515388080610fc7565b6012867f4e487b71000000000000000000000000000000000000000000000000000000006000525260246000fd5b6021877f4e487b71000000000000000000000000000000000000000000000000000000006000525260246000fd5b600093610fa5565b7f4e487b7100000000000000000000000000000000000000000000000000000000600052602160045260246000fd5b6000610f95565b6111dc90610e1e565b91610f70565b60006111ed82610e1e565b610f61565b611214915060203d60201161121a575b61120c8183610da1565b8101906112bf565b38610f20565b503d611202565b6040513d6000823e3d90fd5b602073ffffffffffffffffffffffffffffffffffffffff916024604051809481937f77c2fdc2000000000000000000000000000000000000000000000000000000008352818a166004840152165afa90811561122157600091611292575b5093610f23565b6112ab915060203d60201161121a5761120c8183610da1565b3861128b565b8460ff81610ebc565b505050565b9081602091031261056b575173ffffffffffffffffffffffffffffffffffffffff8116810361056b5790565b9091828202917fffffffffffffffffffffffffffffffffffffffffffffffffffffffffffffffff848209938380861095039480860395146113a9578483111561137f5782910981600003821680920460028082600302188083028203028083028203028083028203028083028203028083028203028092029003029360018380600003040190848311900302920304170290565b60046040517f227bc153000000000000000000000000000000000000000000000000000000008152fd5b5050809250156113b7570490565b7f4e487b7100000000000000000000000000000000000000000000000000000000600052601260045260246000fdfea2646970667358221220b67049419f0fe680bf49bd89d20ef9666b0b42a6fccb3febbca46fd7170c49de64736f6c63430008170033",
  "linkReferences": {},
  "deployedLinkReferences": {}
}