{
  "_format": "hh-sol-artifact-1",
  "contractName": "MockMarketManager",
  "sourceName": "contracts/test/MockMarketManager.sol",
  "abi": [
    {
      "inputs": [
        {
          "internalType": "contract IMarketDescriptor",
          "name": "",
          "type": "address"
        }
      ],
      "name": "globalPositions",
      "outputs": [
        {
          "components": [
            {
              "internalType": "uint128",
              "name": "longSize",
              "type": "uint128"
            },
            {
              "internalType": "uint128",
              "name": "shortSize",
              "type": "uint128"
            },
            {
              "internalType": "uint128",
              "name": "maxSize",
              "type": "uint128"
            },
            {
              "internalType": "uint128",
              "name": "maxSizePerPosition",
              "type": "uint128"
            },
            {
              "internalType": "int192",
              "name": "longFundingRateGrowthX96",
              "type": "int192"
            },
            {
              "internalType": "int192",
              "name": "shortFundingRateGrowthX96",
              "type": "int192"
            }
          ],
          "internalType": "struct IMarketPosition.GlobalPosition",
          "name": "",
          "type": "tuple"
        }
      ],
      "stateMutability": "view",
      "type": "function"
    },
    {
      "inputs": [
        {
          "internalType": "contract IMarketDescriptor",
          "name": "_market",
          "type": "address"
        },
        {
          "internalType": "address",
          "name": "_account",
          "type": "address"
        },
        {
          "internalType": "address",
          "name": "_feeReceiver",
          "type": "address"
        }
      ],
      "name": "liquidateLiquidityPosition",
      "outputs": [],
      "stateMutability": "nonpayable",
      "type": "function"
    },
    {
      "inputs": [
        {
          "internalType": "contract IMarketDescriptor",
          "name": "_market",
          "type": "address"
        },
        {
          "internalType": "address",
          "name": "_account",
          "type": "address"
        },
        {
          "internalType": "Side",
          "name": "_side",
          "type": "uint8"
        },
        {
          "internalType": "address",
          "name": "_feeReceiver",
          "type": "address"
        }
      ],
      "name": "liquidatePosition",
      "outputs": [],
      "stateMutability": "nonpayable",
      "type": "function"
    },
    {
      "inputs": [
        {
          "internalType": "contract IMarketDescriptor",
          "name": "market",
          "type": "address"
        },
        {
          "internalType": "address",
          "name": "account",
          "type": "address"
        }
      ],
      "name": "liquidityPositions",
      "outputs": [
        {
          "internalType": "uint128",
          "name": "margin",
          "type": "uint128"
        },
        {
          "internalType": "uint128",
          "name": "liquidity",
          "type": "uint128"
        },
        {
          "internalType": "int256",
          "name": "entryUnrealizedPnLGrowthX64",
          "type": "int256"
        }
      ],
      "stateMutability": "view",
      "type": "function"
    },
    {
      "inputs": [
        {
          "internalType": "contract IMarketDescriptor",
          "name": "",
          "type": "address"
        }
      ],
      "name": "marketBaseConfigs",
      "outputs": [
        {
          "components": [
            {
              "internalType": "uint64",
              "name": "minMarginPerLiquidityPosition",
              "type": "uint64"
            },
            {
              "internalType": "uint32",
              "name": "maxLeveragePerLiquidityPosition",
              "type": "uint32"
            },
            {
              "internalType": "uint32",
              "name": "liquidationFeeRatePerLiquidityPosition",
              "type": "uint32"
            },
            {
              "internalType": "uint64",
              "name": "minMarginPerPosition",
              "type": "uint64"
            },
            {
              "internalType": "uint32",
              "name": "maxLeveragePerPosition",
              "type": "uint32"
            },
            {
              "internalType": "uint32",
              "name": "liquidationFeeRatePerPosition",
              "type": "uint32"
            },
            {
              "internalType": "uint128",
              "name": "maxPositionLiquidity",
              "type": "uint128"
            },
            {
              "internalType": "uint32",
              "name": "maxPositionValueRate",
              "type": "uint32"
            },
            {
              "internalType": "uint32",
              "name": "maxSizeRatePerPosition",
              "type": "uint32"
            },
            {
              "internalType": "uint64",
              "name": "liquidationExecutionFee",
              "type": "uint64"
            },
            {
              "internalType": "uint32",
              "name": "interestRate",
              "type": "uint32"
            },
            {
              "internalType": "uint32",
              "name": "maxFundingRate",
              "type": "uint32"
            }
          ],
          "internalType": "struct IConfigurable.MarketBaseConfig",
          "name": "",
          "type": "tuple"
        }
      ],
      "stateMutability": "view",
      "type": "function"
    },
    {
      "inputs": [
        {
          "internalType": "contract IMarketDescriptor",
          "name": "",
          "type": "address"
        }
      ],
      "name": "marketFeeRateConfigs",
      "outputs": [
        {
          "components": [
            {
              "internalType": "uint32",
              "name": "tradingFeeRate",
              "type": "uint32"
            },
            {
              "internalType": "uint32",
              "name": "protocolFeeRate",
              "type": "uint32"
            },
            {
              "internalType": "uint32",
              "name": "referralReturnFeeRate",
              "type": "uint32"
            },
            {
              "internalType": "uint32",
              "name": "referralParentReturnFeeRate",
              "type": "uint32"
            },
            {
              "internalType": "uint32",
              "name": "referralDiscountRate",
              "type": "uint32"
            }
          ],
          "internalType": "struct IConfigurable.MarketFeeRateConfig",
          "name": "",
          "type": "tuple"
        }
      ],
      "stateMutability": "view",
      "type": "function"
    },
    {
      "inputs": [
        {
          "internalType": "contract IERC20",
          "name": "",
          "type": "address"
        },
        {
          "internalType": "Side",
          "name": "_side",
          "type": "uint8"
        }
      ],
      "name": "marketPriceX96s",
      "outputs": [
        {
          "internalType": "uint160",
          "name": "_marketPriceX96",
          "type": "uint160"
        }
      ],
      "stateMutability": "view",
      "type": "function"
    },
    {
      "inputs": [
        {
          "internalType": "contract IMarketDescriptor",
          "name": "market",
          "type": "address"
        },
        {
          "internalType": "address",
          "name": "account",
          "type": "address"
        },
        {
          "internalType": "Side",
          "name": "side",
          "type": "uint8"
        }
      ],
      "name": "positions",
      "outputs": [
        {
          "internalType": "uint128",
          "name": "margin",
          "type": "uint128"
        },
        {
          "internalType": "uint128",
          "name": "size",
          "type": "uint128"
        },
        {
          "internalType": "uint160",
          "name": "entryPriceX96",
          "type": "uint160"
        },
        {
          "internalType": "int192",
          "name": "entryFundingRateGrowthX96",
          "type": "int192"
        }
      ],
      "stateMutability": "view",
      "type": "function"
    },
    {
      "inputs": [],
      "name": "priceFeed",
      "outputs": [
        {
          "internalType": "contract IPriceFeed",
          "name": "",
          "type": "address"
        }
      ],
      "stateMutability": "view",
      "type": "function"
    },
    {
      "inputs": [
        {
          "internalType": "contract IMarketDescriptor",
          "name": "",
          "type": "address"
        },
        {
          "components": [
            {
              "internalType": "uint128",
              "name": "longSize",
              "type": "uint128"
            },
            {
              "internalType": "uint128",
              "name": "shortSize",
              "type": "uint128"
            },
            {
              "internalType": "uint128",
              "name": "maxSize",
              "type": "uint128"
            },
            {
              "internalType": "uint128",
              "name": "maxSizePerPosition",
              "type": "uint128"
            },
            {
              "internalType": "int192",
              "name": "longFundingRateGrowthX96",
              "type": "int192"
            },
            {
              "internalType": "int192",
              "name": "shortFundingRateGrowthX96",
              "type": "int192"
            }
          ],
          "internalType": "struct IMarketPosition.GlobalPosition",
          "name": "_globalPosition",
          "type": "tuple"
        }
      ],
      "name": "setGlobalPosition",
      "outputs": [],
      "stateMutability": "nonpayable",
      "type": "function"
    },
    {
      "inputs": [
        {
          "internalType": "contract IMarketDescriptor",
          "name": "market",
          "type": "address"
        },
        {
          "internalType": "address",
          "name": "account",
          "type": "address"
        },
        {
          "components": [
            {
              "internalType": "uint128",
              "name": "margin",
              "type": "uint128"
            },
            {
              "internalType": "uint128",
              "name": "liquidity",
              "type": "uint128"
            },
            {
              "internalType": "int256",
              "name": "entryUnrealizedPnLGrowthX64",
              "type": "int256"
            }
          ],
          "internalType": "struct IMarketLiquidityPosition.LiquidityPosition",
          "name": "_liquidityPosition",
          "type": "tuple"
        }
      ],
      "name": "setLiquidityPosition",
      "outputs": [],
      "stateMutability": "nonpayable",
      "type": "function"
    },
    {
      "inputs": [
        {
          "internalType": "contract IMarketDescriptor",
          "name": "",
          "type": "address"
        },
        {
          "components": [
            {
              "internalType": "uint64",
              "name": "minMarginPerLiquidityPosition",
              "type": "uint64"
            },
            {
              "internalType": "uint32",
              "name": "maxLeveragePerLiquidityPosition",
              "type": "uint32"
            },
            {
              "internalType": "uint32",
              "name": "liquidationFeeRatePerLiquidityPosition",
              "type": "uint32"
            },
            {
              "internalType": "uint64",
              "name": "minMarginPerPosition",
              "type": "uint64"
            },
            {
              "internalType": "uint32",
              "name": "maxLeveragePerPosition",
              "type": "uint32"
            },
            {
              "internalType": "uint32",
              "name": "liquidationFeeRatePerPosition",
              "type": "uint32"
            },
            {
              "internalType": "uint128",
              "name": "maxPositionLiquidity",
              "type": "uint128"
            },
            {
              "internalType": "uint32",
              "name": "maxPositionValueRate",
              "type": "uint32"
            },
            {
              "internalType": "uint32",
              "name": "maxSizeRatePerPosition",
              "type": "uint32"
            },
            {
              "internalType": "uint64",
              "name": "liquidationExecutionFee",
              "type": "uint64"
            },
            {
              "internalType": "uint32",
              "name": "interestRate",
              "type": "uint32"
            },
            {
              "internalType": "uint32",
              "name": "maxFundingRate",
              "type": "uint32"
            }
          ],
          "internalType": "struct IConfigurable.MarketBaseConfig",
          "name": "_marketBaseConfig",
          "type": "tuple"
        }
      ],
      "name": "setMarketBaseConfig",
      "outputs": [],
      "stateMutability": "nonpayable",
      "type": "function"
    },
    {
      "inputs": [
        {
          "internalType": "contract IMarketDescriptor",
          "name": "",
          "type": "address"
        }
      ],
      "name": "setMarketFeeRateConfig",
      "outputs": [],
      "stateMutability": "nonpayable",
      "type": "function"
    },
    {
      "inputs": [
        {
          "internalType": "uint160",
          "name": "_longMarketPriceX96",
          "type": "uint160"
        },
        {
          "internalType": "uint160",
          "name": "_shortMarketPriceX96",
          "type": "uint160"
        }
      ],
      "name": "setMarketPriceX96",
      "outputs": [],
      "stateMutability": "nonpayable",
      "type": "function"
    },
    {
      "inputs": [
        {
          "internalType": "contract IMarketDescriptor",
          "name": "_market",
          "type": "address"
        },
        {
          "internalType": "address",
          "name": "_account",
          "type": "address"
        },
        {
          "internalType": "Side",
          "name": "_side",
          "type": "uint8"
        },
        {
          "components": [
            {
              "internalType": "uint128",
              "name": "margin",
              "type": "uint128"
            },
            {
              "internalType": "uint128",
              "name": "size",
              "type": "uint128"
            },
            {
              "internalType": "uint160",
              "name": "entryPriceX96",
              "type": "uint160"
            },
            {
              "internalType": "int192",
              "name": "entryFundingRateGrowthX96",
              "type": "int192"
            }
          ],
          "internalType": "struct IMarketPosition.Position",
          "name": "_position",
          "type": "tuple"
        }
      ],
      "name": "setPosition",
      "outputs": [],
      "stateMutability": "nonpayable",
      "type": "function"
    },
    {
      "inputs": [
        {
          "internalType": "contract IPriceFeed",
          "name": "_priceFeed",
          "type": "address"
        }
      ],
      "name": "setPriceFeed",
      "outputs": [],
      "stateMutability": "nonpayable",
      "type": "function"
    }
  ],
  "bytecode": "0x60808060405234610016576111d7908161001c8239f35b600080fdfe6080806040526004908136101561001557600080fd5b600091823560e01c9182630d96e2be14610fac575081631137d33d14610eb9578163232bfdc414610df6578163379bc84814610d895781633bd9a15d14610d25578163724e78da14610ca9578163741bef1a14610c575781638a4aa56e14610b8b5781638f233e1714610b095781639448cf48146109085781639abf9776146107ab578163a92f0bf51461071d578163b9e89222146106b0578163d1655e4b1461055557508063d5094d40146102c85763de897739146100d457600080fd5b346102c55760207ffffffffffffffffffffffffffffffffffffffffffffffffffffffffffffffffc3601126102c55761010b611049565b50610160610117611113565b8281528260208201528260408201528260608201528260808201528260a08201528260c08201528260e08201528261010082015282610120820152826101408201520152610180610166611113565b63ffffffff6101606009549267ffffffffffffffff84168152828460401c166020820152828460601c16604082015267ffffffffffffffff8460801c166060820152828460c01c1660808201528360e01c60a0820152600a546fffffffffffffffffffffffffffffffff811660c0830152838160801c1660e0830152838160a01c1661010083015260c01c61012082015282600b5481811661014084015260201c168282015267ffffffffffffffff6040519416845282602082015116602085015282604082015116604085015267ffffffffffffffff60608201511660608501528260808201511660808501528260a08201511660a08501526fffffffffffffffffffffffffffffffff60c08201511660c08501528260e08201511660e0850152826101008201511661010085015267ffffffffffffffff610120820151166101208501528261014082015116610140850152015116610160820152f35b80fd5b50346102c5576101a07ffffffffffffffffffffffffffffffffffffffffffffffffffffffffffffffffc3601126102c557610301611049565b506101807fffffffffffffffffffffffffffffffffffffffffffffffffffffffffffffffdc3601126102c557610335611113565b5060243567ffffffffffffffff908181168091036105515763ffffffff91604435838116810361054d57606435918483168303610549576084359181831683036105455760a4359386851685036105415760c435878116810361053d5760e435936fffffffffffffffffffffffffffffffff851680950361053957610104359589871687036105355761012435978a89168903610531576101443592831683036105315761016435998b8b16809b0361052d57610184359b8c168c0361052d5773ffffffff000000000000000000000000000000009677ffffffff0000000000000000000000000000000000000000966fffffffff0000000000000000000000007bffffffff000000000000000000000000000000000000000000000000936bffffffff000000000000000077ffffffffffffffff000000000000000000000000000000007fffffffff000000000000000000000000000000000000000000000000000000007fffffffffffffffff0000000000000000000000000000000000000000000000009b60e01b169860801b169460401b16179160601b1617179160c01b16171760095560c01b169460a01b169260801b16171717600a557fffffffffffffffffffffffffffffffffffffffffffffffff000000000000000067ffffffff00000000600b549360201b1692161717600b5580f35b8c80fd5b8b80fd5b8a80fd5b8980fd5b8880fd5b8780fd5b8680fd5b8580fd5b8480fd5b8280fd5b82346102c55760a07ffffffffffffffffffffffffffffffffffffffffffffffffffffffffffffffffc3601126102c55761058d611049565b610595611071565b9060607fffffffffffffffffffffffffffffffffffffffffffffffffffffffffffffffbc360112610551576040516060810181811067ffffffffffffffff821117610684576001929161067d916040526105ed611172565b81526105f7611134565b6020828101918252608435604080850191825273ffffffffffffffffffffffffffffffffffffffff9687168a5260038352808a209690981689529490529486209051945160801b7fffffffffffffffffffffffffffffffff00000000000000000000000000000000166fffffffffffffffffffffffffffffffff95909516949094178455565b5191015580f35b6024856041887f4e487b7100000000000000000000000000000000000000000000000000000000835252fd5b82346102c55760807ffffffffffffffffffffffffffffffffffffffffffffffffffffffffffffffffc3601126102c5576106e8611049565b506106f1611071565b506106fa611094565b5060643573ffffffffffffffffffffffffffffffffffffffff8116036102c55780f35b82346102c55760407ffffffffffffffffffffffffffffffffffffffffffffffffffffffffffffffffc3601126102c557610755611049565b61075d611071565b73ffffffffffffffffffffffffffffffffffffffff90817fffffffffffffffffffffffff00000000000000000000000000000000000000009316838554161784551690600154161760015580f35b82346102c55760e07ffffffffffffffffffffffffffffffffffffffffffffffffffffffffffffffffc3601126102c5576107e3611049565b5060c07fffffffffffffffffffffffffffffffffffffffffffffffffffffffffffffffdc3601126102c5576108166110a4565b6024356fffffffffffffffffffffffffffffffff8082169182810361054d57835261083f611172565b9081602085015261084e611134565b9182604086015261085d611153565b80606087015260a435958660170b87036105415760808791015261087f611191565b947fffffffffffffffffffffffffffffffff00000000000000000000000000000000809360801b1617600c5560801b16911617600d557fffffffffffffffff00000000000000000000000000000000000000000000000080600e541677ffffffffffffffffffffffffffffffffffffffffffffffff93841617600e55600f5416911617600f5580f35b905034610b055760e07ffffffffffffffffffffffffffffffffffffffffffffffffffffffffffffffffc360112610b0557610941611049565b9061094a611071565b90610953611094565b60807fffffffffffffffffffffffffffffffffffffffffffffffffffffffffffffff9c36011261054d57604051906080820182811067ffffffffffffffff821117610ad9576040526109a3611134565b82526109ad611153565b926020830193845260a4359273ffffffffffffffffffffffffffffffffffffffff92838516850361053d57600296610a639360408401968752856109ef611191565b606086019081529a168b5260209081526040808c209287168c52918152818b2060ff939093168b529190915288209051945160801b7fffffffffffffffffffffffffffffffff00000000000000000000000000000000166fffffffffffffffffffffffffffffffff95909516949094178455565b600183019151167fffffffffffffffffffffffff00000000000000000000000000000000000000008254161790550190517fffffffffffffffff0000000000000000000000000000000000000000000000008254169077ffffffffffffffffffffffffffffffffffffffffffffffff1617905580f35b6024876041867f4e487b7100000000000000000000000000000000000000000000000000000000835252fd5b5080fd5b905034610b055760407ffffffffffffffffffffffffffffffffffffffffffffffffffffffffffffffffc360112610b05573573ffffffffffffffffffffffffffffffffffffffff9081811603610b055760243560ff8116809103610551576020928291600103610b80575416905b60405191168152f35b506001541690610b77565b82346102c55760207ffffffffffffffffffffffffffffffffffffffffffffffffffffffffffffffffc3601126102c557610bc3611049565b506080610bce6110f3565b828152826020820152826040820152826060820152015260a0610bef6110f3565b60085463ffffffff9081808216938481528160208201818560201c168152816040840191818760401c1683528160806060870196828a60601c168852019760801c16875260405198895251166020880152511660408601525116606084015251166080820152f35b82346102c557807ffffffffffffffffffffffffffffffffffffffffffffffffffffffffffffffffc3601126102c557602073ffffffffffffffffffffffffffffffffffffffff60025416604051908152f35b905034610b055760207ffffffffffffffffffffffffffffffffffffffffffffffffffffffffffffffffc360112610b05573573ffffffffffffffffffffffffffffffffffffffff8116809103610b05577fffffffffffffffffffffffff0000000000000000000000000000000000000000600254161760025580f35b82346102c55760607ffffffffffffffffffffffffffffffffffffffffffffffffffffffffffffffffc3601126102c557610d5d611049565b50610d66611071565b5060443573ffffffffffffffffffffffffffffffffffffffff8116036102c55780f35b82346102c55760207ffffffffffffffffffffffffffffffffffffffffffffffffffffffffffffffffc3601126102c557610dc1611049565b50610dca6110f3565b507fffffffffffffffffffffffff00000000000000000000000000000000000000006008541660085580f35b905034610b055760607ffffffffffffffffffffffffffffffffffffffffffffffffffffffffffffffffc360112610b05576040608092610e34611049565b92610e3d611071565b610e45611094565b9173ffffffffffffffffffffffffffffffffffffffff8096168452602052848484209116835260205260ff8383209116825260205220600281549260018301541691015460170b90604051926fffffffffffffffffffffffffffffffff81168452841c602084015260408301526060820152f35b82346102c55760207ffffffffffffffffffffffffffffffffffffffffffffffffffffffffffffffffc3601126102c557610ef1611049565b5060a0610efc6110a4565b828152826020820152826040820152826060820152826080820152015260c0610f236110a4565b600c54906fffffffffffffffffffffffffffffffff9182811692838352602083019160801c8252600d5481604085018183168152606086019260801c835281600e5495608088019660170b875260a0600f5460170b98019788526040519889525116602088015251166040860152511660608401525160170b60808301525160170b60a0820152f35b839034610b055760407ffffffffffffffffffffffffffffffffffffffffffffffffffffffffffffffffc360112610b05576040606092610fea611049565b610ff2611071565b9073ffffffffffffffffffffffffffffffffffffffff80911683526003602052838320911682526020522060018154910154906fffffffffffffffffffffffffffffffff8116835260801c60208301526040820152f35b6004359073ffffffffffffffffffffffffffffffffffffffff8216820361106c57565b600080fd5b6024359073ffffffffffffffffffffffffffffffffffffffff8216820361106c57565b6044359060ff8216820361106c57565b6040519060c0820182811067ffffffffffffffff8211176110c457604052565b7f4e487b7100000000000000000000000000000000000000000000000000000000600052604160045260246000fd5b6040519060a0820182811067ffffffffffffffff8211176110c457604052565b60405190610180820182811067ffffffffffffffff8211176110c457604052565b606435906fffffffffffffffffffffffffffffffff8216820361106c57565b608435906fffffffffffffffffffffffffffffffff8216820361106c57565b604435906fffffffffffffffffffffffffffffffff8216820361106c57565b60c435908160170b820361106c5756fea2646970667358221220a5a2b5e62281f19da9a8dfd008821ee52104aec0823b10eda3f889603e2dacb964736f6c63430008170033",
  "linkReferences": {},
  "deployedLinkReferences": {}
}