{
  "_format": "hh-sol-artifact-1",
  "contractName": "PriceUtilHarness",
  "sourceName": "contracts/test/PriceUtilHarness.sol",
  "abi": [
    {
      "inputs": [
        {
          "internalType": "int256",
          "name": "tradePriceX96TimesSizeTotal",
          "type": "int256"
        }
      ],
      "name": "InvalidTradePrice",
      "type": "error"
    },
    {
      "inputs": [],
      "name": "MathOverflowedMulDiv",
      "type": "error"
    },
    {
      "inputs": [],
      "name": "MaxPremiumRateExceeded",
      "type": "error"
    },
    {
      "inputs": [
        {
          "internalType": "uint8",
          "name": "bits",
          "type": "uint8"
        },
        {
          "internalType": "int256",
          "name": "value",
          "type": "int256"
        }
      ],
      "name": "SafeCastOverflowedIntDowncast",
      "type": "error"
    },
    {
      "inputs": [
        {
          "internalType": "int256",
          "name": "value",
          "type": "int256"
        }
      ],
      "name": "SafeCastOverflowedIntToUint",
      "type": "error"
    },
    {
      "inputs": [
        {
          "internalType": "uint8",
          "name": "bits",
          "type": "uint8"
        },
        {
          "internalType": "uint256",
          "name": "value",
          "type": "uint256"
        }
      ],
      "name": "SafeCastOverflowedUintDowncast",
      "type": "error"
    },
    {
      "inputs": [
        {
          "internalType": "uint256",
          "name": "value",
          "type": "uint256"
        }
      ],
      "name": "SafeCastOverflowedUintToInt",
      "type": "error"
    },
    {
      "inputs": [],
      "name": "ZeroSizeDelta",
      "type": "error"
    },
    {
      "anonymous": false,
      "inputs": [
        {
          "indexed": true,
          "internalType": "contract IMarketDescriptor",
          "name": "market",
          "type": "address"
        },
        {
          "indexed": false,
          "internalType": "uint160",
          "name": "basisIndexPriceAfterX96",
          "type": "uint160"
        }
      ],
      "name": "BasisIndexPriceChanged",
      "type": "event"
    },
    {
      "anonymous": false,
      "inputs": [
        {
          "indexed": false,
          "internalType": "contract IMarketDescriptor",
          "name": "market",
          "type": "address"
        },
        {
          "indexed": false,
          "internalType": "Side",
          "name": "sideAfter",
          "type": "uint8"
        },
        {
          "indexed": false,
          "internalType": "uint128",
          "name": "netSizeAfter",
          "type": "uint128"
        },
        {
          "indexed": false,
          "internalType": "uint128",
          "name": "liquidationBufferNetSizeAfter",
          "type": "uint128"
        }
      ],
      "name": "GlobalLiquidityPositionNetPositionChanged",
      "type": "event"
    },
    {
      "anonymous": false,
      "inputs": [
        {
          "indexed": true,
          "internalType": "contract IMarketDescriptor",
          "name": "market",
          "type": "address"
        },
        {
          "indexed": false,
          "internalType": "uint8",
          "name": "index",
          "type": "uint8"
        },
        {
          "indexed": false,
          "internalType": "uint128",
          "name": "netSizeAfter",
          "type": "uint128"
        }
      ],
      "name": "LiquidationBufferNetSizeChanged",
      "type": "event"
    },
    {
      "anonymous": false,
      "inputs": [
        {
          "indexed": true,
          "internalType": "contract IMarketDescriptor",
          "name": "market",
          "type": "address"
        },
        {
          "indexed": false,
          "internalType": "uint128",
          "name": "premiumRateAfterX96",
          "type": "uint128"
        }
      ],
      "name": "PremiumRateChanged",
      "type": "event"
    },
    {
      "inputs": [
        {
          "components": [
            {
              "internalType": "uint128",
              "name": "netSize",
              "type": "uint128"
            },
            {
              "internalType": "uint128",
              "name": "liquidationBufferNetSize",
              "type": "uint128"
            },
            {
              "internalType": "uint160",
              "name": "previousSPPriceX96",
              "type": "uint160"
            },
            {
              "internalType": "Side",
              "name": "side",
              "type": "uint8"
            },
            {
              "internalType": "uint128",
              "name": "liquidity",
              "type": "uint128"
            },
            {
              "internalType": "int256",
              "name": "unrealizedPnLGrowthX64",
              "type": "int256"
            }
          ],
          "internalType": "struct IMarketLiquidityPosition.GlobalLiquidityPosition",
          "name": "_globalPosition",
          "type": "tuple"
        },
        {
          "components": [
            {
              "internalType": "uint128",
              "name": "premiumRateX96",
              "type": "uint128"
            },
            {
              "internalType": "uint8",
              "name": "pendingVertexIndex",
              "type": "uint8"
            },
            {
              "internalType": "uint8",
              "name": "currentVertexIndex",
              "type": "uint8"
            },
            {
              "internalType": "uint160",
              "name": "basisIndexPriceX96",
              "type": "uint160"
            },
            {
              "components": [
                {
                  "internalType": "uint128",
                  "name": "size",
                  "type": "uint128"
                },
                {
                  "internalType": "uint128",
                  "name": "premiumRateX96",
                  "type": "uint128"
                }
              ],
              "internalType": "struct IMarketManager.PriceVertex[10]",
              "name": "priceVertices",
              "type": "tuple[10]"
            },
            {
              "internalType": "uint128[10]",
              "name": "liquidationBufferNetSizes",
              "type": "uint128[10]"
            }
          ],
          "internalType": "struct IMarketManager.PriceState",
          "name": "_priceState",
          "type": "tuple"
        },
        {
          "components": [
            {
              "internalType": "contract IMarketDescriptor",
              "name": "market",
              "type": "address"
            },
            {
              "internalType": "Side",
              "name": "side",
              "type": "uint8"
            },
            {
              "internalType": "uint128",
              "name": "sizeDelta",
              "type": "uint128"
            },
            {
              "internalType": "uint160",
              "name": "indexPriceX96",
              "type": "uint160"
            },
            {
              "internalType": "uint8",
              "name": "liquidationVertexIndex",
              "type": "uint8"
            },
            {
              "internalType": "bool",
              "name": "liquidation",
              "type": "bool"
            }
          ],
          "internalType": "struct PriceUtil.UpdatePriceStateParameter",
          "name": "_parameter",
          "type": "tuple"
        }
      ],
      "name": "updatePriceState",
      "outputs": [
        {
          "internalType": "uint160",
          "name": "tradePriceX96",
          "type": "uint160"
        },
        {
          "components": [
            {
              "internalType": "uint128",
              "name": "premiumRateX96",
              "type": "uint128"
            },
            {
              "internalType": "uint8",
              "name": "pendingVertexIndex",
              "type": "uint8"
            },
            {
              "internalType": "uint8",
              "name": "currentVertexIndex",
              "type": "uint8"
            },
            {
              "internalType": "uint160",
              "name": "basisIndexPriceX96",
              "type": "uint160"
            },
            {
              "components": [
                {
                  "internalType": "uint128",
                  "name": "size",
                  "type": "uint128"
                },
                {
                  "internalType": "uint128",
                  "name": "premiumRateX96",
                  "type": "uint128"
                }
              ],
              "internalType": "struct IMarketManager.PriceVertex[10]",
              "name": "priceVertices",
              "type": "tuple[10]"
            },
            {
              "internalType": "uint128[10]",
              "name": "liquidationBufferNetSizes",
              "type": "uint128[10]"
            }
          ],
          "internalType": "struct IMarketManager.PriceState",
          "name": "updatedPriceState",
          "type": "tuple"
        },
        {
          "components": [
            {
              "internalType": "uint128",
              "name": "netSize",
              "type": "uint128"
            },
            {
              "internalType": "uint128",
              "name": "liquidationBufferNetSize",
              "type": "uint128"
            },
            {
              "internalType": "uint160",
              "name": "previousSPPriceX96",
              "type": "uint160"
            },
            {
              "internalType": "Side",
              "name": "side",
              "type": "uint8"
            },
            {
              "internalType": "uint128",
              "name": "liquidity",
              "type": "uint128"
            },
            {
              "internalType": "int256",
              "name": "unrealizedPnLGrowthX64",
              "type": "int256"
            }
          ],
          "internalType": "struct IMarketLiquidityPosition.GlobalLiquidityPosition",
          "name": "updatedGlobalPosition",
          "type": "tuple"
        }
      ],
      "stateMutability": "nonpayable",
      "type": "function"
    }
  ],
  "bytecode": "0x6080806040523461001657612b19908161001c8239f35b600080fdfe610140604052600436101561001357600080fd5b60006080526080513560e01c63d83e6f371461002e57600080fd5b346119cb577ffffffffffffffffffffffffffffffffffffffffffffffffffffffffffffffffc36016105c081126119cb5760c0136119cb57610071610140612007565b6004356fffffffffffffffffffffffffffffffff811681036119cb57610140526024356fffffffffffffffffffffffffffffffff811681036119cb576101605260443573ffffffffffffffffffffffffffffffffffffffff811681036119cb576101805260643560ff811681036119cb576101a0526084356fffffffffffffffffffffffffffffffff811681036119cb576101c05260a4356101e052610440367fffffffffffffffffffffffffffffffffffffffffffffffffffffffffffffff3c01126119cb5760405161014481612007565b60c4356fffffffffffffffffffffffffffffffff811681036119cb57815260ff60e4351660e435036119cb5760e435602082015260ff610104351661010435036119cb576101043560408201526101243573ffffffffffffffffffffffffffffffffffffffff811681036119cb5760608201523661016312156119cb576040516101cd8161205c565b80366103c4116119cb57610144905b6103c48210611fc85750506080820152366103e312156119cb576040516102028161205c565b8036610504116119cb576103c4905b6105048210611fb057505060a082015260c07ffffffffffffffffffffffffffffffffffffffffffffffffffffffffffffffafc3601126119cb5760405160e05261025c60e051612007565b73ffffffffffffffffffffffffffffffffffffffff610504351661050435036119cb576105043560e0515260ff610524351661052435036119cb5761052435602060e05101526fffffffffffffffffffffffffffffffff610544351661054435036119cb5761054435604060e051015273ffffffffffffffffffffffffffffffffffffffff610564351661056435036119cb5761056435606060e051015260ff610584351661058435036119cb5761058435608060e05101526105a43515156105a435036119cb576105a43560a060e051015260405161033b81612007565b60805181526080516020820152608051604082015260805160608201526040516103648161205c565b6080515b6101408110611f8b5750608082015260a0604051916103868361205c565b610140368437015260405161039a81612007565b6080518152608051602082015260805160408201526080516060820152608051608082015260a060805191015261041d6fffffffffffffffffffffffffffffffff61014051166fffffffffffffffffffffffffffffffff167fffffffffffffffffffffffffffffffff000000000000000000000000000000006011541617601155565b61047b6fffffffffffffffffffffffffffffffff60206101400151166fffffffffffffffffffffffffffffffff7fffffffffffffffffffffffffffffffff000000000000000000000000000000006011549260801b16911617601155565b73ffffffffffffffffffffffffffffffffffffffff60406101400151167fffffffffffffffffffffffff0000000000000000000000000000000000000000601254161760125561051560ff60606101400151167fffffffffffffffffffffff00ffffffffffffffffffffffffffffffffffffffff74ff00000000000000000000000000000000000000006012549260a01b16911617601255565b6fffffffffffffffffffffffffffffffff60806101400151167fffffffffffffffffffffffffffffffff00000000000000000000000000000000601354161760135560a061014001516014556fffffffffffffffffffffffffffffffff8151167fffffffffffffffffffffffffffffffff00000000000000000000000000000000608051541617608051556105ee60ff6020830151167fffffffffffffffffffffffffffffff00ffffffffffffffffffffffffffffffff70ff000000000000000000000000000000006000549260801b16911617600055565b61063d60ff6040830151167fffffffffffffffffffffffffffff00ffffffffffffffffffffffffffffffffff71ff00000000000000000000000000000000006000549260881b16911617600055565b61069c73ffffffffffffffffffffffffffffffffffffffff60608301511673ffffffffffffffffffffffffffffffffffffffff167fffffffffffffffffffffffff00000000000000000000000000000000000000006001541617600155565b6080810151600290608051905b600a8210611f375760a08401516080515b60058110611ee5576fffffffffffffffffffffffffffffffff604060e05101511615611ebb576106e86120c9565b6080515460ff608060e05101511673ffffffffffffffffffffffffffffffffffffffff6001541691604051610100526101005160a061010051011067ffffffffffffffff60a06101005101111761198d5760ff9160a061010051016040526fffffffffffffffffffffffffffffffff82166101005152828260801c166020610100510152604061010051015260881c16606061010051015260806101005101526fffffffffffffffffffffffffffffffff8151166fffffffffffffffffffffffffffffffff602083015116171580611e91575b60ff602060e0510151169160ff60608201511683149182611e88575b60805150608051506080515060805192608051608051956fffffffffffffffffffffffffffffffff604060e05101511673ffffffffffffffffffffffffffffffffffffffff606060e05101511673ffffffffffffffffffffffffffffffffffffffff6080610100510151166040519161084f83612023565b608051835260805160208401526fffffffffffffffffffffffffffffffff895116936fffffffffffffffffffffffffffffffff6101005151166040519561089587612023565b86526020860152604051956108a987612023565b60805187526080516020880152604051610120526108c96101205161203f565b6101205152602061012051015260406101205101526060610120510152841515608061012051015260a061012051015260c061012051015260e06101205101528115600014611b8a5760ff60606101005101511615611b7b575b60e05160a0015115611b7357600160ff6040610100510151160160ff8111610a2c57955b60ff6060610100510151165b60ff881660ff82161080611b51575b15610ade57610970816122bf565b96600a881015610aad57600a821015610aad57610a106fffffffffffffffffffffffffffffffff98916109ba8a936109aa8660020161209b565b60e061012051015260020161209b565b60a0610120510152610a0a6109d1610120516123d4565b9d809291506020610120510151168282161080610a81575b610a5d575b610120516020018051831682900383169052169060130b612280565b906121e1565b9716610100515260ff80821614610a2c5760ff16600101610953565b7f4e487b71000000000000000000000000000000000000000000000000000000006080515260116004526024608051fd5b60ff6001890116606061010051015260e061012051015160c06101205101526109ee565b5060a060e0510151151580610a97575b156109e9565b5060ff60406101005101511660ff891614610a91565b7f4e487b71000000000000000000000000000000000000000000000000000000006080515260326004526024608051fd5b5090919395509391936fffffffffffffffffffffffffffffffff6020610120510151166119d1575b82931560001461181e57610b6c6fffffffffffffffffffffffffffffffff9160ff610b3881602060e0510151166122f0565b16606089015282610b5d610b548383604060e051015116612136565b828b5116612187565b16885282602089015116612187565b1660208601525b6fffffffffffffffffffffffffffffffff81166111dc575b505060805181126111ab5760e051602001517ff60208883bdb6146f6921668f7001fd8062812b8280c568a8fb363d95206f4d69160809160ff1660010361117f57610bf2610bf7916fffffffffffffffffffffffffffffffff604060e0510151169061235d565b612304565b935b60ff60608201511690610c4d827fffffffffffffffffffffff00ffffffffffffffffffffffffffffffffffffffff74ff00000000000000000000000000000000000000006012549260a01b16911617601255565b6fffffffffffffffffffffffffffffffff60208183511692610ca6846fffffffffffffffffffffffffffffffff167fffffffffffffffffffffffffffffffff000000000000000000000000000000006011541617601155565b01511690610cf0826fffffffffffffffffffffffffffffffff7fffffffffffffffffffffffffffffffff000000000000000000000000000000006011549260801b16911617601155565b73ffffffffffffffffffffffffffffffffffffffff60e051511692604051938452602084015260408301526060820152a16110d2575b610d7860ff6060610100510151167fffffffffffffffffffffffffffff00ffffffffffffffffffffffffffffffffff71ff00000000000000000000000000000000006000549260881b16911617600055565b6fffffffffffffffffffffffffffffffff610100515116807fffffffffffffffffffffffffffffffff0000000000000000000000000000000060005416176000557f6e310ce75ab0d3b6ec19f1a14f7ee8de9b2e17f73e22f075a062f39cdccbfcc4602073ffffffffffffffffffffffffffffffffffffffff60e051511692604051908152a260405190610e0b82612007565b60ff608051546fffffffffffffffffffffffffffffffff81168452818160801c16602085015260881c16604083015273ffffffffffffffffffffffffffffffffffffffff6001541660608301526040518061014081011067ffffffffffffffff610140830111176110a3576101408101604052608051600290825b600a821061108657505050608083015260405180600c90608051905b600a600183011061105457505050610eb98161205c565b60a0830152610ec66120c9565b9173ffffffffffffffffffffffffffffffffffffffff604051921682526fffffffffffffffffffffffffffffffff815116602083015260ff602082015116604083015260ff604082015116606083015273ffffffffffffffffffffffffffffffffffffffff6060820151166080830152608081015160a08301608051905b600a82106110205750505060a0015160805161032083015b600a8210610ff8576105208460a0876fffffffffffffffffffffffffffffffff8151166104608401526fffffffffffffffffffffffffffffffff60208201511661048084015273ffffffffffffffffffffffffffffffffffffffff6040820151166104a084015260ff6060820151166104c08401526fffffffffffffffffffffffffffffffff6080820151166104e08401520151610500820152f35b6020806001926fffffffffffffffffffffffffffffffff865116815201930191019091610f5c565b602060406001926fffffffffffffffffffffffffffffffff8387518281511684520151168382015201930191019091610f44565b6001604060029285546fffffffffffffffffffffffffffffffff8116825260801c602082015201930191019091610ea2565b6001602081926110958661209b565b815201930191019091610e86565b7f4e487b7100000000000000000000000000000000000000000000000000000000600052604160045260246000fd5b73ffffffffffffffffffffffffffffffffffffffff6080610100510151166111358173ffffffffffffffffffffffffffffffffffffffff167fffffffffffffffffffffffff00000000000000000000000000000000000000006001541617600155565b7ff6517cca46219856d30240b96a421c5f7442a4f956d26f1a9ba2d5c9de6a7200602073ffffffffffffffffffffffffffffffffffffffff60e051511692604051908152a2610d26565b610bf26111a5916fffffffffffffffffffffffffffffffff604060e051015116906121fd565b93610bf9565b602490604051907f67fdc2ff0000000000000000000000000000000000000000000000000000000082526004820152fd5b915091506112156fffffffffffffffffffffffffffffffff8451166fffffffffffffffffffffffffffffffff60208601511617156121ab565b60ff611226816060860151166122f0565b16606084015260019273ffffffffffffffffffffffffffffffffffffffff606060e05101511660806101005101526fffffffffffffffffffffffffffffffff604060e051015116936fffffffffffffffffffffffffffffffff8316604060e051015260009260009460ff602060e05101511673ffffffffffffffffffffffffffffffffffffffff606060e05101511673ffffffffffffffffffffffffffffffffffffffff608061010051015116604051906112e082612023565b8982528960208301526fffffffffffffffffffffffffffffffff885116926fffffffffffffffffffffffffffffffff6101005151166040519461132286612023565b855260208501526040519461133686612023565b8b86528b602087015260405160c05261135060c05161203f565b60c051526fffffffffffffffffffffffffffffffff8716602060c0510152604060c0510152606060c051015288608060c051015260a060c051015260c08051015260e060c051015260ff6060610100510151161561180f575b60e05160a001511561180757600160ff6040610100510151160160ff81116117da57965b60ff606061010051015116955b60ff891660ff881610806117b9575b15611590576113f7876122bf565b600a8082101561156357881015611536579061142b61148b9261141c8a60020161209b565b60e060c051015260020161209b565b60a060c0510152610a0a6fffffffffffffffffffffffffffffffff61145160c0516123d4565b60a0949394525081602060c051015116828216108061150a575b6114e9575b60c0516020018051831682900383169052169060130b612280565b956fffffffffffffffffffffffffffffffff60a05116610100515260ff808216146114bc5760ff16600101956113da565b6024887f4e487b710000000000000000000000000000000000000000000000000000000081526011600452fd5b60ff60018d0116606061010051015260e060c051015160c080510152611470565b5060a060e0510151151580611520575b1561146b565b5060ff60406101005101511660ff8d161461151a565b6024897f4e487b710000000000000000000000000000000000000000000000000000000081526032600452fd5b60248a7f4e487b710000000000000000000000000000000000000000000000000000000081526032600452fd5b929550909396509491946fffffffffffffffffffffffffffffffff602060c0510151166115f7575b826115e16fffffffffffffffffffffffffffffffff959386946115e794604060e05101526121e1565b95612136565b1685521660208401528380610b8b565b9160a060e05101511561178f5760ff60406101005101511690600a82101561176257506fffffffffffffffffffffffffffffffff93926115e161167d86946116446115e79560020161209b565b8060e060c05101528060a060c051015260c080510152610a0a61166860c0516123d4565b50505087602060c0510151169060130b612280565b84602060c05101511695869360ff6040610100510151167f15881461f09bcd6b291dde5a073e3d7bfeaa1eca35b905d106d703c2dc7df8ff6116d9896116c284612236565b91905481602060c0510151169260031b1c16612187565b6117116116e584612236565b8c84939293169083549060031b916fffffffffffffffffffffffffffffffff809116831b921b19161790565b905560e051516040805160ff9590951685526fffffffffffffffffffffffffffffffff92909216602085015273ffffffffffffffffffffffffffffffffffffffff1692a294509650935050506115b8565b807f4e487b7100000000000000000000000000000000000000000000000000000000602492526032600452fd5b60046040517fe9424373000000000000000000000000000000000000000000000000000000008152fd5b506fffffffffffffffffffffffffffffffff602060c05101511615156113e9565b6024877f4e487b710000000000000000000000000000000000000000000000000000000081526011600452fd5b600a966113cd565b600160606101005101526113a9565b60ff60206101005101511660ff60606101005101511690818111611896575b505061188b816fffffffffffffffffffffffffffffffff61187c611873829561186e8885604060e051015116612136565b612136565b828b5116612136565b16885282602089015116612136565b166020860152610b73565b73ffffffffffffffffffffffffffffffffffffffff60e051511691303b156119cb57604051927f57bf464c00000000000000000000000000000000000000000000000000000000845260048401526024830152604482015260805181606481608051305af180156119be57611973575b5061188b6fffffffffffffffffffffffffffffffff9161196d60ff6060610100510151167fffffffffffffffffffffffffffffff00ffffffffffffffffffffffffffffffff70ff000000000000000000000000000000006000549260801b16911617600055565b9161183d565b67ffffffffffffffff811161198d5760405261188b611906565b7f4e487b71000000000000000000000000000000000000000000000000000000006080515260416004526024608051fd5b6040513d608051823e3d90fd5b60805180fd5b9160a060e05101511561178f5760ff604061010051015116600a811015610aad576fffffffffffffffffffffffffffffffff91611a13611a529260020161209b565b8060e06101205101528060a061012051015260c0610120510152610a0a611a3c610120516123d4565b505050846020610120510151169060130b612280565b9281602061012051015116011660ff6040610100510151167f15881461f09bcd6b291dde5a073e3d7bfeaa1eca35b905d106d703c2dc7df8ff611ac06fffffffffffffffffffffffffffffffff611aa884612236565b919054816020610120510151169260031b1c16612187565b611b08611acc84612236565b6fffffffffffffffffffffffffffffffff84939293169083549060031b916fffffffffffffffffffffffffffffffff809116831b921b19161790565b905560e051516040805160ff9590951685526fffffffffffffffffffffffffffffffff92909216602085015273ffffffffffffffffffffffffffffffffffffffff1692a2610b06565b506fffffffffffffffffffffffffffffffff6020610120510151161515610962565b600a95610947565b60016060610100510152610923565b5060ff6060610100510151165b6fffffffffffffffffffffffffffffffff60206101205101511615611e7d576fffffffffffffffffffffffffffffffff611bd082612236565b90549060031b1c1680611d23575b5060ff811615611cfc576fffffffffffffffffffffffffffffffff602061012051015116611c3a575b60ff811615610a2c5760ff167fffffffffffffffffffffffffffffffffffffffffffffffffffffffffffffffff01611b97565b600a9485821015610aad57611c518260020161209b565b60a0610120510152611c62826122bf565b95861015610aad57611cc76fffffffffffffffffffffffffffffffff9691611c8d889360020161209b565b60e0610120510152610a0a611ca4610120516123d4565b9b9190611cd357610120516020018051831682900383169052169060130b612280565b95166101005152611c07565b60ff611cde896122bf565b16606061010051015260e061012051015160c06101205101526109ee565b5091939290925b6fffffffffffffffffffffffffffffffff60206101205101511690610b06565b600a829796971015610aad57611d3b8260020161209b565b8060e061012051015260a06101205101527f15881461f09bcd6b291dde5a073e3d7bfeaa1eca35b905d106d703c2dc7df8ff6fffffffffffffffffffffffffffffffff611e16611d8d610120516123d4565b50506101205160200151919b918416905080861015611e725750610a0a83869b5b8c611dea8380611dbd8d612236565b929094168c03169083549060031b916fffffffffffffffffffffffffffffffff809116831b921b19161790565b9055818d1601169b84808d168160206101205101511603166020610120510152848c169060130b612280565b97611e698273ffffffffffffffffffffffffffffffffffffffff60e0515116956040519485941690031686839092916fffffffffffffffffffffffffffffffff60209160ff604085019616845216910152565b0390a286611bde565b83610a0a919b611dae565b509193929092611d03565b801592506107d7565b73ffffffffffffffffffffffffffffffffffffffff606060e05101511660806101005101526107bb565b60046040517f0287a767000000000000000000000000000000000000000000000000000000008152fd5b608051805b60028110611f005750600c8201556001016106ba565b83516001949285916020916fffffffffffffffffffffffffffffffff600786901b81811b199092169216901b179301945001611eea565b60016020828293517fffffffffffffffffffffffffffffffff00000000000000000000000000000000836fffffffffffffffffffffffffffffffff83511692015160801b16178655019301910190916106a9565b602090604051611f9a81612023565b6080518152608051838201528184015201610368565b60208091611fbd84612079565b815201910190610211565b6040823603126119cb5760206040918251611fe281612023565b611feb85612079565b8152611ff8838601612079565b838201528152019101906101dc565b60c0810190811067ffffffffffffffff8211176110a357604052565b6040810190811067ffffffffffffffff8211176110a357604052565b610100810190811067ffffffffffffffff8211176110a357604052565b610140810190811067ffffffffffffffff8211176110a357604052565b35906fffffffffffffffffffffffffffffffff8216820361209657565b600080fd5b906040516120a881612023565b91546fffffffffffffffffffffffffffffffff8116835260801c6020830152565b604051906120d682612007565b816011546fffffffffffffffffffffffffffffffff90818116835260801c602083015260ff60125473ffffffffffffffffffffffffffffffffffffffff8116604085015260a01c16606083015260135416608082015260a0601454910152565b6fffffffffffffffffffffffffffffffff918216908216039190821161215857565b7f4e487b7100000000000000000000000000000000000000000000000000000000600052601160045260246000fd5b9190916fffffffffffffffffffffffffffffffff8080941691160191821161215857565b156121b257565b7f4e487b7100000000000000000000000000000000000000000000000000000000600052600160045260246000fd5b9190916000838201938412911290801582169115161761215857565b8115612207570490565b7f4e487b7100000000000000000000000000000000000000000000000000000000600052601260045260246000fd5b90600a8210156122515760108260011c600c019260041b1690565b7f4e487b7100000000000000000000000000000000000000000000000000000000600052603260045260246000fd5b8181029291600082127f800000000000000000000000000000000000000000000000000000000000000082141661215857818405149015171561215857565b60ff7fffffffffffffffffffffffffffffffffffffffffffffffffffffffffffffffff9116019060ff821161215857565b60ff166001036122ff57600290565b600190565b73ffffffffffffffffffffffffffffffffffffffff90818111612325571690565b604490604051907f6dfcc65000000000000000000000000000000000000000000000000000000000825260a060048301526024820152fd5b81156123a1578061236f575050600090565b6001917fffffffffffffffffffffffffffffffffffffffffffffffffffffffffffffffff61239d92016121fd565b0190565b906123ab916121fd565b90565b9190820180921161215857565b8181039291600013801582851316918412161761215857565b6080810180519091901561284e5761240c6fffffffffffffffffffffffffffffffff8060c084015151169060e0840151511690612136565b915b6fffffffffffffffffffffffffffffffff91826020820151169383811685101594856000146128465750925b929392600085851561253d57505080602060e0840151015116915b829361248a83602060c085015101511673ffffffffffffffffffffffffffffffffffffffff94856060860151169616906123ae565b906c020000000000000000000000006124a38387612921565b9283960961252b575b825160ff166001036124f65751156124da5750916124d29160406124d7940151166123bb565b61287e565b93565b6124d793506124d29260406124f1930151166123ae565b6128c6565b51919392911561251757506124d2916124f19160406124d7950151166123ae565b906124d2925060406124d7940151166123bb565b906001810180911161215857906124ac565b8451156128345760ff8451165b60a085015160e0860151908181878151168885511610612829575b50506020820190868251169361258460208301958987511611156121ab565b87808551168184511690031691888085511681885116900316946125a884876129b8565b9684156127fc57908a91857301000000000000000000000000000000000000008099096127b7575b918091818060ff9695511691511602965116915116029116926002841460001461279b5781811061278557916124f19161260a93036121fd565b60018782968b51151560001461276f5761262b908260c08d01515116612136565b16921461270f575b5061263e8184612a6f565b92096126d6575b90612652612657926128c6565b6121e1565b9081126126a55781811161266d57811691612455565b604490604051907f6dfcc650000000000000000000000000000000000000000000000000000000008252608060048301526024820152fd5b602490604051907fa8ce44320000000000000000000000000000000000000000000000000000000082526004820152fd5b6001810180911115612645576024837f4e487b710000000000000000000000000000000000000000000000000000000081526011600452fd5b9093507f800000000000000000000000000000000000000000000000000000000000000081146127425784039238612633565b6024857f4e487b710000000000000000000000000000000000000000000000000000000081526011600452fd5b612780908260c08d01515116612187565b61262b565b91612794926124f192036121fd565b850361260a565b9081811061278557916124f1916127b293036121fd565b61260a565b97909150600181018091116127cf57968a91906125d0565b60248a7f4e487b710000000000000000000000000000000000000000000000000000000081526011600452fd5b60248a7f4e487b710000000000000000000000000000000000000000000000000000000081526012600452fd5b925090503880612565565b61284160ff8551166122f0565b61254a565b90509261243a565b6128786fffffffffffffffffffffffffffffffff8060e084015151169060c0840151511690612136565b9161240e565b908160130b9180830361288e5750565b604490604051907f327269a700000000000000000000000000000000000000000000000000000000825260a060048301526024820152fd5b7f7fffffffffffffffffffffffffffffffffffffffffffffffffffffffffffffff81116128f05790565b602490604051907f24775e060000000000000000000000000000000000000000000000000000000082526004820152fd5b90808202917fffffffffffffffffffffffffffffffffffffffffffffffffffffffffffffffff828209918380841093039280840393146129af576c0200000000000000000000000091838311156129855709908282119003609f1b910360611c1790565b60046040517f227bc153000000000000000000000000000000000000000000000000000000008152fd5b50505060611c90565b908160981b90730100000000000000000000000000000000000000927fffffffffffffffffffffffffffffffffffffffffffffffffffffffffffffffff84820993838086109503948086039514612a6257848311156129855782910981600003821680920460028082600302188083028203028083028203028083028203028083028203028083028203028092029003029360018380600003040190848311900302920304170290565b5050906123ab92506121fd565b90808202917fffffffffffffffffffffffffffffffffffffffffffffffffffffffffffffffff82820991838084109303928084039314612ada577301000000000000000000000000000000000000009183831115612985570990828211900360681b910360981c1790565b50505060981c9056fea264697066735822122066673be7966958f9710c294ff5790827402114af4ab1a57675ad84f1e7162e6764736f6c63430008170033",
  "linkReferences": {},
  "deployedLinkReferences": {}
}