{
  "_format": "hh-sol-artifact-1",
  "contractName": "PythAdaptorHelper",
  "sourceName": "contracts/test/PythAdaptorHelper.sol",
  "abi": [
    {
      "inputs": [
        {
          "internalType": "contract IPythAdaptor",
          "name": "_adaptor",
          "type": "address"
        }
      ],
      "stateMutability": "nonpayable",
      "type": "constructor"
    },
    {
      "inputs": [],
      "name": "affectedAssetIdLength",
      "outputs": [
        {
          "internalType": "uint256",
          "name": "",
          "type": "uint256"
        }
      ],
      "stateMutability": "view",
      "type": "function"
    },
    {
      "inputs": [
        {
          "internalType": "PackedValue[]",
          "name": "_prices",
          "type": "uint256[]"
        },
        {
          "internalType": "uint256",
          "name": "_minPublishTime",
          "type": "uint256"
        },
        {
          "internalType": "bytes32",
          "name": "_encodedVaas",
          "type": "bytes32"
        }
      ],
      "name": "updatePriceFeeds",
      "outputs": [],
      "stateMutability": "nonpayable",
      "type": "function"
    }
  ],
  "bytecode": "0x60803461007457601f61046738819003918201601f19168301916001600160401b038311848410176100795780849260209460405283398101031261007457516001600160a01b0381169081900361007457600080546001600160a01b0319169190911790556040516103d790816100908239f35b600080fd5b634e487b7160e01b600052604160045260246000fdfe6080604081815260048036101561001557600080fd5b600092833560e01c9182633a90bbb11461007957505063956323241461003a57600080fd5b3461007557817ffffffffffffffffffffffffffffffffffffffffffffffffffffffffffffffffc360112610075576020906001549051908152f35b5080fd5b8490843461032d5760607ffffffffffffffffffffffffffffffffffffffffffffffffffffffffffffffffc36011261032d57813567ffffffffffffffff9283821161032957366023830112156103295781810135918483116102425760249236848260051b840101116103255787879173ffffffffffffffffffffffffffffffffffffffff9384845416917f3a90bbb10000000000000000000000000000000000000000000000000000000084528060648501606089870152528760848501920190855b818110610309575050508383809289358a830152604435604483015203925af196871561021e578697610246575b5085541693843b156102425785845180967f4c44799c000000000000000000000000000000000000000000000000000000008252858201602080878501528b51809252604484019160208d0191865b82811061022857505050508383809203925af1801561021e576101e1575b85875160015580f35b84116101f45750505282808080806101d8565b604185917f4e487b7100000000000000000000000000000000000000000000000000000000835252fd5b84513d88823e3d90fd5b835185528d97508c965093810193928101926001016101ba565b8580fd5b9096503d8087833e6102588183610331565b81019060209081818403126103015780519087821161030557019180601f84011215610301578251928784116102d6578360051b9087519461029c85840187610331565b855283808601928201019283116102d2578301905b8282106102c35750505050958761016b565b815181529083019083016102b1565b8980fd5b85896041877f4e487b7100000000000000000000000000000000000000000000000000000000835252fd5b8780fd5b8880fd5b823584528c96508d95506020938401939092019160010161013d565b8680fd5b8480fd5b8280fd5b90601f7fffffffffffffffffffffffffffffffffffffffffffffffffffffffffffffffe0910116810190811067ffffffffffffffff82111761037257604052565b7f4e487b7100000000000000000000000000000000000000000000000000000000600052604160045260246000fdfea26469706673582212205629f91da4f74f57f3ed2c36bf97835cd07287055893903411c0119136e3cd4f64736f6c63430008170033",
  "linkReferences": {},
  "deployedLinkReferences": {}
}