{
  "_format": "hh-sol-artifact-1",
  "contractName": "OrderBook",
  "sourceName": "contracts/plugins/OrderBook.sol",
  "abi": [
    {
      "inputs": [
        {
          "internalType": "contract IERC20",
          "name": "_usd",
          "type": "address"
        },
        {
          "internalType": "contract Router",
          "name": "_router",
          "type": "address"
        },
        {
          "internalType": "contract IMarketManager",
          "name": "_marketManager",
          "type": "address"
        },
        {
          "internalType": "uint256",
          "name": "_minExecutionFee",
          "type": "uint256"
        }
      ],
      "stateMutability": "nonpayable",
      "type": "constructor"
    },
    {
      "inputs": [
        {
          "internalType": "address",
          "name": "target",
          "type": "address"
        }
      ],
      "name": "AddressEmptyCode",
      "type": "error"
    },
    {
      "inputs": [
        {
          "internalType": "address",
          "name": "account",
          "type": "address"
        }
      ],
      "name": "AddressInsufficientBalance",
      "type": "error"
    },
    {
      "inputs": [],
      "name": "FailedInnerCall",
      "type": "error"
    },
    {
      "inputs": [],
      "name": "Forbidden",
      "type": "error"
    },
    {
      "inputs": [
        {
          "internalType": "uint256",
          "name": "available",
          "type": "uint256"
        },
        {
          "internalType": "uint256",
          "name": "required",
          "type": "uint256"
        }
      ],
      "name": "InsufficientExecutionFee",
      "type": "error"
    },
    {
      "inputs": [
        {
          "internalType": "uint160",
          "name": "marketPriceX96",
          "type": "uint160"
        },
        {
          "internalType": "uint160",
          "name": "triggerMarketPriceX96",
          "type": "uint160"
        }
      ],
      "name": "InvalidMarketPriceToTrigger",
      "type": "error"
    },
    {
      "inputs": [
        {
          "internalType": "Side",
          "name": "side",
          "type": "uint8"
        }
      ],
      "name": "InvalidSide",
      "type": "error"
    },
    {
      "inputs": [
        {
          "internalType": "uint160",
          "name": "tradePriceX96",
          "type": "uint160"
        },
        {
          "internalType": "uint160",
          "name": "acceptableTradePriceX96",
          "type": "uint160"
        }
      ],
      "name": "InvalidTradePrice",
      "type": "error"
    },
    {
      "inputs": [
        {
          "internalType": "uint256",
          "name": "orderIndex",
          "type": "uint256"
        }
      ],
      "name": "OrderNotExists",
      "type": "error"
    },
    {
      "inputs": [],
      "name": "ReentrancyGuardReentrantCall",
      "type": "error"
    },
    {
      "inputs": [
        {
          "internalType": "address",
          "name": "token",
          "type": "address"
        }
      ],
      "name": "SafeERC20FailedOperation",
      "type": "error"
    },
    {
      "anonymous": false,
      "inputs": [
        {
          "indexed": true,
          "internalType": "address",
          "name": "previousGov",
          "type": "address"
        },
        {
          "indexed": true,
          "internalType": "address",
          "name": "newGov",
          "type": "address"
        }
      ],
      "name": "ChangeGovStarted",
      "type": "event"
    },
    {
      "anonymous": false,
      "inputs": [
        {
          "indexed": true,
          "internalType": "uint256",
          "name": "orderIndex",
          "type": "uint256"
        },
        {
          "indexed": false,
          "internalType": "address",
          "name": "feeReceiver",
          "type": "address"
        }
      ],
      "name": "DecreaseOrderCancelled",
      "type": "event"
    },
    {
      "anonymous": false,
      "inputs": [
        {
          "indexed": true,
          "internalType": "address",
          "name": "account",
          "type": "address"
        },
        {
          "indexed": true,
          "internalType": "contract IMarketDescriptor",
          "name": "market",
          "type": "address"
        },
        {
          "indexed": false,
          "internalType": "Side",
          "name": "side",
          "type": "uint8"
        },
        {
          "indexed": false,
          "internalType": "uint128",
          "name": "marginDelta",
          "type": "uint128"
        },
        {
          "indexed": false,
          "internalType": "uint128",
          "name": "sizeDelta",
          "type": "uint128"
        },
        {
          "indexed": false,
          "internalType": "uint160",
          "name": "triggerMarketPriceX96",
          "type": "uint160"
        },
        {
          "indexed": false,
          "internalType": "bool",
          "name": "triggerAbove",
          "type": "bool"
        },
        {
          "indexed": false,
          "internalType": "uint160",
          "name": "acceptableTradePriceX96",
          "type": "uint160"
        },
        {
          "indexed": false,
          "internalType": "address",
          "name": "receiver",
          "type": "address"
        },
        {
          "indexed": false,
          "internalType": "uint256",
          "name": "executionFee",
          "type": "uint256"
        },
        {
          "indexed": true,
          "internalType": "uint256",
          "name": "orderIndex",
          "type": "uint256"
        }
      ],
      "name": "DecreaseOrderCreated",
      "type": "event"
    },
    {
      "anonymous": false,
      "inputs": [
        {
          "indexed": true,
          "internalType": "uint256",
          "name": "orderIndex",
          "type": "uint256"
        },
        {
          "indexed": false,
          "internalType": "uint160",
          "name": "marketPriceX96",
          "type": "uint160"
        },
        {
          "indexed": false,
          "internalType": "address payable",
          "name": "feeReceiver",
          "type": "address"
        }
      ],
      "name": "DecreaseOrderExecuted",
      "type": "event"
    },
    {
      "anonymous": false,
      "inputs": [
        {
          "indexed": true,
          "internalType": "uint256",
          "name": "orderIndex",
          "type": "uint256"
        },
        {
          "indexed": false,
          "internalType": "uint160",
          "name": "triggerMarketPriceX96",
          "type": "uint160"
        },
        {
          "indexed": false,
          "internalType": "uint160",
          "name": "acceptableTradePriceX96",
          "type": "uint160"
        }
      ],
      "name": "DecreaseOrderUpdated",
      "type": "event"
    },
    {
      "anonymous": false,
      "inputs": [
        {
          "indexed": true,
          "internalType": "address",
          "name": "previousGov",
          "type": "address"
        },
        {
          "indexed": true,
          "internalType": "address",
          "name": "newGov",
          "type": "address"
        }
      ],
      "name": "GovChanged",
      "type": "event"
    },
    {
      "anonymous": false,
      "inputs": [
        {
          "indexed": true,
          "internalType": "uint256",
          "name": "orderIndex",
          "type": "uint256"
        },
        {
          "indexed": false,
          "internalType": "address payable",
          "name": "feeReceiver",
          "type": "address"
        }
      ],
      "name": "IncreaseOrderCancelled",
      "type": "event"
    },
    {
      "anonymous": false,
      "inputs": [
        {
          "indexed": true,
          "internalType": "address",
          "name": "account",
          "type": "address"
        },
        {
          "indexed": true,
          "internalType": "contract IMarketDescriptor",
          "name": "market",
          "type": "address"
        },
        {
          "indexed": false,
          "internalType": "Side",
          "name": "side",
          "type": "uint8"
        },
        {
          "indexed": false,
          "internalType": "uint128",
          "name": "marginDelta",
          "type": "uint128"
        },
        {
          "indexed": false,
          "internalType": "uint128",
          "name": "sizeDelta",
          "type": "uint128"
        },
        {
          "indexed": false,
          "internalType": "uint160",
          "name": "triggerMarketPriceX96",
          "type": "uint160"
        },
        {
          "indexed": false,
          "internalType": "bool",
          "name": "triggerAbove",
          "type": "bool"
        },
        {
          "indexed": false,
          "internalType": "uint160",
          "name": "acceptableTradePriceX96",
          "type": "uint160"
        },
        {
          "indexed": false,
          "internalType": "uint256",
          "name": "executionFee",
          "type": "uint256"
        },
        {
          "indexed": true,
          "internalType": "uint256",
          "name": "orderIndex",
          "type": "uint256"
        }
      ],
      "name": "IncreaseOrderCreated",
      "type": "event"
    },
    {
      "anonymous": false,
      "inputs": [
        {
          "indexed": true,
          "internalType": "uint256",
          "name": "orderIndex",
          "type": "uint256"
        },
        {
          "indexed": false,
          "internalType": "uint160",
          "name": "marketPriceX96",
          "type": "uint160"
        },
        {
          "indexed": false,
          "internalType": "address payable",
          "name": "feeReceiver",
          "type": "address"
        }
      ],
      "name": "IncreaseOrderExecuted",
      "type": "event"
    },
    {
      "anonymous": false,
      "inputs": [
        {
          "indexed": true,
          "internalType": "uint256",
          "name": "orderIndex",
          "type": "uint256"
        },
        {
          "indexed": false,
          "internalType": "uint160",
          "name": "triggerMarketPriceX96",
          "type": "uint160"
        },
        {
          "indexed": false,
          "internalType": "uint160",
          "name": "acceptableTradePriceX96",
          "type": "uint160"
        }
      ],
      "name": "IncreaseOrderUpdated",
      "type": "event"
    },
    {
      "anonymous": false,
      "inputs": [
        {
          "indexed": false,
          "internalType": "uint256",
          "name": "minExecutionFee",
          "type": "uint256"
        }
      ],
      "name": "MinExecutionFeeUpdated",
      "type": "event"
    },
    {
      "anonymous": false,
      "inputs": [
        {
          "indexed": true,
          "internalType": "address",
          "name": "account",
          "type": "address"
        },
        {
          "indexed": false,
          "internalType": "bool",
          "name": "active",
          "type": "bool"
        }
      ],
      "name": "OrderExecutorUpdated",
      "type": "event"
    },
    {
      "inputs": [],
      "name": "acceptGov",
      "outputs": [],
      "stateMutability": "nonpayable",
      "type": "function"
    },
    {
      "inputs": [
        {
          "internalType": "uint256",
          "name": "_orderIndex",
          "type": "uint256"
        },
        {
          "internalType": "address payable",
          "name": "_feeReceiver",
          "type": "address"
        }
      ],
      "name": "cancelDecreaseOrder",
      "outputs": [],
      "stateMutability": "nonpayable",
      "type": "function"
    },
    {
      "inputs": [
        {
          "internalType": "uint256[]",
          "name": "_decreaseOrderIndexes",
          "type": "uint256[]"
        }
      ],
      "name": "cancelDecreaseOrdersBatch",
      "outputs": [],
      "stateMutability": "nonpayable",
      "type": "function"
    },
    {
      "inputs": [
        {
          "internalType": "uint256",
          "name": "_orderIndex",
          "type": "uint256"
        },
        {
          "internalType": "address payable",
          "name": "_feeReceiver",
          "type": "address"
        }
      ],
      "name": "cancelIncreaseOrder",
      "outputs": [],
      "stateMutability": "nonpayable",
      "type": "function"
    },
    {
      "inputs": [
        {
          "internalType": "uint256[]",
          "name": "_increaseOrderIndexes",
          "type": "uint256[]"
        }
      ],
      "name": "cancelIncreaseOrdersBatch",
      "outputs": [],
      "stateMutability": "nonpayable",
      "type": "function"
    },
    {
      "inputs": [
        {
          "internalType": "uint256[]",
          "name": "_increaseOrderIndexes",
          "type": "uint256[]"
        },
        {
          "internalType": "uint256[]",
          "name": "_decreaseOrderIndexes",
          "type": "uint256[]"
        }
      ],
      "name": "cancelOrdersBatch",
      "outputs": [],
      "stateMutability": "nonpayable",
      "type": "function"
    },
    {
      "inputs": [
        {
          "internalType": "address",
          "name": "_newGov",
          "type": "address"
        }
      ],
      "name": "changeGov",
      "outputs": [],
      "stateMutability": "nonpayable",
      "type": "function"
    },
    {
      "inputs": [
        {
          "internalType": "contract IMarketDescriptor",
          "name": "_market",
          "type": "address"
        },
        {
          "internalType": "Side",
          "name": "_side",
          "type": "uint8"
        },
        {
          "internalType": "uint128",
          "name": "_marginDelta",
          "type": "uint128"
        },
        {
          "internalType": "uint128",
          "name": "_sizeDelta",
          "type": "uint128"
        },
        {
          "internalType": "uint160",
          "name": "_triggerMarketPriceX96",
          "type": "uint160"
        },
        {
          "internalType": "bool",
          "name": "_triggerAbove",
          "type": "bool"
        },
        {
          "internalType": "uint160",
          "name": "_acceptableTradePriceX96",
          "type": "uint160"
        },
        {
          "internalType": "address",
          "name": "_receiver",
          "type": "address"
        }
      ],
      "name": "createDecreaseOrder",
      "outputs": [
        {
          "internalType": "uint256",
          "name": "index",
          "type": "uint256"
        }
      ],
      "stateMutability": "payable",
      "type": "function"
    },
    {
      "inputs": [
        {
          "internalType": "contract IMarketDescriptor",
          "name": "_market",
          "type": "address"
        },
        {
          "internalType": "Side",
          "name": "_side",
          "type": "uint8"
        },
        {
          "internalType": "uint128",
          "name": "_marginDelta",
          "type": "uint128"
        },
        {
          "internalType": "uint128",
          "name": "_sizeDelta",
          "type": "uint128"
        },
        {
          "internalType": "uint160",
          "name": "_triggerMarketPriceX96",
          "type": "uint160"
        },
        {
          "internalType": "bool",
          "name": "_triggerAbove",
          "type": "bool"
        },
        {
          "internalType": "uint160",
          "name": "_acceptableTradePriceX96",
          "type": "uint160"
        }
      ],
      "name": "createIncreaseOrder",
      "outputs": [
        {
          "internalType": "uint256",
          "name": "index",
          "type": "uint256"
        }
      ],
      "stateMutability": "payable",
      "type": "function"
    },
    {
      "inputs": [
        {
          "internalType": "contract IMarketDescriptor",
          "name": "_market",
          "type": "address"
        },
        {
          "internalType": "Side",
          "name": "_side",
          "type": "uint8"
        },
        {
          "internalType": "uint128[2]",
          "name": "_marginDeltas",
          "type": "uint128[2]"
        },
        {
          "internalType": "uint128[2]",
          "name": "_sizeDeltas",
          "type": "uint128[2]"
        },
        {
          "internalType": "uint160[2]",
          "name": "_triggerMarketPriceX96s",
          "type": "uint160[2]"
        },
        {
          "internalType": "uint160[2]",
          "name": "_acceptableTradePriceX96s",
          "type": "uint160[2]"
        },
        {
          "internalType": "address",
          "name": "_receiver",
          "type": "address"
        }
      ],
      "name": "createTakeProfitAndStopLossOrders",
      "outputs": [],
      "stateMutability": "payable",
      "type": "function"
    },
    {
      "inputs": [
        {
          "internalType": "uint256",
          "name": "",
          "type": "uint256"
        }
      ],
      "name": "decreaseOrders",
      "outputs": [
        {
          "internalType": "address",
          "name": "account",
          "type": "address"
        },
        {
          "internalType": "contract IMarketDescriptor",
          "name": "market",
          "type": "address"
        },
        {
          "internalType": "Side",
          "name": "side",
          "type": "uint8"
        },
        {
          "internalType": "uint128",
          "name": "marginDelta",
          "type": "uint128"
        },
        {
          "internalType": "uint128",
          "name": "sizeDelta",
          "type": "uint128"
        },
        {
          "internalType": "uint160",
          "name": "triggerMarketPriceX96",
          "type": "uint160"
        },
        {
          "internalType": "bool",
          "name": "triggerAbove",
          "type": "bool"
        },
        {
          "internalType": "uint160",
          "name": "acceptableTradePriceX96",
          "type": "uint160"
        },
        {
          "internalType": "address",
          "name": "receiver",
          "type": "address"
        },
        {
          "internalType": "uint256",
          "name": "executionFee",
          "type": "uint256"
        }
      ],
      "stateMutability": "view",
      "type": "function"
    },
    {
      "inputs": [
        {
          "internalType": "uint256",
          "name": "_orderIndex",
          "type": "uint256"
        },
        {
          "internalType": "address payable",
          "name": "_feeReceiver",
          "type": "address"
        }
      ],
      "name": "executeDecreaseOrder",
      "outputs": [],
      "stateMutability": "nonpayable",
      "type": "function"
    },
    {
      "inputs": [
        {
          "internalType": "uint256",
          "name": "_orderIndex",
          "type": "uint256"
        },
        {
          "internalType": "address payable",
          "name": "_feeReceiver",
          "type": "address"
        }
      ],
      "name": "executeIncreaseOrder",
      "outputs": [],
      "stateMutability": "nonpayable",
      "type": "function"
    },
    {
      "inputs": [],
      "name": "executionGasLimit",
      "outputs": [
        {
          "internalType": "uint256",
          "name": "",
          "type": "uint256"
        }
      ],
      "stateMutability": "view",
      "type": "function"
    },
    {
      "inputs": [],
      "name": "gov",
      "outputs": [
        {
          "internalType": "address",
          "name": "",
          "type": "address"
        }
      ],
      "stateMutability": "view",
      "type": "function"
    },
    {
      "inputs": [
        {
          "internalType": "uint256",
          "name": "",
          "type": "uint256"
        }
      ],
      "name": "increaseOrders",
      "outputs": [
        {
          "internalType": "address",
          "name": "account",
          "type": "address"
        },
        {
          "internalType": "contract IMarketDescriptor",
          "name": "market",
          "type": "address"
        },
        {
          "internalType": "Side",
          "name": "side",
          "type": "uint8"
        },
        {
          "internalType": "uint128",
          "name": "marginDelta",
          "type": "uint128"
        },
        {
          "internalType": "uint128",
          "name": "sizeDelta",
          "type": "uint128"
        },
        {
          "internalType": "uint160",
          "name": "triggerMarketPriceX96",
          "type": "uint160"
        },
        {
          "internalType": "bool",
          "name": "triggerAbove",
          "type": "bool"
        },
        {
          "internalType": "uint160",
          "name": "acceptableTradePriceX96",
          "type": "uint160"
        },
        {
          "internalType": "uint256",
          "name": "executionFee",
          "type": "uint256"
        }
      ],
      "stateMutability": "view",
      "type": "function"
    },
    {
      "inputs": [],
      "name": "marketManager",
      "outputs": [
        {
          "internalType": "contract IMarketManager",
          "name": "",
          "type": "address"
        }
      ],
      "stateMutability": "view",
      "type": "function"
    },
    {
      "inputs": [],
      "name": "minExecutionFee",
      "outputs": [
        {
          "internalType": "uint256",
          "name": "",
          "type": "uint256"
        }
      ],
      "stateMutability": "view",
      "type": "function"
    },
    {
      "inputs": [
        {
          "internalType": "address",
          "name": "",
          "type": "address"
        }
      ],
      "name": "orderExecutors",
      "outputs": [
        {
          "internalType": "bool",
          "name": "",
          "type": "bool"
        }
      ],
      "stateMutability": "view",
      "type": "function"
    },
    {
      "inputs": [],
      "name": "ordersIndexNext",
      "outputs": [
        {
          "internalType": "uint256",
          "name": "",
          "type": "uint256"
        }
      ],
      "stateMutability": "view",
      "type": "function"
    },
    {
      "inputs": [],
      "name": "pendingGov",
      "outputs": [
        {
          "internalType": "address",
          "name": "",
          "type": "address"
        }
      ],
      "stateMutability": "view",
      "type": "function"
    },
    {
      "inputs": [],
      "name": "router",
      "outputs": [
        {
          "internalType": "contract Router",
          "name": "",
          "type": "address"
        }
      ],
      "stateMutability": "view",
      "type": "function"
    },
    {
      "inputs": [
        {
          "internalType": "uint256",
          "name": "_orderIndex",
          "type": "uint256"
        },
        {
          "internalType": "uint160",
          "name": "_triggerMarketPriceX96",
          "type": "uint160"
        },
        {
          "internalType": "uint160",
          "name": "_acceptableTradePriceX96",
          "type": "uint160"
        }
      ],
      "name": "updateDecreaseOrder",
      "outputs": [],
      "stateMutability": "nonpayable",
      "type": "function"
    },
    {
      "inputs": [
        {
          "internalType": "uint256",
          "name": "_executionGasLimit",
          "type": "uint256"
        }
      ],
      "name": "updateExecutionGasLimit",
      "outputs": [],
      "stateMutability": "nonpayable",
      "type": "function"
    },
    {
      "inputs": [
        {
          "internalType": "uint256",
          "name": "_orderIndex",
          "type": "uint256"
        },
        {
          "internalType": "uint160",
          "name": "_triggerMarketPriceX96",
          "type": "uint160"
        },
        {
          "internalType": "uint160",
          "name": "_acceptableTradePriceX96",
          "type": "uint160"
        }
      ],
      "name": "updateIncreaseOrder",
      "outputs": [],
      "stateMutability": "nonpayable",
      "type": "function"
    },
    {
      "inputs": [
        {
          "internalType": "uint256",
          "name": "_minExecutionFee",
          "type": "uint256"
        }
      ],
      "name": "updateMinExecutionFee",
      "outputs": [],
      "stateMutability": "nonpayable",
      "type": "function"
    },
    {
      "inputs": [
        {
          "internalType": "address",
          "name": "_account",
          "type": "address"
        },
        {
          "internalType": "bool",
          "name": "_active",
          "type": "bool"
        }
      ],
      "name": "updateOrderExecutor",
      "outputs": [],
      "stateMutability": "nonpayable",
      "type": "function"
    },
    {
      "inputs": [],
      "name": "usd",
      "outputs": [
        {
          "internalType": "contract IERC20",
          "name": "",
          "type": "address"
        }
      ],
      "stateMutability": "view",
      "type": "function"
    }
  ],
  "bytecode": "0x60e0346200017257601f6200343838819003918201601f19168301916001600160401b03831184841017620001775780849260809460405283398101031262000172578051906001600160a01b0380831683036200017257602082015192818416840362000172576040830151828116810362000172577face0e51322d77a7556ae0cf8f6528fdd3385e33d2951dc3c9cab391eb76b948c9460606020950151926000543360018060a01b0319821617600055604051953391167f3d1e4c3a68fed9f4f8315582b7297cf8fa264bc8e6704287603ba8c72bf05ac2600080a36001600255620f424060045560805260a05260c052806003558152a16040516132aa90816200018e82396080518181816106c2015281816110480152818161197301528181611c8e01526125dd015260a0518181816102430152818161065601528181610bb70152611d81015260c051818181610a4d01528181610e4101528181611bde01528181611c6c01526121ba0152f35b600080fd5b634e487b7160e01b600052604160045260246000fdfe608080604052600436101561001357600080fd5b600090813560e01c9081630f108862146122bd5750806312d43a511461226c578063252408101461221a57806339cb1f3e146121de57806341ed2c121461216f5780634af07170146120f257806363ae2103146120b6578063699735c014611fef5780636a099b2214611fb35780636a77d35f14611eea57806371b40c9f14611a575780637bae8c5a1461188d5780637bc6729b146117e25780638ec4ad8b1461162c5780638f5534ff14611553578063a962ef1e146114a6578063a9e5b11a146112dd578063b65202bc1461120a578063b8b3d87c146111b1578063c298d6b8146110d8578063d307f03f1461106c578063d63a6ccd14610ffd578063e6467b691461087c578063e9a6783c1461079b578063efe8532314610267578063f887ea40146101f8578063f9a1dde9146101b75763fe0f97bb1461015557600080fd5b346101b45760207ffffffffffffffffffffffffffffffffffffffffffffffffffffffffffffffffc3601126101b45760043567ffffffffffffffff81116101b0576101a76101ad91369060040161234a565b906128c9565b80f35b5080fd5b80fd5b50346101b45760207ffffffffffffffffffffffffffffffffffffffffffffffffffffffffffffffffc3601126101b4576101ef612eec565b60043560045580f35b50346101b457807ffffffffffffffffffffffffffffffffffffffffffffffffffffffffffffffffc3601126101b457602060405173ffffffffffffffffffffffffffffffffffffffff7f0000000000000000000000000000000000000000000000000000000000000000168152f35b5060e07ffffffffffffffffffffffffffffffffffffffffffffffffffffffffffffffffc3601126101b45761029a612322565b906102a361237b565b6102ab61238b565b926102b46123aa565b6102bc6123c9565b6102c461240f565b906102cd6123ec565b926102d6612aca565b6102df86612b03565b60035480341061076457506fffffffffffffffffffffffffffffffff881661063e575b6006549788976103118961286d565b60065560405190610321826124cf565b33825273ffffffffffffffffffffffffffffffffffffffff8816602083015260ff891660408301526fffffffffffffffffffffffffffffffff831660608301526fffffffffffffffffffffffffffffffff8416608083015273ffffffffffffffffffffffffffffffffffffffff851660a083015285151560c083015273ffffffffffffffffffffffffffffffffffffffff871660e08301526101008201903482528a815260076020526040902091805173ffffffffffffffffffffffffffffffffffffffff167fffffffffffffffffffffffff0000000000000000000000000000000000000000908185541617845560018401602083015173ffffffffffffffffffffffffffffffffffffffff1682825416178155604083015160ff1661048891907fffffffffffffffffffffff00ffffffffffffffffffffffffffffffffffffffff74ff000000000000000000000000000000000000000083549260a01b169116179055565b6060820151608080840151901b7fffffffffffffffffffffffffffffffff00000000000000000000000000000000166fffffffffffffffffffffffffffffffff9091161760028501556003840160a083015173ffffffffffffffffffffffffffffffffffffffff168282541617815560c0830151151561054a91907fffffffffffffffffffffff00ffffffffffffffffffffffffffffffffffffffff74ff0000000000000000000000000000000000000000835492151560a01b169116179055565b600484019160e0015173ffffffffffffffffffffffffffffffffffffffff16908254161790555190600501556040519660ff1687526fffffffffffffffffffffffffffffffff1660208701526fffffffffffffffffffffffffffffffff16604086015273ffffffffffffffffffffffffffffffffffffffff1660608501521515608084015273ffffffffffffffffffffffffffffffffffffffff1660a08301523460c083015273ffffffffffffffffffffffffffffffffffffffff1690339060e07f63f3cc17cd3a0997a486628dcd61d39c2910a87ac8a30a06e902a5fa15b84f5291a46001600255604051908152602090f35b73ffffffffffffffffffffffffffffffffffffffff807f000000000000000000000000000000000000000000000000000000000000000016803b15610760578960846fffffffffffffffffffffffffffffffff938b809460405196879586947f1b8278780000000000000000000000000000000000000000000000000000000086527f00000000000000000000000000000000000000000000000000000000000000001660048601523360248601523060448601521660648401525af180156107555761070c575b50610302565b67ffffffffffffffff8198929811610728576040529538610706565b6024827f4e487b710000000000000000000000000000000000000000000000000000000081526041600452fd5b6040513d8a823e3d90fd5b8880fd5b604490604051907f5dac504d0000000000000000000000000000000000000000000000000000000082523460048301526024820152fd5b50346101b45760207ffffffffffffffffffffffffffffffffffffffffffffffffffffffffffffffffc3601126101b457604061014091600435815260086020522073ffffffffffffffffffffffffffffffffffffffff808254169160018101549160ff60028301549160038401549080600486015416938360068360058901541697015497604051998a5283811660208b015260a01c1660408901526fffffffffffffffffffffffffffffffff8116606089015260801c6080880152811660a087015260a01c16151560c085015260e0840152610100830152610120820152f35b50346101b45761088b3661241e565b610893612aca565b338352600560205260ff60408420541615610fd357818352600860205260408320604051906108c18261251b565b600673ffffffffffffffffffffffffffffffffffffffff8254169182845260ff600182015473ffffffffffffffffffffffffffffffffffffffff8116602087015260a01c16604085015260028101546fffffffffffffffffffffffffffffffff8116606086015260801c608085015260ff600382015473ffffffffffffffffffffffffffffffffffffffff811660a087015260a01c16151560c085015273ffffffffffffffffffffffffffffffffffffffff60048201541660e085015273ffffffffffffffffffffffffffffffffffffffff600582015416610100850152015461012083015215610fa2579081602073ffffffffffffffffffffffffffffffffffffffff81610a34950151166109dd60ff60408501511661318c565b6040517f8f233e1700000000000000000000000000000000000000000000000000000000815273ffffffffffffffffffffffffffffffffffffffff909216600483015260ff16602482015293849081906044820190565b038173ffffffffffffffffffffffffffffffffffffffff7f0000000000000000000000000000000000000000000000000000000000000000165afa928315610f97578593610f57575b50610aaa60c082015115158473ffffffffffffffffffffffffffffffffffffffff60a08501511691612f0d565b6fffffffffffffffffffffffffffffffff608082015116906fffffffffffffffffffffffffffffffff6060820151168215610daf575b60209060c46004548973ffffffffffffffffffffffffffffffffffffffff85870151169173ffffffffffffffffffffffffffffffffffffffff875116946fffffffffffffffffffffffffffffffff60ff60408a015116998173ffffffffffffffffffffffffffffffffffffffff6101008c015116936040519c8d9a8b997ff86786f1000000000000000000000000000000000000000000000000000000008b5260048b015260248a0152604489015216606487015216608485015260a484015273ffffffffffffffffffffffffffffffffffffffff7f00000000000000000000000000000000000000000000000000000000000000001690f18015610da4578690610d65575b61012092506fffffffffffffffffffffffffffffffff608083015116610d29575b500151804710610cf957848080809373ffffffffffffffffffffffffffffffffffffffff86165af1610c376131a0565b5015610ccf577f16b4f79c5d270756b16267422b6507e69d649a8d0c3ea6a8c1c501108e563475918385526008602052610c986040862060066000918281558260018201558260028201558260038201558260048201558260058201550155565b6040805173ffffffffffffffffffffffffffffffffffffffff9283168152929091166020830152819081015b0390a2600160025580f35b60046040517f1425ea42000000000000000000000000000000000000000000000000000000008152fd5b60246040517fcd786059000000000000000000000000000000000000000000000000000000008152306004820152fd5b610d5f90610d3d60ff60408501511661318c565b9073ffffffffffffffffffffffffffffffffffffffff60e085015116916130c9565b38610c07565b506020823d602011610d9c575b81610d7f60209383612538565b81010312610d9857610d9361012092612579565b610be6565b8580fd5b3d9150610d72565b6040513d88823e3d90fd5b50905073ffffffffffffffffffffffffffffffffffffffff60208201511673ffffffffffffffffffffffffffffffffffffffff82511660ff60408401511690604051927f232bfdc400000000000000000000000000000000000000000000000000000000845260048401526024830152604482015260808160648173ffffffffffffffffffffffffffffffffffffffff7f0000000000000000000000000000000000000000000000000000000000000000165afa908115610da4578691610e8f575b50602001516fffffffffffffffffffffffffffffffff169085610ae0565b90506080813d608011610f4f575b81610eaa60809383612538565b81010312610d98576040519081608081011067ffffffffffffffff608084011117610f225760609060808301604052610ee281612850565b8352610ef060208201612850565b6020840152610f0160408201612579565b604084015201518060170b8103610f1e5760608201526020610e71565b8680fd5b6024877f4e487b710000000000000000000000000000000000000000000000000000000081526041600452fd5b3d9150610e9d565b9092506020813d602011610f8f575b81610f7360209383612538565b81010312610f8b57610f8490612579565b9138610a7d565b8480fd5b3d9150610f66565b6040513d87823e3d90fd5b602483604051907f6f2354130000000000000000000000000000000000000000000000000000000082526004820152fd5b60046040517fee90c468000000000000000000000000000000000000000000000000000000008152fd5b50346101b457807ffffffffffffffffffffffffffffffffffffffffffffffffffffffffffffffffc3601126101b457602060405173ffffffffffffffffffffffffffffffffffffffff7f0000000000000000000000000000000000000000000000000000000000000000168152f35b50346101b45760207ffffffffffffffffffffffffffffffffffffffffffffffffffffffffffffffffc3601126101b4577face0e51322d77a7556ae0cf8f6528fdd3385e33d2951dc3c9cab391eb76b948c60206004356110ca612eec565b80600355604051908152a180f35b50346101b4576110e73661246f565b6110ef612aca565b8284526007602052604084209173ffffffffffffffffffffffffffffffffffffffff808454163303610fd35783600460037f05813e22a64b0c6f66b71f2d867634beb3c66a5feb2cd379ca2437ea192c8e479601917fffffffffffffffffffffffff000000000000000000000000000000000000000092848616848254161790550191841690825416179055610cc46040519283928390602090939293604083019473ffffffffffffffffffffffffffffffffffffffff809216845216910152565b50346101b45760207ffffffffffffffffffffffffffffffffffffffffffffffffffffffffffffffffc3601126101b45760043567ffffffffffffffff81116101b0576112046101ad91369060040161234a565b906125d9565b50346101b45760207ffffffffffffffffffffffffffffffffffffffffffffffffffffffffffffffffc3601126101b457604061012091600435815260076020522073ffffffffffffffffffffffffffffffffffffffff808254169160ff600182015492600283015490600384015491836005836004880154169601549660405198895283811660208a015260a01c1660408801526fffffffffffffffffffffffffffffffff8116606088015260801c6080870152811660a086015260a01c16151560c084015260e0830152610100820152f35b506101607ffffffffffffffffffffffffffffffffffffffffffffffffffffffffffffffffc3601126101b457611311612322565b9061131a61237b565b366084116101b0573660c4116101b057610104923684116114a25761014436811161149e57359073ffffffffffffffffffffffffffffffffffffffff908183168303610f8b57611368612aca565b61137184612b03565b3460011c60035480821061146757506fffffffffffffffffffffffffffffffff604435818116810361145b5760843582811681036107605760c43590868216820361146357600160ff8a16149a3592878416840361145f57928b86938a936113db968d8b33612b54565b50606435818116810361145b5760a435918216820361145b5760e435928584168403610760576101243595861686036107605734039634881161142e576114259899159433612b54565b50600160025580f35b6024897f4e487b710000000000000000000000000000000000000000000000000000000081526011600452fd5b8780fd5b8a80fd5b8980fd5b60449250604051917f5dac504d00000000000000000000000000000000000000000000000000000000835260048301526024820152fd5b8380fd5b8280fd5b50346101b45760207ffffffffffffffffffffffffffffffffffffffffffffffffffffffffffffffffc3601126101b4576114de612322565b6114e6612eec565b73ffffffffffffffffffffffffffffffffffffffff80911690817fffffffffffffffffffffffff000000000000000000000000000000000000000060015416176001558254167fb9911e2099e372c216862258dc462bb65da46a2c854536c8b1acae619d0d62ed8380a380f35b50346101b4576115623661246f565b61156a612aca565b8284526008602052604084209173ffffffffffffffffffffffffffffffffffffffff808454163303610fd35783600460037f457bb989db79f80ea810085c5e87dc3f6d398d1c357ef12fdf47ad2f8efbb1969601917fffffffffffffffffffffffff000000000000000000000000000000000000000092848616848254161790550191841690825416179055610cc46040519283928390602090939293604083019473ffffffffffffffffffffffffffffffffffffffff809216845216910152565b50346101b45761163b3661241e565b611643612aca565b8183526008602052604083206040519061165c8261251b565b73ffffffffffffffffffffffffffffffffffffffff916006838354169283835260ff6001820154868116602086015260a01c16604084015260028101546fffffffffffffffffffffffffffffffff8116606085015260801c608084015260ff600382015486811660a086015260a01c16151560c08401528460048201541660e0840152846005820154166101008401520154916101208201928352156117b157829051163314158061179a575b610fd3575191824710610cf9578480809381931694855af16117296131a0565b5015610ccf5760207f352426232b87a29640568b27e629c2baa8b3be397819d36fea1f1b2805251ace918385526008825261178b6040862060066000918281558260018201558260028201558260038201558260048201558260058201550155565b604051908152a2600160025580f35b50338552600560205260ff60408620541615611709565b602485604051907f6f2354130000000000000000000000000000000000000000000000000000000082526004820152fd5b50346101b457807ffffffffffffffffffffffffffffffffffffffffffffffffffffffffffffffffc3601126101b45760015473ffffffffffffffffffffffffffffffffffffffff8082163303610fd3577fffffffffffffffffffffffff0000000000000000000000000000000000000000809216600155825491339083161783553391167f3d1e4c3a68fed9f4f8315582b7297cf8fa264bc8e6704287603ba8c72bf05ac28380a380f35b50346101b45761189c3661241e565b6118a4612aca565b818352600760205260408320604051906118bd826124cf565b73ffffffffffffffffffffffffffffffffffffffff91828254169182825260ff6001820154858116602085015260a01c16604083015260028101549060056fffffffffffffffffffffffffffffffff916060850193838116855260801c608086015260ff600382015488811660a088015260a01c16151560c08601528660048201541660e0860152015493610100840194855215611a26578483511633141580611a0f575b610fd35784611997935116915116907f0000000000000000000000000000000000000000000000000000000000000000612fc7565b5191824710610cf9578480809381931694855af16119b36131a0565b5015610ccf5760207f984fa73f12ae98c6efdbd872ad2d735a48bab444aca6db7f5b0a1efdffcbdce8918385526007825261178b6040862060056000918281558260018201558260028201558260038201558260048201550155565b50338852600560205260ff60408920541615611962565b602487604051907f6f2354130000000000000000000000000000000000000000000000000000000082526004820152fd5b50346101b457611a663661241e565b611a6e612aca565b338352600560205260ff60408420541615610fd35781835260076020526040832060405190611a9c826124cf565b600573ffffffffffffffffffffffffffffffffffffffff8254169182845260ff600182015473ffffffffffffffffffffffffffffffffffffffff8116602087015260a01c16604085015260028101546fffffffffffffffffffffffffffffffff8116606086015260801c608085015260ff600382015473ffffffffffffffffffffffffffffffffffffffff811660a087015260a01c16151560c085015273ffffffffffffffffffffffffffffffffffffffff60048201541660e0850152015461010083015215610fa25760208181015160408084015190517f8f233e1700000000000000000000000000000000000000000000000000000000815273ffffffffffffffffffffffffffffffffffffffff909216600483015260ff166024820152929190838060448101038173ffffffffffffffffffffffffffffffffffffffff7f0000000000000000000000000000000000000000000000000000000000000000165afa928315610f97578593611eae575b50611c3b60c082015115158473ffffffffffffffffffffffffffffffffffffffff60a08501511691612f0d565b611cb26fffffffffffffffffffffffffffffffff60608301511673ffffffffffffffffffffffffffffffffffffffff7f0000000000000000000000000000000000000000000000000000000000000000167f0000000000000000000000000000000000000000000000000000000000000000612fc7565b60045490602073ffffffffffffffffffffffffffffffffffffffff818301511660a473ffffffffffffffffffffffffffffffffffffffff845116918960ff604087015116966fffffffffffffffffffffffffffffffff6060880151166fffffffffffffffffffffffffffffffff60808901511690604051998a9788967f2a5a2cca0000000000000000000000000000000000000000000000000000000088526004880152602487015260448601526064850152608484015273ffffffffffffffffffffffffffffffffffffffff7f00000000000000000000000000000000000000000000000000000000000000001690f1918215610da4578692611e6d575b50611de36101009260ff6040840151169073ffffffffffffffffffffffffffffffffffffffff60e085015116916130c9565b0151804710610cf957848080809373ffffffffffffffffffffffffffffffffffffffff86165af1611e126131a0565b5015610ccf577f32e1f893df12b36e043dac8c88d2207cf0adc4457187ff49529e74417bad8275918385526007602052610c986040862060056000918281558260018201558260028201558260038201558260048201550155565b91506020823d602011611ea6575b81611e8860209383612538565b81010312610d9857611de3611e9f61010093612579565b9250611db1565b3d9150611e7b565b9092506020813d602011611ee2575b81611eca60209383612538565b81010312610f8b57611edb90612579565b9138611c0e565b3d9150611ebd565b50346101b45760407ffffffffffffffffffffffffffffffffffffffffffffffffffffffffffffffffc3601126101b457611f22612322565b602435908115158092036114a257602073ffffffffffffffffffffffffffffffffffffffff7f9e796433c770c70b207650b57cd6f20fdb8641d7c85d50ced2dd338cee4f158392611f71612eec565b169283855260058252604085207fffffffffffffffffffffffffffffffffffffffffffffffffffffffffffffff0081541660ff8316179055604051908152a280f35b50346101b457807ffffffffffffffffffffffffffffffffffffffffffffffffffffffffffffffffc3601126101b4576020600654604051908152f35b506101007ffffffffffffffffffffffffffffffffffffffffffffffffffffffffffffffffc3601126101b457612023612322565b9061202c61237b565b61203461238b565b61203c6123aa565b6120446123c9565b9061204d61240f565b926120566123ec565b9460e4359673ffffffffffffffffffffffffffffffffffffffff881688036101b45750612081612aca565b61208a81612b03565b6003548034106107645760206120a98a8a8a8a8a8a8a8a349733612b54565b6001600255604051908152f35b50346101b457807ffffffffffffffffffffffffffffffffffffffffffffffffffffffffffffffffc3601126101b4576020600354604051908152f35b50346101b45760407ffffffffffffffffffffffffffffffffffffffffffffffffffffffffffffffffc3601126101b45767ffffffffffffffff6004358181116114a25761214390369060040161234a565b9060243592831161149e5761216a6121626101ad94369060040161234a565b9390926125d9565b6128c9565b50346101b457807ffffffffffffffffffffffffffffffffffffffffffffffffffffffffffffffffc3601126101b457602060405173ffffffffffffffffffffffffffffffffffffffff7f0000000000000000000000000000000000000000000000000000000000000000168152f35b50346101b457807ffffffffffffffffffffffffffffffffffffffffffffffffffffffffffffffffc3601126101b4576020600454604051908152f35b50346101b457807ffffffffffffffffffffffffffffffffffffffffffffffffffffffffffffffffc3601126101b457602073ffffffffffffffffffffffffffffffffffffffff60015416604051908152f35b50346101b457807ffffffffffffffffffffffffffffffffffffffffffffffffffffffffffffffffc3601126101b45773ffffffffffffffffffffffffffffffffffffffff6020915416604051908152f35b9050346101b05760207ffffffffffffffffffffffffffffffffffffffffffffffffffffffffffffffffc3601126101b05760ff604060209373ffffffffffffffffffffffffffffffffffffffff612312612322565b1681526005855220541615158152f35b6004359073ffffffffffffffffffffffffffffffffffffffff8216820361234557565b600080fd5b9181601f840112156123455782359167ffffffffffffffff8311612345576020808501948460051b01011161234557565b6024359060ff8216820361234557565b604435906fffffffffffffffffffffffffffffffff8216820361234557565b606435906fffffffffffffffffffffffffffffffff8216820361234557565b6084359073ffffffffffffffffffffffffffffffffffffffff8216820361234557565b60c4359073ffffffffffffffffffffffffffffffffffffffff8216820361234557565b60a43590811515820361234557565b7ffffffffffffffffffffffffffffffffffffffffffffffffffffffffffffffffc6040910112612345576004359060243573ffffffffffffffffffffffffffffffffffffffff811681036123455790565b7ffffffffffffffffffffffffffffffffffffffffffffffffffffffffffffffffc6060910112612345576004359073ffffffffffffffffffffffffffffffffffffffff906024358281168103612345579160443590811681036123455790565b610120810190811067ffffffffffffffff8211176124ec57604052565b7f4e487b7100000000000000000000000000000000000000000000000000000000600052604160045260246000fd5b610140810190811067ffffffffffffffff8211176124ec57604052565b90601f7fffffffffffffffffffffffffffffffffffffffffffffffffffffffffffffffe0910116810190811067ffffffffffffffff8211176124ec57604052565b519073ffffffffffffffffffffffffffffffffffffffff8216820361234557565b91908110156125aa5760051b0190565b7f4e487b7100000000000000000000000000000000000000000000000000000000600052603260045260246000fd5b91907f00000000000000000000000000000000000000000000000000000000000000009060005b81811061260e575050509050565b61261981838761259a565b35612622612aca565b8060005260076020918183526040928360002093805193612642856124cf565b73ffffffffffffffffffffffffffffffffffffffff8087541680875260019788810154838116878a015260ff938460a092831c16878b01526002998a84015493866fffffffffffffffffffffffffffffffff9460608401968681168852608090811c90850152600383015490858216818601521c16151560c083015260049683888301541660e0840152600580920154966101008401978852156128215733848451161415918261280a575b50506127e25751925161270593921691168d612fc7565b518047106127b357600080808093335af161271e6131a0565b501561278c5750917f984fa73f12ae98c6efdbd872ad2d735a48bab444aca6db7f5b0a1efdffcbdce891849360019897969560005282526127808160002060056000918281558260018201558260028201558260038201558260048201550155565b51338152a25501612600565b82517f1425ea42000000000000000000000000000000000000000000000000000000008152fd5b83517fcd7860590000000000000000000000000000000000000000000000000000000081523081840152602490fd5b8588517fee90c468000000000000000000000000000000000000000000000000000000008152fd5b909150336000528a528860002054161538806126ee565b6024888d8c51917f6f235413000000000000000000000000000000000000000000000000000000008352820152fd5b51906fffffffffffffffffffffffffffffffff8216820361234557565b7fffffffffffffffffffffffffffffffffffffffffffffffffffffffffffffffff811461289a5760010190565b7f4e487b7100000000000000000000000000000000000000000000000000000000600052601160045260246000fd5b6000915b8083106128d957505050565b6128e783828495969461259a565b35936128f1612aca565b8460005260089460209580875260409182600020928051926129128461251b565b73ffffffffffffffffffffffffffffffffffffffff8086541680865260019687810154968d8489169082015260ff908160a0998a1c1687820152816002998a8501546fffffffffffffffffffffffffffffffff81166060850152608090811c90840152600385015490878216818501521c16151560c082015260049480868501541660e08301526006600594828682015416610100850152015494610120830195865215612a9b573391511614159182612a84575b5050612a5c57518047106127b357600080808093335af16129e66131a0565b501561278c5750987f352426232b87a29640568b27e629c2baa8b3be397819d36fea1f1b2805251ace9160019798999a846000528252612a4d8160002060066000918281558260018201558260028201558260038201558260048201558260058201550155565b51338152a255019192906128cd565b5082517fee90c468000000000000000000000000000000000000000000000000000000008152fd5b909150336000528d528460002054161538806129c7565b6024868a8a51917f6f235413000000000000000000000000000000000000000000000000000000008352820152fd5b6002805414612ad95760028055565b60046040517f3ee5aeb5000000000000000000000000000000000000000000000000000000008152fd5b60ff16600181141580612b49575b612b185750565b602490604051907f7006e8950000000000000000000000000000000000000000000000000000000082526004820152fd5b506002811415612b11565b9499989397929996919695909560065498612b6e8a61286d565b600655899b60405197612b808961251b565b73ffffffffffffffffffffffffffffffffffffffff169889895273ffffffffffffffffffffffffffffffffffffffff16998a60208a015260ff16978860408201526fffffffffffffffffffffffffffffffff821660608201526fffffffffffffffffffffffffffffffff8316608082015273ffffffffffffffffffffffffffffffffffffffff841660a082015284151560c082015273ffffffffffffffffffffffffffffffffffffffff861660e082015273ffffffffffffffffffffffffffffffffffffffff871661010082015261012081018881528c6000526008602052604060002091805173ffffffffffffffffffffffffffffffffffffffff167fffffffffffffffffffffffff0000000000000000000000000000000000000000908185541617845560018401602083015173ffffffffffffffffffffffffffffffffffffffff1682825416178155604083015160ff16612d1e91907fffffffffffffffffffffff00ffffffffffffffffffffffffffffffffffffffff74ff000000000000000000000000000000000000000083549260a01b169116179055565b6060820151608080840151901b7fffffffffffffffffffffffffffffffff00000000000000000000000000000000166fffffffffffffffffffffffffffffffff9091161760028501556003840160a083015173ffffffffffffffffffffffffffffffffffffffff168282541617815560c08301511515612de091907fffffffffffffffffffffff00ffffffffffffffffffffffffffffffffffffffff74ff0000000000000000000000000000000000000000835492151560a01b169116179055565b6004840160e083015173ffffffffffffffffffffffffffffffffffffffff16828254161790556005840191610100015173ffffffffffffffffffffffffffffffffffffffff16908254161790555190600601556040519788526fffffffffffffffffffffffffffffffff1660208801526fffffffffffffffffffffffffffffffff16604087015273ffffffffffffffffffffffffffffffffffffffff1660608601521515608085015273ffffffffffffffffffffffffffffffffffffffff1660a084015273ffffffffffffffffffffffffffffffffffffffff1660c083015260e08201526101007f1c793446809d07ba2f6a48e1e634e6ecd28227b454018efd11da53b7432e103f91a4565b73ffffffffffffffffffffffffffffffffffffffff600054163303610fd357565b8080612fa4575b8115612f73575b50612f24575050565b6040517fe5d8c52e00000000000000000000000000000000000000000000000000000000815273ffffffffffffffffffffffffffffffffffffffff918216600482015291166024820152604490fd5b90501580612f82575b38612f1b565b5073ffffffffffffffffffffffffffffffffffffffff80831690821611612f7c565b73ffffffffffffffffffffffffffffffffffffffff848116908416109150612f14565b9190916040519260208401927fa9059cbb00000000000000000000000000000000000000000000000000000000845273ffffffffffffffffffffffffffffffffffffffff8092166024860152604485015260448452608084019184831067ffffffffffffffff8411176124ec57613058926040521692600080938192519082875af16130516131a0565b90846131fe565b9081519182151592836130a1575b5050506130705750565b602490604051907f5274afe70000000000000000000000000000000000000000000000000000000082526004820152fd5b8192935090602091810103126101b05760200151908115918215036101b45750388080613066565b60ff16600181149081613169575b8115613136575b506130e7575050565b6040517f7405791000000000000000000000000000000000000000000000000000000000815273ffffffffffffffffffffffffffffffffffffffff918216600482015291166024820152604490fd5b600291501480613147575b386130de565b5073ffffffffffffffffffffffffffffffffffffffff80831690821610613141565b73ffffffffffffffffffffffffffffffffffffffff8481169084161191506130d7565b60ff1660010361319b57600290565b600190565b3d156131f9573d9067ffffffffffffffff82116124ec57604051916131ed60207fffffffffffffffffffffffffffffffffffffffffffffffffffffffffffffffe0601f8401160184612538565b82523d6000602084013e565b606090565b906132135750805115610ccf57805190602001fd5b8151158061326b575b613224575090565b60249073ffffffffffffffffffffffffffffffffffffffff604051917f9996b315000000000000000000000000000000000000000000000000000000008352166004820152fd5b50803b1561321c56fea264697066735822122016427c59c4ae1ce33ea2c3fd9aebd4e1b1bc584719cb6c492b425ecf3698319964736f6c63430008170033",
  "linkReferences": {},
  "deployedLinkReferences": {}
}