{
  "_format": "hh-sol-artifact-1",
  "contractName": "MixedExecutorV2",
  "sourceName": "contracts/misc/MixedExecutorV2.sol",
  "abi": [
    {
      "inputs": [
        {
          "internalType": "contract Router",
          "name": "_router",
          "type": "address"
        },
        {
          "internalType": "contract MarketIndexer",
          "name": "_marketIndexer",
          "type": "address"
        },
        {
          "internalType": "contract ILiquidator",
          "name": "_liquidator",
          "type": "address"
        },
        {
          "internalType": "contract IPositionRouter",
          "name": "_positionRouter",
          "type": "address"
        },
        {
          "internalType": "contract IPythPriceFeed",
          "name": "_pythPriceFeed",
          "type": "address"
        },
        {
          "internalType": "contract IPythAdaptor",
          "name": "_pythAdaptor",
          "type": "address"
        },
        {
          "internalType": "contract IOrderBook",
          "name": "_orderBook",
          "type": "address"
        },
        {
          "internalType": "contract IMarketManager",
          "name": "_marketManager",
          "type": "address"
        }
      ],
      "stateMutability": "nonpayable",
      "type": "constructor"
    },
    {
      "inputs": [
        {
          "internalType": "address",
          "name": "target",
          "type": "address"
        }
      ],
      "name": "AddressEmptyCode",
      "type": "error"
    },
    {
      "inputs": [
        {
          "internalType": "bytes",
          "name": "reason",
          "type": "bytes"
        }
      ],
      "name": "ExecutionFailed",
      "type": "error"
    },
    {
      "inputs": [],
      "name": "FailedInnerCall",
      "type": "error"
    },
    {
      "inputs": [],
      "name": "Forbidden",
      "type": "error"
    },
    {
      "anonymous": false,
      "inputs": [
        {
          "indexed": true,
          "internalType": "address",
          "name": "previousGov",
          "type": "address"
        },
        {
          "indexed": true,
          "internalType": "address",
          "name": "newGov",
          "type": "address"
        }
      ],
      "name": "ChangeGovStarted",
      "type": "event"
    },
    {
      "anonymous": false,
      "inputs": [
        {
          "indexed": true,
          "internalType": "uint256",
          "name": "orderIndex",
          "type": "uint256"
        },
        {
          "indexed": false,
          "internalType": "bytes4",
          "name": "shortenedReason1",
          "type": "bytes4"
        },
        {
          "indexed": false,
          "internalType": "bytes4",
          "name": "shortenedReason2",
          "type": "bytes4"
        }
      ],
      "name": "DecreaseOrderCancelFailed",
      "type": "event"
    },
    {
      "anonymous": false,
      "inputs": [
        {
          "indexed": true,
          "internalType": "uint256",
          "name": "orderIndex",
          "type": "uint256"
        },
        {
          "indexed": false,
          "internalType": "bytes4",
          "name": "shortenedReason",
          "type": "bytes4"
        }
      ],
      "name": "DecreaseOrderCancelSucceeded",
      "type": "event"
    },
    {
      "anonymous": false,
      "inputs": [
        {
          "indexed": true,
          "internalType": "uint256",
          "name": "orderIndex",
          "type": "uint256"
        }
      ],
      "name": "DecreaseOrderExecuteFailed",
      "type": "event"
    },
    {
      "anonymous": false,
      "inputs": [
        {
          "indexed": true,
          "internalType": "address",
          "name": "executor",
          "type": "address"
        },
        {
          "indexed": true,
          "internalType": "bool",
          "name": "active",
          "type": "bool"
        }
      ],
      "name": "ExecutorUpdated",
      "type": "event"
    },
    {
      "anonymous": false,
      "inputs": [
        {
          "indexed": true,
          "internalType": "address",
          "name": "previousGov",
          "type": "address"
        },
        {
          "indexed": true,
          "internalType": "address",
          "name": "newGov",
          "type": "address"
        }
      ],
      "name": "GovChanged",
      "type": "event"
    },
    {
      "anonymous": false,
      "inputs": [
        {
          "indexed": true,
          "internalType": "uint256",
          "name": "orderIndex",
          "type": "uint256"
        },
        {
          "indexed": false,
          "internalType": "bytes4",
          "name": "shortenedReason1",
          "type": "bytes4"
        },
        {
          "indexed": false,
          "internalType": "bytes4",
          "name": "shortenedReason2",
          "type": "bytes4"
        }
      ],
      "name": "IncreaseOrderCancelFailed",
      "type": "event"
    },
    {
      "anonymous": false,
      "inputs": [
        {
          "indexed": true,
          "internalType": "uint256",
          "name": "orderIndex",
          "type": "uint256"
        },
        {
          "indexed": false,
          "internalType": "bytes4",
          "name": "shortenedReason",
          "type": "bytes4"
        }
      ],
      "name": "IncreaseOrderCancelSucceeded",
      "type": "event"
    },
    {
      "anonymous": false,
      "inputs": [
        {
          "indexed": true,
          "internalType": "uint256",
          "name": "orderIndex",
          "type": "uint256"
        }
      ],
      "name": "IncreaseOrderExecuteFailed",
      "type": "event"
    },
    {
      "anonymous": false,
      "inputs": [
        {
          "indexed": true,
          "internalType": "contract IMarketDescriptor",
          "name": "market",
          "type": "address"
        },
        {
          "indexed": false,
          "internalType": "address",
          "name": "account",
          "type": "address"
        },
        {
          "indexed": false,
          "internalType": "bytes4",
          "name": "shortenedReason",
          "type": "bytes4"
        }
      ],
      "name": "LiquidateLiquidityPositionFailed",
      "type": "event"
    },
    {
      "anonymous": false,
      "inputs": [
        {
          "indexed": true,
          "internalType": "contract IMarketDescriptor",
          "name": "market",
          "type": "address"
        },
        {
          "indexed": true,
          "internalType": "address",
          "name": "account",
          "type": "address"
        },
        {
          "indexed": true,
          "internalType": "Side",
          "name": "side",
          "type": "uint8"
        },
        {
          "indexed": false,
          "internalType": "bytes4",
          "name": "shortenedReason",
          "type": "bytes4"
        }
      ],
      "name": "LiquidatePositionFailed",
      "type": "event"
    },
    {
      "inputs": [],
      "name": "acceptGov",
      "outputs": [],
      "stateMutability": "nonpayable",
      "type": "function"
    },
    {
      "inputs": [],
      "name": "cancelOrderIfFailedStatus",
      "outputs": [
        {
          "internalType": "bool",
          "name": "",
          "type": "bool"
        }
      ],
      "stateMutability": "view",
      "type": "function"
    },
    {
      "inputs": [
        {
          "internalType": "address",
          "name": "_newGov",
          "type": "address"
        }
      ],
      "name": "changeGov",
      "outputs": [],
      "stateMutability": "nonpayable",
      "type": "function"
    },
    {
      "inputs": [
        {
          "internalType": "PackedValue",
          "name": "_packedValue",
          "type": "uint256"
        }
      ],
      "name": "collectProtocolFeeBatch",
      "outputs": [],
      "stateMutability": "nonpayable",
      "type": "function"
    },
    {
      "inputs": [
        {
          "internalType": "uint128",
          "name": "_endIndex",
          "type": "uint128"
        }
      ],
      "name": "executeDecreaseLiquidityPositions",
      "outputs": [],
      "stateMutability": "nonpayable",
      "type": "function"
    },
    {
      "inputs": [
        {
          "internalType": "PackedValue",
          "name": "_packedValue",
          "type": "uint256"
        }
      ],
      "name": "executeDecreaseOrder",
      "outputs": [],
      "stateMutability": "nonpayable",
      "type": "function"
    },
    {
      "inputs": [
        {
          "internalType": "uint128",
          "name": "_endIndex",
          "type": "uint128"
        }
      ],
      "name": "executeDecreasePositions",
      "outputs": [],
      "stateMutability": "nonpayable",
      "type": "function"
    },
    {
      "inputs": [
        {
          "internalType": "uint128",
          "name": "_endIndex",
          "type": "uint128"
        }
      ],
      "name": "executeIncreaseLiquidityPositions",
      "outputs": [],
      "stateMutability": "nonpayable",
      "type": "function"
    },
    {
      "inputs": [
        {
          "internalType": "PackedValue",
          "name": "_packedValue",
          "type": "uint256"
        }
      ],
      "name": "executeIncreaseOrder",
      "outputs": [],
      "stateMutability": "nonpayable",
      "type": "function"
    },
    {
      "inputs": [
        {
          "internalType": "uint128",
          "name": "_endIndex",
          "type": "uint128"
        }
      ],
      "name": "executeIncreasePositions",
      "outputs": [],
      "stateMutability": "nonpayable",
      "type": "function"
    },
    {
      "inputs": [
        {
          "internalType": "address",
          "name": "",
          "type": "address"
        }
      ],
      "name": "executors",
      "outputs": [
        {
          "internalType": "bool",
          "name": "",
          "type": "bool"
        }
      ],
      "stateMutability": "view",
      "type": "function"
    },
    {
      "inputs": [],
      "name": "feeReceiver",
      "outputs": [
        {
          "internalType": "address payable",
          "name": "",
          "type": "address"
        }
      ],
      "stateMutability": "view",
      "type": "function"
    },
    {
      "inputs": [],
      "name": "gov",
      "outputs": [
        {
          "internalType": "address",
          "name": "",
          "type": "address"
        }
      ],
      "stateMutability": "view",
      "type": "function"
    },
    {
      "inputs": [
        {
          "internalType": "PackedValue",
          "name": "_packedValue",
          "type": "uint256"
        }
      ],
      "name": "liquidateLiquidityPosition",
      "outputs": [],
      "stateMutability": "nonpayable",
      "type": "function"
    },
    {
      "inputs": [
        {
          "internalType": "PackedValue",
          "name": "_packedValue",
          "type": "uint256"
        }
      ],
      "name": "liquidatePosition",
      "outputs": [],
      "stateMutability": "nonpayable",
      "type": "function"
    },
    {
      "inputs": [],
      "name": "liquidator",
      "outputs": [
        {
          "internalType": "contract ILiquidator",
          "name": "",
          "type": "address"
        }
      ],
      "stateMutability": "view",
      "type": "function"
    },
    {
      "inputs": [],
      "name": "marketIndexer",
      "outputs": [
        {
          "internalType": "contract MarketIndexer",
          "name": "",
          "type": "address"
        }
      ],
      "stateMutability": "view",
      "type": "function"
    },
    {
      "inputs": [],
      "name": "marketManager",
      "outputs": [
        {
          "internalType": "contract IMarketManager",
          "name": "",
          "type": "address"
        }
      ],
      "stateMutability": "view",
      "type": "function"
    },
    {
      "inputs": [
        {
          "internalType": "bytes[]",
          "name": "data",
          "type": "bytes[]"
        }
      ],
      "name": "multicall",
      "outputs": [
        {
          "internalType": "bytes[]",
          "name": "results",
          "type": "bytes[]"
        }
      ],
      "stateMutability": "nonpayable",
      "type": "function"
    },
    {
      "inputs": [],
      "name": "orderBook",
      "outputs": [
        {
          "internalType": "contract IOrderBook",
          "name": "",
          "type": "address"
        }
      ],
      "stateMutability": "view",
      "type": "function"
    },
    {
      "inputs": [],
      "name": "pendingGov",
      "outputs": [
        {
          "internalType": "address",
          "name": "",
          "type": "address"
        }
      ],
      "stateMutability": "view",
      "type": "function"
    },
    {
      "inputs": [],
      "name": "positionRouter",
      "outputs": [
        {
          "internalType": "contract IPositionRouter",
          "name": "",
          "type": "address"
        }
      ],
      "stateMutability": "view",
      "type": "function"
    },
    {
      "inputs": [],
      "name": "pythAdaptor",
      "outputs": [
        {
          "internalType": "contract IPythAdaptor",
          "name": "",
          "type": "address"
        }
      ],
      "stateMutability": "view",
      "type": "function"
    },
    {
      "inputs": [],
      "name": "pythPriceFeed",
      "outputs": [
        {
          "internalType": "contract IPythPriceFeed",
          "name": "",
          "type": "address"
        }
      ],
      "stateMutability": "view",
      "type": "function"
    },
    {
      "inputs": [],
      "name": "router",
      "outputs": [
        {
          "internalType": "contract Router",
          "name": "",
          "type": "address"
        }
      ],
      "stateMutability": "view",
      "type": "function"
    },
    {
      "inputs": [
        {
          "internalType": "PackedValue",
          "name": "_packedValue",
          "type": "uint256"
        }
      ],
      "name": "sampleAndAdjustFundingRateBatch",
      "outputs": [],
      "stateMutability": "nonpayable",
      "type": "function"
    },
    {
      "inputs": [
        {
          "internalType": "bool",
          "name": "_cancelOrderIfFailedStatus",
          "type": "bool"
        }
      ],
      "name": "setCancelOrderIfFailedStatus",
      "outputs": [],
      "stateMutability": "nonpayable",
      "type": "function"
    },
    {
      "inputs": [
        {
          "internalType": "address",
          "name": "_executor",
          "type": "address"
        },
        {
          "internalType": "bool",
          "name": "_active",
          "type": "bool"
        }
      ],
      "name": "setExecutor",
      "outputs": [],
      "stateMutability": "nonpayable",
      "type": "function"
    },
    {
      "inputs": [
        {
          "internalType": "address payable",
          "name": "_receiver",
          "type": "address"
        }
      ],
      "name": "setFeeReceiver",
      "outputs": [],
      "stateMutability": "nonpayable",
      "type": "function"
    },
    {
      "inputs": [
        {
          "internalType": "PackedValue[]",
          "name": "_packedPythPrices",
          "type": "uint256[]"
        },
        {
          "internalType": "PackedValue[]",
          "name": "_packedPrices",
          "type": "uint256[]"
        },
        {
          "internalType": "PackedValue",
          "name": "_packedMinPublishTimes",
          "type": "uint256"
        },
        {
          "internalType": "bytes32",
          "name": "_encodedVaas",
          "type": "bytes32"
        }
      ],
      "name": "setPriceX96s",
      "outputs": [],
      "stateMutability": "nonpayable",
      "type": "function"
    }
  ],
  "bytecode": "0x61018034620001fb5762002b0b38819003601f8101601f191683016001600160401b03811184821017620002005783928291604052833961010092839181010312620001fb5780516001600160a01b03918282168203620001fb5760208101518381168103620001fb5760408201518481168103620001fb5760608301518581168103620001fb576080840151918683168303620001fb5760a0850151938785168503620001fb5760c0860151958887168703620001fb5760e00151968888168803620001fb576000543360018060a01b0319821617600055604051993391167f3d1e4c3a68fed9f4f8315582b7297cf8fa264bc8e6704287603ba8c72bf05ac2600080a36003805460ff60a01b1916600160a01b17905560805260a05260c05260e05285526101209081526101409182526101609283526128f4948562000217863960805185818161070b015261146c015260a05185818161026201528181610b4b01528181610daf0152818161149001528181611ca20152611f13015260c051858181610df301528181611ad30152611cde015260e0518581816107a80152818161090301528181611013015281816118bd01526119a6015251848181610329015261164f01525183818161029401526116bd0152518281816117dc0152818161216001526124ef015251818181610b270152611a650152f35b600080fd5b634e487b7160e01b600052604160045260246000fdfe60806040908082526004918236101561001757600080fd5b600091823560e01c90816213094414611ec95750806312d43a5114611e79578063159b641c14611c0b5780631e1bff3f14611b495780632524081014611af75780634046ebae14611a8957806341ed2c1214611a1b5780635eefc95c146119ca57806361ef161f1461195c5780636bd86199146118445780636d57211714611800578063776af5ba146117925780637bc6729b146116e157806395c4892d1461167357806396276e4f146116055780639ac2a0111461159f578063a4008e04146113f2578063a962ef1e14611345578063ac9650d814611104578063b3f00674146110b2578063be93738614610f9a578063cdddd4e514610d19578063efdcd97414610c95578063f00e9ebf14610aad578063f3c74ed414610a33578063f6116bbe146109a2578063f65d21d51461088a578063f6b0a7231461072f578063f887ea40146106c15763ffc397c51461016e57600080fd5b346106bd5760807ffffffffffffffffffffffffffffffffffffffffffffffffffffffffffffffffc3601126106bd5767ffffffffffffffff9083358281116106b9576101bd9036908601611f5a565b9094602480358581116106b5576101d79036908401611f5a565b959091604435913389526020976002895260ff888b2054161561068d5791610201839b979b61244f565b9261020e89519485612050565b8084527fffffffffffffffffffffffffffffffffffffffffffffffffffffffffffffffe061023b8261244f565b018b5b81811061065f5750508a9073ffffffffffffffffffffffffffffffffffffffff96877f000000000000000000000000000000000000000000000000000000000000000016925b82811061058457505050505088847f0000000000000000000000000000000000000000000000000000000000000000169a8b89519889927f3a90bbb1000000000000000000000000000000000000000000000000000000008452806064850160608c870152526084840191908d86905b828210610561575050505083838092878a166024830152606435604483015203925af19586156105575789966104c5575b50837f00000000000000000000000000000000000000000000000000000000000000001692833b156104c1579189939189959389519687957f4c6f0df60000000000000000000000000000000000000000000000000000000087528b6044880191818c8a015286518093528360648a019701938a925b84841061048a579150508896935089959250869491501c16602483015203925af180156104805790869161046c575b5050853b1561046857928251937f4c44799c00000000000000000000000000000000000000000000000000000000855281602486019186015282518091528160448601930191865b8281106104545750505050828495818681819503925af190811561044b57506104385750f35b61044190611ff1565b6104485780f35b80fd5b513d84823e3d90fd5b835185529381019392810192600101610412565b8480fd5b61047590611ff1565b6104685784386103ca565b84513d88823e3d90fd5b9160019497999b50859a50818196999294979951828151168452015116838201520197019201928d97959389979593928e8e61039b565b8980fd5b9095503d808a833e6104d78183612050565b81019088818303126104c15780519087821161055357019080601f830112156104c15781516105058161244f565b926105128a519485612050565b8184528a8085019260051b82010192831161054f578a809101915b83831061053f57505050509438610325565b82518152918101918b910161052d565b8b80fd5b8a80fd5b87513d8b823e3d90fd5b92809750839296506001949195503581520194019101928d918a938e958e6102f4565b62ffffff9a9e9a610596828585612753565b35168c51907ff1f6c0e70000000000000000000000000000000000000000000000000000000082528b8201528d818781885afa90811561065357908f8f8f91936001959493610624575b508c806105ee868a8a612753565b3560181c169251936105ff85612034565b16835282015261060f828a612467565b5261061a8189612467565b50019d999d610284565b816106459294503d851161064c575b61063d8183612050565b810190612091565b91386105e0565b503d610633565b8f8e51903d90823e3d90fd5b8b908d9a9e9a8c959495519061067482612034565b80825283820152828289010152019c989c92919261023e565b8588517fee90c468000000000000000000000000000000000000000000000000000000008152fd5b8680fd5b8380fd5b5080fd5b50346106bd57817ffffffffffffffffffffffffffffffffffffffffffffffffffffffffffffffffc3601126106bd576020905173ffffffffffffffffffffffffffffffffffffffff7f0000000000000000000000000000000000000000000000000000000000000000168152f35b50346106bd5760207ffffffffffffffffffffffffffffffffffffffffffffffffffffffffffffffffc3601126106bd578235906fffffffffffffffffffffffffffffffff8216820361088657338352600260205260ff81842054161561085e57829373ffffffffffffffffffffffffffffffffffffffff7f0000000000000000000000000000000000000000000000000000000000000000166107d0612763565b90803b1561085a57610847948680948651978895869485937f7a4fe28c000000000000000000000000000000000000000000000000000000008552840190929173ffffffffffffffffffffffffffffffffffffffff6020916fffffffffffffffffffffffffffffffff604085019616845216910152565b03925af190811561044b57506104385750f35b8580fd5b8390517fee90c468000000000000000000000000000000000000000000000000000000008152fd5b8280fd5b50346106bd5760207ffffffffffffffffffffffffffffffffffffffffffffffffffffffffffffffffc3601126106bd578235906fffffffffffffffffffffffffffffffff8216820361088657338352600260205260ff81842054161561085e57829373ffffffffffffffffffffffffffffffffffffffff7f00000000000000000000000000000000000000000000000000000000000000001661092b612763565b90803b1561085a57610847948680948651978895869485937fe03d62ae000000000000000000000000000000000000000000000000000000008552840190929173ffffffffffffffffffffffffffffffffffffffff6020916fffffffffffffffffffffffffffffffff604085019616845216910152565b8284346106bd5760207ffffffffffffffffffffffffffffffffffffffffffffffffffffffffffffffffc3601126106bd5735801515809103610a2e576109e66127d3565b7fffffffffffffffffffffff00ffffffffffffffffffffffffffffffffffffffff74ff00000000000000000000000000000000000000006003549260a01b1691161760035580f35b600080fd5b508290346108865760207ffffffffffffffffffffffffffffffffffffffffffffffffffffffffffffffffc36011261088657338352600260205260ff818420541615610a875750610a8490356124aa565b80f35b517fee90c468000000000000000000000000000000000000000000000000000000008152fd5b508290346108865760209160207ffffffffffffffffffffffffffffffffffffffffffffffffffffffffffffffffc3601126106b957803591338552600260205260ff9360ff828720541615610c6e5760ff8460f01c1690600a82116106b557909373ffffffffffffffffffffffffffffffffffffffff91907f00000000000000000000000000000000000000000000000000000000000000008316907f0000000000000000000000000000000000000000000000000000000000000000841690895b888a821610610b7c578a80f35b8a87517ff1f6c0e700000000000000000000000000000000000000000000000000000000815262ffffff848d60188602161c168a820152602487828281895afa918215610c64578392610c45575b50863b156108865789517fa440fef90000000000000000000000000000000000000000000000000000000081529189168b8301528290829081838a5af18015610c3b57908c939291610c22575b505060010116610b6f565b610c2e91929350611ff1565b6105535789908b8d610c17565b89513d84823e3d90fd5b610c5d919250883d8a1161064c5761063d8183612050565b908e610bca565b8a513d85823e3d90fd5b50517fee90c468000000000000000000000000000000000000000000000000000000008152fd5b8284346106bd5760207ffffffffffffffffffffffffffffffffffffffffffffffffffffffffffffffffc3601126106bd573573ffffffffffffffffffffffffffffffffffffffff81168091036106bd57610ced6127d3565b7fffffffffffffffffffffffff0000000000000000000000000000000000000000600354161760035580f35b508234610886576020807ffffffffffffffffffffffffffffffffffffffffffffffffffffffffffffffffc3601126106b9578135903385526002815260ff848620541615610f725773ffffffffffffffffffffffffffffffffffffffff938051927ff1f6c0e700000000000000000000000000000000000000000000000000000000845262ffffff8116858501528284602481897f0000000000000000000000000000000000000000000000000000000000000000165afa938415610f68578794610f49575b50858160181c169460ff8260b81c169688817f000000000000000000000000000000000000000000000000000000000000000016610e1b612763565b97813b156108865782918488519586937fb9e89222000000000000000000000000000000000000000000000000000000008552169a8b888501528c60248501528d604485015216606483015281835a92608493f19182610f31575b5050610f2757600180610e876120bd565b9360c01c1614610ee95750907fffffffff00000000000000000000000000000000000000000000000000000000610edf7fe3726294ba7279bebe1906ed7d67cad6ab9093dd50d8b348e886839a5ce0298d9493612789565b915191168152a480f35b9190610f2391519384937f15fcd6750000000000000000000000000000000000000000000000000000000085528401526024830190611fae565b0390fd5b5050505050505080f35b610f3a90611ff1565b610f4557888a610e76565b8880fd5b610f61919450833d851161064c5761063d8183612050565b9287610ddf565b82513d89823e3d90fd5b8284517fee90c468000000000000000000000000000000000000000000000000000000008152fd5b50346106bd5760207ffffffffffffffffffffffffffffffffffffffffffffffffffffffffffffffffc3601126106bd578235906fffffffffffffffffffffffffffffffff8216820361088657338352600260205260ff81842054161561085e57829373ffffffffffffffffffffffffffffffffffffffff7f00000000000000000000000000000000000000000000000000000000000000001661103b612763565b90803b1561085a57610847948680948651978895869485937f890143c5000000000000000000000000000000000000000000000000000000008552840190929173ffffffffffffffffffffffffffffffffffffffff6020916fffffffffffffffffffffffffffffffff604085019616845216910152565b50346106bd57817ffffffffffffffffffffffffffffffffffffffffffffffffffffffffffffffffc3601126106bd5760209073ffffffffffffffffffffffffffffffffffffffff600354169051908152f35b5091346106bd57602091827ffffffffffffffffffffffffffffffffffffffffffffffffffffffffffffffffc3601126104485767ffffffffffffffff8235818111610886576111569036908501611f5a565b9190938651908682019082821084831117611317575080885284825261117b8461244f565b9561118889519788612050565b8487527fffffffffffffffffffffffffffffffffffffffffffffffffffffffffffffffe06111b58661244f565b0188875b82811061130757505050855b8581106112495750505050505083519280840190808552835180925280868601968360051b870101940192955b8287106111ff5785850386f35b909192938280611239837fffffffffffffffffffffffffffffffffffffffffffffffffffffffffffffffc08a600196030186528851611fae565b96019201960195929190926111f2565b8060051b8201357fffffffffffffffffffffffffffffffffffffffffffffffffffffffffffffffe183360301811215611303578201803590868211610f45578a01908036038213610f45578880600194936112c78f8f6112e7968c8c6112d3945195838794868601998a37840191858301938a855251938491611f8b565b01038084520182612050565b5190305af46112e06120bd565b903061281e565b6112f1828b612467565b526112fc818a612467565b50016111c5565b8780fd5b606082828c0101520189906111b9565b6041907f4e487b71000000000000000000000000000000000000000000000000000000006000525260246000fd5b82346104485760207ffffffffffffffffffffffffffffffffffffffffffffffffffffffffffffffffc3601126104485761137d611f37565b6113856127d3565b73ffffffffffffffffffffffffffffffffffffffff80911690817fffffffffffffffffffffffff000000000000000000000000000000000000000060015416176001558254167fb9911e2099e372c216862258dc462bb65da46a2c854536c8b1acae619d0d62ed8380a380f35b508290346108865760209160207ffffffffffffffffffffffffffffffffffffffffffffffffffffffffffffffffc3601126106b957803591338552600260205260ff9360ff828720541615610c6e5760ff8460f01c1690600a82116106b557909373ffffffffffffffffffffffffffffffffffffffff91907f00000000000000000000000000000000000000000000000000000000000000008316907f0000000000000000000000000000000000000000000000000000000000000000841690895b888a8216106114c1578a80f35b8a87517ff1f6c0e700000000000000000000000000000000000000000000000000000000815262ffffff848d60188602161c168a820152602487828281895afa918215610c64578392611580575b50863b156108865789517f6e43596a0000000000000000000000000000000000000000000000000000000081529189168b8301528290829081838a5af18015610c3b57908c939291611567575b5050600101166114b4565b61157391929350611ff1565b6105535789908b8d61155c565b611598919250883d8a1161064c5761063d8183612050565b908e61150f565b50346106bd5760207ffffffffffffffffffffffffffffffffffffffffffffffffffffffffffffffffc3601126106bd5760ff8160209373ffffffffffffffffffffffffffffffffffffffff6115f2611f37565b1681526002855220541690519015158152f35b50346106bd57817ffffffffffffffffffffffffffffffffffffffffffffffffffffffffffffffffc3601126106bd576020905173ffffffffffffffffffffffffffffffffffffffff7f0000000000000000000000000000000000000000000000000000000000000000168152f35b50346106bd57817ffffffffffffffffffffffffffffffffffffffffffffffffffffffffffffffffc3601126106bd576020905173ffffffffffffffffffffffffffffffffffffffff7f0000000000000000000000000000000000000000000000000000000000000000168152f35b5082903461088657827ffffffffffffffffffffffffffffffffffffffffffffffffffffffffffffffffc360112610886576001549173ffffffffffffffffffffffffffffffffffffffff918284163303610a875750507fffffffffffffffffffffffff0000000000000000000000000000000000000000809216600155825491339083161783553391167f3d1e4c3a68fed9f4f8315582b7297cf8fa264bc8e6704287603ba8c72bf05ac28380a380f35b50346106bd57817ffffffffffffffffffffffffffffffffffffffffffffffffffffffffffffffffc3601126106bd576020905173ffffffffffffffffffffffffffffffffffffffff7f0000000000000000000000000000000000000000000000000000000000000000168152f35b50346106bd57817ffffffffffffffffffffffffffffffffffffffffffffffffffffffffffffffffc3601126106bd5760209060ff60035460a01c1690519015158152f35b50346106bd5760207ffffffffffffffffffffffffffffffffffffffffffffffffffffffffffffffffc3601126106bd578235906fffffffffffffffffffffffffffffffff8216820361088657338352600260205260ff81842054161561085e57829373ffffffffffffffffffffffffffffffffffffffff7f0000000000000000000000000000000000000000000000000000000000000000166118e5612763565b90803b1561085a57610847948680948651978895869485937ffd6f7e84000000000000000000000000000000000000000000000000000000008552840190929173ffffffffffffffffffffffffffffffffffffffff6020916fffffffffffffffffffffffffffffffff604085019616845216910152565b50346106bd57817ffffffffffffffffffffffffffffffffffffffffffffffffffffffffffffffffc3601126106bd576020905173ffffffffffffffffffffffffffffffffffffffff7f0000000000000000000000000000000000000000000000000000000000000000168152f35b508290346108865760207ffffffffffffffffffffffffffffffffffffffffffffffffffffffffffffffffc36011261088657338352600260205260ff818420541615610a875750610a84903561211b565b50346106bd57817ffffffffffffffffffffffffffffffffffffffffffffffffffffffffffffffffc3601126106bd576020905173ffffffffffffffffffffffffffffffffffffffff7f0000000000000000000000000000000000000000000000000000000000000000168152f35b50346106bd57817ffffffffffffffffffffffffffffffffffffffffffffffffffffffffffffffffc3601126106bd576020905173ffffffffffffffffffffffffffffffffffffffff7f0000000000000000000000000000000000000000000000000000000000000000168152f35b50346106bd57817ffffffffffffffffffffffffffffffffffffffffffffffffffffffffffffffffc3601126106bd5760209073ffffffffffffffffffffffffffffffffffffffff600154169051908152f35b50346106bd57807ffffffffffffffffffffffffffffffffffffffffffffffffffffffffffffffffc3601126106bd57611b80611f37565b9060243591821515809303610a2e5773ffffffffffffffffffffffffffffffffffffffff90611bad6127d3565b1690818452600260205283207fffffffffffffffffffffffffffffffffffffffffffffffffffffffffffffff0081541660ff84161790557f9fdbc2d48b8a0db2f62663bf9312ad02f5b1f6414ad600b55a247d09aeec3ea28380a380f35b50829034610886576020807ffffffffffffffffffffffffffffffffffffffffffffffffffffffffffffffffc3601126106b9578235903385526002815260ff838620541615611e515773ffffffffffffffffffffffffffffffffffffffff918351947ff1f6c0e700000000000000000000000000000000000000000000000000000000865262ffffff8216818701528286602481877f0000000000000000000000000000000000000000000000000000000000000000165afa958615611e47578796611e28575b50838260181c169387817f00000000000000000000000000000000000000000000000000000000000000001697611d07612763565b98803b15610886578391836064928b5196879586947f3bd9a15d000000000000000000000000000000000000000000000000000000008652169d8e8a8601528c60248601521660448401525af19081611e15575b50611e0c57600180611d6b6120bd565b9360b81c1614611dd25750907fffffffff00000000000000000000000000000000000000000000000000000000611dc47f297aa9811f9acbe58e72bc8caecab16925b92b5360e48c8b9f28d531689f2fa8959493612789565b84519384521690820152a280f35b90610f239085519384937f15fcd6750000000000000000000000000000000000000000000000000000000085528401526024830190611fae565b50505050505080f35b611e2190989198611ff1565b9688611d5b565b611e40919650833d851161064c5761063d8183612050565b9487611cd2565b85513d89823e3d90fd5b5050517fee90c468000000000000000000000000000000000000000000000000000000008152fd5b50346106bd57817ffffffffffffffffffffffffffffffffffffffffffffffffffffffffffffffffc3601126106bd5773ffffffffffffffffffffffffffffffffffffffff60209254169051908152f35b8390346106bd57817ffffffffffffffffffffffffffffffffffffffffffffffffffffffffffffffffc3601126106bd5760209073ffffffffffffffffffffffffffffffffffffffff7f0000000000000000000000000000000000000000000000000000000000000000168152f35b6004359073ffffffffffffffffffffffffffffffffffffffff82168203610a2e57565b9181601f84011215610a2e5782359167ffffffffffffffff8311610a2e576020808501948460051b010111610a2e57565b60005b838110611f9e5750506000910152565b8181015183820152602001611f8e565b907fffffffffffffffffffffffffffffffffffffffffffffffffffffffffffffffe0601f602093611fea81518092818752878088019101611f8b565b0116010190565b67ffffffffffffffff811161200557604052565b7f4e487b7100000000000000000000000000000000000000000000000000000000600052604160045260246000fd5b6040810190811067ffffffffffffffff82111761200557604052565b90601f7fffffffffffffffffffffffffffffffffffffffffffffffffffffffffffffffe0910116810190811067ffffffffffffffff82111761200557604052565b90816020910312610a2e575173ffffffffffffffffffffffffffffffffffffffff81168103610a2e5790565b3d15612116573d9067ffffffffffffffff8211612005576040519161210a60207fffffffffffffffffffffffffffffffffffffffffffffffffffffffffffffffe0601f8401160184612050565b82523d6000602084013e565b606090565b612123612763565b6000917effffffffffffffffffffffffffffffffffffffffffffffffffffffffffffff81169273ffffffffffffffffffffffffffffffffffffffff7f00000000000000000000000000000000000000000000000000000000000000001691823b156106bd576040517f71b40c9f0000000000000000000000000000000000000000000000000000000081527effffffffffffffffffffffffffffffffffffffffffffffffffffffffffffff8616600482015273ffffffffffffffffffffffffffffffffffffffff85166024820152828160448183885af1908161243c575b50612435576001806122116120bd565b9260f81c16146123f75761222490612789565b917fffffffff000000000000000000000000000000000000000000000000000000008316937fe5d8c52e0000000000000000000000000000000000000000000000000000000085146123cc5760ff60035460a01c16612286575b505050505050565b813b15610886576040517f7bae8c5a0000000000000000000000000000000000000000000000000000000081527effffffffffffffffffffffffffffffffffffffffffffffffffffffffffffff8716600482015273ffffffffffffffffffffffffffffffffffffffff919091166024820152919081908390604490829084905af191826123b8575b5050612387577f5f1069978d13e115ba1af011829ac271b9b9a5ad529834af3bd98611c472f97991506123476123426120bd565b612789565b604080517fffffffff000000000000000000000000000000000000000000000000000000009384168152919092166020820152a25b38808080808061227e565b5060207f0526b09477d5c650a270b0ef680a38fa670add5dd9fc57ce8296e817c4b8d04491604051908152a261237c565b6123c28291611ff1565b610448578061230e565b50507ff9f6fa3a9ddb40697a7f76a54028d5017662674fbf4089eb72041115755ce84c9250809150a2565b610f23906040519182917f15fcd675000000000000000000000000000000000000000000000000000000008352602060048401526024830190611fae565b5050505050565b61244890939193611ff1565b9138612201565b67ffffffffffffffff81116120055760051b60200190565b805182101561247b5760209160051b010190565b7f4e487b7100000000000000000000000000000000000000000000000000000000600052603260045260246000fd5b6124b2612763565b6000917effffffffffffffffffffffffffffffffffffffffffffffffffffffffffffff81169273ffffffffffffffffffffffffffffffffffffffff7f00000000000000000000000000000000000000000000000000000000000000001691823b156106bd576040517fe6467b690000000000000000000000000000000000000000000000000000000081527effffffffffffffffffffffffffffffffffffffffffffffffffffffffffffff8616600482015273ffffffffffffffffffffffffffffffffffffffff85166024820152828160448183885af19081612740575b50612435576001806125a06120bd565b9260f81c16146123f7576125b390612789565b917fffffffff000000000000000000000000000000000000000000000000000000008316937fe5d8c52e0000000000000000000000000000000000000000000000000000000085146127155760ff60035460a01c1661261457505050505050565b813b15610886576040517f8ec4ad8b0000000000000000000000000000000000000000000000000000000081527effffffffffffffffffffffffffffffffffffffffffffffffffffffffffffff8716600482015273ffffffffffffffffffffffffffffffffffffffff919091166024820152919081908390604490829084905af19182612701575b50506126d0577f106a25fae17aefc321e4002a4fde757bd867cc5eac84765c37924a75fdf3ce4f91506123476123426120bd565b5060207f751e390e5c4a9c0f67a776a4502a1212939d2672619cd7eb927641c8dee6d24691604051908152a261237c565b61270b8291611ff1565b610448578061269c565b50507f48c72426897b1add2da74d2e716c4f0c0bc75331fde684c18d899fa035985e889250809150a2565b61274c90939193611ff1565b9138612590565b919081101561247b5760051b0190565b60035473ffffffffffffffffffffffffffffffffffffffff168061278657503390565b90565b90602082519201517fffffffff000000000000000000000000000000000000000000000000000000009081811693600481106127c457505050565b60040360031b82901b16169150565b73ffffffffffffffffffffffffffffffffffffffff6000541633036127f457565b60046040517fee90c468000000000000000000000000000000000000000000000000000000008152fd5b9061285d575080511561283357805190602001fd5b60046040517f1425ea42000000000000000000000000000000000000000000000000000000008152fd5b815115806128b5575b61286e575090565b60249073ffffffffffffffffffffffffffffffffffffffff604051917f9996b315000000000000000000000000000000000000000000000000000000008352166004820152fd5b50803b1561286656fea2646970667358221220eba6f4a10d74b75943bd09801846f35a5f678239f968a38031f542d06379be1164736f6c63430008170033",
  "linkReferences": {},
  "deployedLinkReferences": {}
}