{
  "_format": "hh-sol-artifact-1",
  "contractName": "FarmRewardDistributor",
  "sourceName": "contracts/farming/FarmRewardDistributor.sol",
  "abi": [
    {
      "inputs": [
        {
          "internalType": "contract IFarmRewardDistributorV2",
          "name": "_distributorV2",
          "type": "address"
        },
        {
          "internalType": "contract MarketIndexer",
          "name": "_marketIndexer",
          "type": "address"
        }
      ],
      "stateMutability": "nonpayable",
      "type": "constructor"
    },
    {
      "inputs": [
        {
          "internalType": "address",
          "name": "target",
          "type": "address"
        }
      ],
      "name": "AddressEmptyCode",
      "type": "error"
    },
    {
      "inputs": [
        {
          "internalType": "address",
          "name": "account",
          "type": "address"
        }
      ],
      "name": "AddressInsufficientBalance",
      "type": "error"
    },
    {
      "inputs": [],
      "name": "ECDSAInvalidSignature",
      "type": "error"
    },
    {
      "inputs": [
        {
          "internalType": "uint256",
          "name": "length",
          "type": "uint256"
        }
      ],
      "name": "ECDSAInvalidSignatureLength",
      "type": "error"
    },
    {
      "inputs": [
        {
          "internalType": "bytes32",
          "name": "s",
          "type": "bytes32"
        }
      ],
      "name": "ECDSAInvalidSignatureS",
      "type": "error"
    },
    {
      "inputs": [],
      "name": "FailedInnerCall",
      "type": "error"
    },
    {
      "inputs": [],
      "name": "Forbidden",
      "type": "error"
    },
    {
      "inputs": [
        {
          "internalType": "uint16",
          "name": "period",
          "type": "uint16"
        }
      ],
      "name": "InvalidLockupPeriod",
      "type": "error"
    },
    {
      "inputs": [
        {
          "internalType": "contract IMarketDescriptor",
          "name": "market",
          "type": "address"
        }
      ],
      "name": "InvalidMarket",
      "type": "error"
    },
    {
      "inputs": [
        {
          "internalType": "address",
          "name": "owner",
          "type": "address"
        },
        {
          "internalType": "uint256",
          "name": "tokenID",
          "type": "uint256"
        }
      ],
      "name": "InvalidNFTOwner",
      "type": "error"
    },
    {
      "inputs": [
        {
          "internalType": "uint32",
          "name": "nonce",
          "type": "uint32"
        }
      ],
      "name": "InvalidNonce",
      "type": "error"
    },
    {
      "inputs": [
        {
          "internalType": "uint16",
          "name": "rewardType",
          "type": "uint16"
        }
      ],
      "name": "InvalidRewardType",
      "type": "error"
    },
    {
      "inputs": [],
      "name": "InvalidSignature",
      "type": "error"
    },
    {
      "inputs": [],
      "name": "ReentrancyGuardReentrantCall",
      "type": "error"
    },
    {
      "inputs": [
        {
          "internalType": "address",
          "name": "token",
          "type": "address"
        }
      ],
      "name": "SafeERC20FailedOperation",
      "type": "error"
    },
    {
      "anonymous": false,
      "inputs": [
        {
          "indexed": true,
          "internalType": "address",
          "name": "previousGov",
          "type": "address"
        },
        {
          "indexed": true,
          "internalType": "address",
          "name": "newGov",
          "type": "address"
        }
      ],
      "name": "ChangeGovStarted",
      "type": "event"
    },
    {
      "anonymous": false,
      "inputs": [
        {
          "indexed": true,
          "internalType": "address",
          "name": "collector",
          "type": "address"
        },
        {
          "indexed": false,
          "internalType": "bool",
          "name": "enabled",
          "type": "bool"
        }
      ],
      "name": "CollectorUpdated",
      "type": "event"
    },
    {
      "anonymous": false,
      "inputs": [
        {
          "indexed": true,
          "internalType": "address",
          "name": "previousGov",
          "type": "address"
        },
        {
          "indexed": true,
          "internalType": "address",
          "name": "newGov",
          "type": "address"
        }
      ],
      "name": "GovChanged",
      "type": "event"
    },
    {
      "anonymous": false,
      "inputs": [
        {
          "indexed": false,
          "internalType": "address",
          "name": "pool",
          "type": "address"
        },
        {
          "indexed": true,
          "internalType": "address",
          "name": "account",
          "type": "address"
        },
        {
          "indexed": true,
          "internalType": "uint16",
          "name": "rewardType",
          "type": "uint16"
        },
        {
          "indexed": true,
          "internalType": "uint16",
          "name": "referralToken",
          "type": "uint16"
        },
        {
          "indexed": false,
          "internalType": "uint32",
          "name": "nonce",
          "type": "uint32"
        },
        {
          "indexed": false,
          "internalType": "address",
          "name": "receiver",
          "type": "address"
        },
        {
          "indexed": false,
          "internalType": "uint200",
          "name": "amount",
          "type": "uint200"
        }
      ],
      "name": "RewardCollected",
      "type": "event"
    },
    {
      "anonymous": false,
      "inputs": [
        {
          "indexed": true,
          "internalType": "address",
          "name": "account",
          "type": "address"
        },
        {
          "indexed": true,
          "internalType": "uint16",
          "name": "period",
          "type": "uint16"
        },
        {
          "indexed": true,
          "internalType": "address",
          "name": "receiver",
          "type": "address"
        },
        {
          "indexed": false,
          "internalType": "uint256",
          "name": "lockedOrUnlockedAmount",
          "type": "uint256"
        },
        {
          "indexed": false,
          "internalType": "uint256",
          "name": "burnedAmount",
          "type": "uint256"
        }
      ],
      "name": "RewardLockedAndBurned",
      "type": "event"
    },
    {
      "inputs": [],
      "name": "EFC",
      "outputs": [
        {
          "internalType": "contract IEFC",
          "name": "",
          "type": "address"
        }
      ],
      "stateMutability": "view",
      "type": "function"
    },
    {
      "inputs": [],
      "name": "acceptGov",
      "outputs": [],
      "stateMutability": "nonpayable",
      "type": "function"
    },
    {
      "inputs": [
        {
          "internalType": "address",
          "name": "_newGov",
          "type": "address"
        }
      ],
      "name": "changeGov",
      "outputs": [],
      "stateMutability": "nonpayable",
      "type": "function"
    },
    {
      "inputs": [
        {
          "internalType": "address",
          "name": "_account",
          "type": "address"
        },
        {
          "internalType": "PackedValue",
          "name": "_nonceAndLockupPeriod",
          "type": "uint256"
        },
        {
          "internalType": "PackedValue[]",
          "name": "_packedMarketRewardValues",
          "type": "uint256[]"
        },
        {
          "internalType": "bytes",
          "name": "_signature",
          "type": "bytes"
        },
        {
          "internalType": "address",
          "name": "_receiver",
          "type": "address"
        }
      ],
      "name": "collectBatch",
      "outputs": [],
      "stateMutability": "nonpayable",
      "type": "function"
    },
    {
      "inputs": [
        {
          "internalType": "uint16",
          "name": "referralToken",
          "type": "uint16"
        },
        {
          "internalType": "contract IMarketDescriptor",
          "name": "market",
          "type": "address"
        },
        {
          "internalType": "uint16",
          "name": "rewardType",
          "type": "uint16"
        }
      ],
      "name": "collectedReferralRewards",
      "outputs": [
        {
          "internalType": "uint200",
          "name": "amount",
          "type": "uint200"
        }
      ],
      "stateMutability": "view",
      "type": "function"
    },
    {
      "inputs": [
        {
          "internalType": "address",
          "name": "account",
          "type": "address"
        },
        {
          "internalType": "contract IMarketDescriptor",
          "name": "market",
          "type": "address"
        },
        {
          "internalType": "uint16",
          "name": "rewardType",
          "type": "uint16"
        }
      ],
      "name": "collectedRewards",
      "outputs": [
        {
          "internalType": "uint200",
          "name": "amount",
          "type": "uint200"
        }
      ],
      "stateMutability": "view",
      "type": "function"
    },
    {
      "inputs": [
        {
          "internalType": "address",
          "name": "collector",
          "type": "address"
        }
      ],
      "name": "collectors",
      "outputs": [
        {
          "internalType": "bool",
          "name": "active",
          "type": "bool"
        }
      ],
      "stateMutability": "view",
      "type": "function"
    },
    {
      "inputs": [],
      "name": "distributorV2",
      "outputs": [
        {
          "internalType": "contract IFarmRewardDistributorV2",
          "name": "",
          "type": "address"
        }
      ],
      "stateMutability": "view",
      "type": "function"
    },
    {
      "inputs": [],
      "name": "feeDistributor",
      "outputs": [
        {
          "internalType": "contract IFeeDistributor",
          "name": "",
          "type": "address"
        }
      ],
      "stateMutability": "view",
      "type": "function"
    },
    {
      "inputs": [],
      "name": "gov",
      "outputs": [
        {
          "internalType": "address",
          "name": "",
          "type": "address"
        }
      ],
      "stateMutability": "view",
      "type": "function"
    },
    {
      "inputs": [],
      "name": "marketIndexer",
      "outputs": [
        {
          "internalType": "contract MarketIndexer",
          "name": "",
          "type": "address"
        }
      ],
      "stateMutability": "view",
      "type": "function"
    },
    {
      "inputs": [
        {
          "internalType": "address",
          "name": "account",
          "type": "address"
        }
      ],
      "name": "nonces",
      "outputs": [
        {
          "internalType": "uint32",
          "name": "nonce",
          "type": "uint32"
        }
      ],
      "stateMutability": "view",
      "type": "function"
    },
    {
      "inputs": [],
      "name": "pendingGov",
      "outputs": [
        {
          "internalType": "address",
          "name": "",
          "type": "address"
        }
      ],
      "stateMutability": "view",
      "type": "function"
    },
    {
      "inputs": [
        {
          "internalType": "address",
          "name": "_collector",
          "type": "address"
        },
        {
          "internalType": "bool",
          "name": "_enabled",
          "type": "bool"
        }
      ],
      "name": "setCollector",
      "outputs": [],
      "stateMutability": "nonpayable",
      "type": "function"
    },
    {
      "inputs": [],
      "name": "signer",
      "outputs": [
        {
          "internalType": "address",
          "name": "",
          "type": "address"
        }
      ],
      "stateMutability": "view",
      "type": "function"
    },
    {
      "inputs": [],
      "name": "token",
      "outputs": [
        {
          "internalType": "contract IERC20",
          "name": "",
          "type": "address"
        }
      ],
      "stateMutability": "view",
      "type": "function"
    }
  ],
  "bytecode": "0x610140604090808252346200035d578181620021b0803803809162000025828562000362565b8339810103126200035d578051916001600160a01b0391828416908185036200035d576020809101519380851685036200035d5760008054336001600160a01b031982168117835586519295929184167f3d1e4c3a68fed9f4f8315582b7297cf8fa264bc8e6704287603ba8c72bf05ac28780a3600160025561010097885263238ac93360e01b81528381600481855afa908115620002d957859162000320575b506080528451637e062a3560e11b81528381600481855afa908115620002d9578591620002e3575b5060a0528451630a107c0160e11b81528381600481855afa908115620002d957859162000297575b5060c0528451630d43e8ad60e01b81529291908290849060049082905afa9283156200028d5784936200024a575b5060e083905261012095865260a051855163095ea7b360e01b8152938216600485015260001960248501528291849160449183918891165af180156200024057620001ff575b5050505190611e1392836200039d84396080518381816106370152611854015260a05183818161011a01526106d8015260c051838181610e0401526118c3015260e05183818161092801526119830152518281816104d601528181610c960152611598015251818181610bef01526119f10152f35b81813d831162000238575b62000216818362000362565b8101031262000234575180151503620002315780806200018a565b80fd5b5080fd5b503d6200020a565b84513d85823e3d90fd5b9092508181813d831162000285575b62000265818362000362565b8101031262000281575182811681036200028157918162000144565b8380fd5b503d62000259565b85513d86823e3d90fd5b90508381813d8311620002d1575b620002b1818362000362565b81010312620002cd57518281168103620002cd57600462000116565b8480fd5b503d620002a5565b86513d87823e3d90fd5b90508381813d831162000318575b620002fd818362000362565b81010312620002cd57518281168103620002cd5738620000ee565b503d620002f1565b90508381813d831162000355575b6200033a818362000362565b81010312620002cd57518281168103620002cd5738620000c6565b503d6200032e565b600080fd5b601f909101601f19168101906001600160401b038211908210176200038657604052565b634e487b7160e01b600052604160045260246000fdfe608080604052600436101561001357600080fd5b600090813560e01c908162130944146119a7575080630d43e8ad1461193857806312d43a51146118e75780631420f80214611878578063238ac9331461180957806325240810146117b7578063425ac56d146117115780634bf57216146116675780637bc6729b146115bc5780637d0d9d5f1461154d5780637ecebe00146114e45780638f1d31ec146103235780639593b523146102bb578063a962ef1e1461020e578063df2cc13f146101415763fc0c546a146100d057600080fd5b3461013e57807ffffffffffffffffffffffffffffffffffffffffffffffffffffffffffffffffc36011261013e57602060405173ffffffffffffffffffffffffffffffffffffffff7f0000000000000000000000000000000000000000000000000000000000000000168152f35b80fd5b503461013e5760407ffffffffffffffffffffffffffffffffffffffffffffffffffffffffffffffffc36011261013e57610179611a15565b6024359081151580920361020a57602073ffffffffffffffffffffffffffffffffffffffff7f949457f2c83e79cb62d2f4f8a997d128579a78f100b40b1832fc0981b22c113f926101c8611b16565b169283855260038252604085207fffffffffffffffffffffffffffffffffffffffffffffffffffffffffffffff0081541660ff8316179055604051908152a280f35b8280fd5b503461013e5760207ffffffffffffffffffffffffffffffffffffffffffffffffffffffffffffffffc36011261013e57610246611a15565b61024e611b16565b73ffffffffffffffffffffffffffffffffffffffff80911690817fffffffffffffffffffffffff000000000000000000000000000000000000000060015416176001558254167fb9911e2099e372c216862258dc462bb65da46a2c854536c8b1acae619d0d62ed8380a380f35b503461013e5760207ffffffffffffffffffffffffffffffffffffffffffffffffffffffffffffffffc36011261013e5760ff604060209273ffffffffffffffffffffffffffffffffffffffff61030f611a15565b168152600384522054166040519015158152f35b503461013e5760a07ffffffffffffffffffffffffffffffffffffffffffffffffffffffffffffffffc36011261013e5761035b611a15565b67ffffffffffffffff60443511610a4057366023604435011215610a405767ffffffffffffffff6044356004013511610a40573660246044356004013560051b604435010111610a405767ffffffffffffffff60643511610a4057366023606435011215610a405767ffffffffffffffff6064356004013511610a405736602460643560040135606435010111610a40576084359073ffffffffffffffffffffffffffffffffffffffff8216918281036112ac5760028054146114ba5760028055338452600360205260ff60408520541615611490579115611488575b73ffffffffffffffffffffffffffffffffffffffff811683526004602052600163ffffffff6040852054160163ffffffff811161145b5763ffffffff1663ffffffff602435160361142457604051917f55a9437900000000000000000000000000000000000000000000000000000000835261ffff60243560201c16600484015260208360248173ffffffffffffffffffffffffffffffffffffffff7f0000000000000000000000000000000000000000000000000000000000000000165afa9283156114195784936113d8575b5063ffffffff8316156113a05760405173ffffffffffffffffffffffffffffffffffffffff83166020820152602435604082015260608082015260443560040135608082015260a081018160246044350191875b604435600401358110611386575061059b92507fffffffffffffffffffffffffffffffffffffffffffffffffffffffffffffffe08282030182520382611a6c565b602081519101207f19457468657265756d205369676e6564204d6573736167653a0a3332000000008552601c5261061f610616603c86206105e160643560040135611adc565b906105ef6040519283611a6c565b60643560048101358084529060240160208401378760206064356004013584010152611b37565b90929192611b73565b73ffffffffffffffffffffffffffffffffffffffff807f00000000000000000000000000000000000000000000000000000000000000001691160361135c5783845b604435600401358110610b96575073ffffffffffffffffffffffffffffffffffffffff8316855260046020526040852063ffffffff602435167fffffffffffffffffffffffffffffffffffffffffffffffffffffffff0000000082541617905573ffffffffffffffffffffffffffffffffffffffff7f0000000000000000000000000000000000000000000000000000000000000000169361078c6040517f40c10f190000000000000000000000000000000000000000000000000000000060208201526107868161075a8630602484016020909392919373ffffffffffffffffffffffffffffffffffffffff60408201951681520152565b037fffffffffffffffffffffffffffffffffffffffffffffffffffffffffffffffe08101835282611a6c565b86611cf7565b5063ffffffff16818102908282041482151715610b69576305f5e10090049384820391808311610b3c578503610a44575b60243560201c61ffff1661090f576040517fa9059cbb00000000000000000000000000000000000000000000000000000000602082015273ffffffffffffffffffffffffffffffffffffffff841660248201526044810186905261082e90610828816064810161075a565b82611cf7565b80519081151591826108e6575b50506108b557509073ffffffffffffffffffffffffffffffffffffffff915b604051948552602085015216917fff48abba558412f72ae3344bb8f6d20cadc01a1da2838cdafb288ec541c6b98e604073ffffffffffffffffffffffffffffffffffffffff61ffff60243560201c16941692a4600160025580f35b602490604051907f5274afe70000000000000000000000000000000000000000000000000000000082526004820152fd5b819250906020918101031261090a576020015180159081150361090a57388061083b565b600080fd5b508473ffffffffffffffffffffffffffffffffffffffff7f000000000000000000000000000000000000000000000000000000000000000016803b15610a405781906064604051809481937fdc8c4ffe0000000000000000000000000000000000000000000000000000000083528a600484015273ffffffffffffffffffffffffffffffffffffffff8916602484015261ffff60243560201c1660448401525af18015610a35576109d8575b509073ffffffffffffffffffffffffffffffffffffffff9161085a565b67ffffffffffffffff8196929611610a08576040529373ffffffffffffffffffffffffffffffffffffffff6109bb565b6024827f4e487b710000000000000000000000000000000000000000000000000000000081526041600452fd5b6040513d88823e3d90fd5b5080fd5b6040517fa9059cbb00000000000000000000000000000000000000000000000000000000602082015260016024820152826044820152604481526080810181811067ffffffffffffffff821117610b0f57604052610aa29082611cf7565b8051908115159182610ae7575b5050156107bd57602490604051907f5274afe70000000000000000000000000000000000000000000000000000000082526004820152fd5b8192509060209181010312610b0b5760200151801590811503610b0b573880610aaf565b8680fd5b6024887f4e487b710000000000000000000000000000000000000000000000000000000081526041600452fd5b6024877f4e487b710000000000000000000000000000000000000000000000000000000081526011600452fd5b6024867f4e487b710000000000000000000000000000000000000000000000000000000081526011600452fd5b6040517ff1f6c0e700000000000000000000000000000000000000000000000000000000815262ffffff60248360051b60443501013516600482015260208160248173ffffffffffffffffffffffffffffffffffffffff7f0000000000000000000000000000000000000000000000000000000000000000165afa908115611351578791611302575b5073ffffffffffffffffffffffffffffffffffffffff8116156112bb576040517f132b35bf00000000000000000000000000000000000000000000000000000000815261ffff60248460051b60443501013560181c166004820152878160248173ffffffffffffffffffffffffffffffffffffffff7f0000000000000000000000000000000000000000000000000000000000000000165afa9081156112b057889161120f575b5051156111cd57604435600583901b016024013560281c61ffff161561114d5761ffff60248360051b60443501013560281c16875260066020526040872073ffffffffffffffffffffffffffffffffffffffff821688526020526040872061ffff60248460051b60443501013560181c16885260205278ffffffffffffffffffffffffffffffffffffffffffffffffff604088205416925b78ffffffffffffffffffffffffffffffffffffffffffffffffff80851660248560051b60443501013560381c0311610fcb57604435600584901b016024013560281c61ffff16156110b4576040517f6352211e00000000000000000000000000000000000000000000000000000000815261ffff60248560051b60443501013560281c16600482015260208160248173ffffffffffffffffffffffffffffffffffffffff7f0000000000000000000000000000000000000000000000000000000000000000165afa9081156110a9578991611056575b5073ffffffffffffffffffffffffffffffffffffffff808816911603610ff857604435600584901b0160240135602881901c61ffff9081168a52600660209081526040808c2073ffffffffffffffffffffffffffffffffffffffff87168d528252808c20601885901c9093168c52919052892080547fffffffffffffff000000000000000000000000000000000000000000000000001660389290921c9190911790555b78ffffffffffffffffffffffffffffffffffffffffffffffffff80851660248560051b60443501013560381c031681018111610fcb576040805173ffffffffffffffffffffffffffffffffffffffff93841681526024803563ffffffff1660208301528785169282019290925278ffffffffffffffffffffffffffffffffffffffffffffffffff958616604435600587901b0190920135603881901c92909203909516606086018190529091019360019392602883901c61ffff9081169360181c1691908816907f47824e14048b805e2a7e5c061c8db0c06c3acf330c9238476ab2bdb1a5a80bf590608090a401610661565b6024887f4e487b710000000000000000000000000000000000000000000000000000000081526011600452fd5b60448661ffff60248673ffffffffffffffffffffffffffffffffffffffff604051947f848efb8b00000000000000000000000000000000000000000000000000000000865216600485015260051b843501013560281c166024820152fd5b90506020813d6020116110a1575b8161107160209383611a6c565b8101031261109d575173ffffffffffffffffffffffffffffffffffffffff8116810361109d5738610e34565b8880fd5b3d9150611064565b6040513d8b823e3d90fd5b73ffffffffffffffffffffffffffffffffffffffff8616885260056020526040882073ffffffffffffffffffffffffffffffffffffffff831689526020526040882061ffff60248560051b60443501013560181c1689526020526040882060248460051b60443501013560381c7fffffffffffffff00000000000000000000000000000000000000000000000000825416179055610ed8565b73ffffffffffffffffffffffffffffffffffffffff8516875260056020526040872073ffffffffffffffffffffffffffffffffffffffff821688526020526040872061ffff60248460051b60443501013560181c16885260205278ffffffffffffffffffffffffffffffffffffffffffffffffff60408820541692610d5e565b60248261ffff82604051927f9a47c78000000000000000000000000000000000000000000000000000000000845260051b60443501013560181c166004820152fd5b9050873d918282823e6112228382611a6c565b6020818481010312610a405780519067ffffffffffffffff821161020a57838101601f83830101121561020a57818101519161125d83611adc565b9461126b6040519687611a6c565b83865282016020848385010101116112ac57835b8381106112955750505082016020015238610cc6565b80602080928486010101518282890101520161127f565b8380fd5b6040513d8a823e3d90fd5b60249073ffffffffffffffffffffffffffffffffffffffff604051917f0eaba4c0000000000000000000000000000000000000000000000000000000008352166004820152fd5b90506020813d602011611349575b8161131d60209383611a6c565b81010312610b0b575173ffffffffffffffffffffffffffffffffffffffff81168103610b0b5738610c1f565b3d9150611310565b6040513d89823e3d90fd5b60046040517f8baa579f000000000000000000000000000000000000000000000000000000008152fd5b91506020806001928535815201930191019183919261055a565b60246040517f1a497d9d00000000000000000000000000000000000000000000000000000000815261ffff823560201c166004820152fd5b9092506020813d602011611411575b816113f460209383611a6c565b810103126112ac575163ffffffff811681036112ac579138610506565b3d91506113e7565b6040513d86823e3d90fd5b60246040517f1adf4e2600000000000000000000000000000000000000000000000000000000815263ffffffff8235166004820152fd5b6024847f4e487b710000000000000000000000000000000000000000000000000000000081526011600452fd5b339150610438565b60046040517fee90c468000000000000000000000000000000000000000000000000000000008152fd5b60046040517f3ee5aeb5000000000000000000000000000000000000000000000000000000008152fd5b503461013e5760207ffffffffffffffffffffffffffffffffffffffffffffffffffffffffffffffffc36011261013e5763ffffffff604060209273ffffffffffffffffffffffffffffffffffffffff61153b611a15565b16815260048452205416604051908152f35b503461013e57807ffffffffffffffffffffffffffffffffffffffffffffffffffffffffffffffffc36011261013e57602060405173ffffffffffffffffffffffffffffffffffffffff7f0000000000000000000000000000000000000000000000000000000000000000168152f35b503461013e57807ffffffffffffffffffffffffffffffffffffffffffffffffffffffffffffffffc36011261013e5760015473ffffffffffffffffffffffffffffffffffffffff8082163303611490577fffffffffffffffffffffffff0000000000000000000000000000000000000000809216600155825491339083161783553391167f3d1e4c3a68fed9f4f8315582b7297cf8fa264bc8e6704287603ba8c72bf05ac28380a380f35b503461013e5760607ffffffffffffffffffffffffffffffffffffffffffffffffffffffffffffffffc36011261013e5760043561ffff80821680920361020a5760209278ffffffffffffffffffffffffffffffffffffffffffffffffff926040926116d0611a38565b6116d8611a5b565b9284526006875273ffffffffffffffffffffffffffffffffffffffff858520911684528652838320911682528452205416604051908152f35b503461013e5760607ffffffffffffffffffffffffffffffffffffffffffffffffffffffffffffffffc36011261013e5778ffffffffffffffffffffffffffffffffffffffffffffffffff6040602092611768611a15565b611770611a38565b611778611a5b565b9173ffffffffffffffffffffffffffffffffffffffff80911684526005875284842091168352855261ffff838320911682528452205416604051908152f35b503461013e57807ffffffffffffffffffffffffffffffffffffffffffffffffffffffffffffffffc36011261013e57602073ffffffffffffffffffffffffffffffffffffffff60015416604051908152f35b503461013e57807ffffffffffffffffffffffffffffffffffffffffffffffffffffffffffffffffc36011261013e57602060405173ffffffffffffffffffffffffffffffffffffffff7f0000000000000000000000000000000000000000000000000000000000000000168152f35b503461013e57807ffffffffffffffffffffffffffffffffffffffffffffffffffffffffffffffffc36011261013e57602060405173ffffffffffffffffffffffffffffffffffffffff7f0000000000000000000000000000000000000000000000000000000000000000168152f35b503461013e57807ffffffffffffffffffffffffffffffffffffffffffffffffffffffffffffffffc36011261013e5773ffffffffffffffffffffffffffffffffffffffff6020915416604051908152f35b503461013e57807ffffffffffffffffffffffffffffffffffffffffffffffffffffffffffffffffc36011261013e57602060405173ffffffffffffffffffffffffffffffffffffffff7f0000000000000000000000000000000000000000000000000000000000000000168152f35b905034610a4057817ffffffffffffffffffffffffffffffffffffffffffffffffffffffffffffffffc360112610a405760209073ffffffffffffffffffffffffffffffffffffffff7f0000000000000000000000000000000000000000000000000000000000000000168152f35b6004359073ffffffffffffffffffffffffffffffffffffffff8216820361090a57565b6024359073ffffffffffffffffffffffffffffffffffffffff8216820361090a57565b6044359061ffff8216820361090a57565b90601f7fffffffffffffffffffffffffffffffffffffffffffffffffffffffffffffffe0910116810190811067ffffffffffffffff821117611aad57604052565b7f4e487b7100000000000000000000000000000000000000000000000000000000600052604160045260246000fd5b67ffffffffffffffff8111611aad57601f017fffffffffffffffffffffffffffffffffffffffffffffffffffffffffffffffe01660200190565b73ffffffffffffffffffffffffffffffffffffffff60005416330361149057565b8151919060418303611b6857611b6192506020820151906060604084015193015160001a90611c5a565b9192909190565b505060009160029190565b6004811015611c2b5780611b85575050565b60018103611bb75760046040517ff645eedf000000000000000000000000000000000000000000000000000000008152fd5b60028103611bf057602482604051907ffce698f70000000000000000000000000000000000000000000000000000000082526004820152fd5b600314611bfa5750565b602490604051907fd78bce0c0000000000000000000000000000000000000000000000000000000082526004820152fd5b7f4e487b7100000000000000000000000000000000000000000000000000000000600052602160045260246000fd5b91907f7fffffffffffffffffffffffffffffff5d576e7357a4501ddfe92f46681b20a08411611ceb57926020929160ff608095604051948552168484015260408301526060820152600092839182805260015afa15611cdf57805173ffffffffffffffffffffffffffffffffffffffff811615611cd657918190565b50809160019190565b604051903d90823e3d90fd5b50505060009160039190565b600080611d369360208151910182855af13d15611d39573d91611d1983611adc565b92611d276040519485611a6c565b83523d6000602085013e611d3d565b90565b6060915b90611d7c5750805115611d5257805190602001fd5b60046040517f1425ea42000000000000000000000000000000000000000000000000000000008152fd5b81511580611dd4575b611d8d575090565b60249073ffffffffffffffffffffffffffffffffffffffff604051917f9996b315000000000000000000000000000000000000000000000000000000008352166004820152fd5b50803b15611d8556fea264697066735822122097d08f9654d2d55514a22a03f6f1dcc46fbec1339d53283e58791a595bb893ab64736f6c63430008170033",
  "linkReferences": {},
  "deployedLinkReferences": {}
}